{
  "_format": "hh-sol-artifact-1",
  "contractName": "ChainlinkAggregator",
  "sourceName": "contracts/ChainlinkAggregator.sol",
  "abi": [
    {
      "inputs": [
        {
          "internalType": "uint32",
          "name": "_maximumGasPrice",
          "type": "uint32"
        },
        {
          "internalType": "uint32",
          "name": "_reasonableGasPrice",
          "type": "uint32"
        },
        {
          "internalType": "uint32",
          "name": "_microLinkPerEth",
          "type": "uint32"
        },
        {
          "internalType": "uint32",
          "name": "_linkGweiPerObservation",
          "type": "uint32"
        },
        {
          "internalType": "uint32",
          "name": "_linkGweiPerTransmission",
          "type": "uint32"
        },
        {
          "internalType": "contract LinkTokenInterface",
          "name": "_link",
          "type": "address"
        },
        {
          "internalType": "int192",
          "name": "_minAnswer",
          "type": "int192"
        },
        {
          "internalType": "int192",
          "name": "_maxAnswer",
          "type": "int192"
        },
        {
          "internalType": "contract AccessControllerInterface",
          "name": "_billingAccessController",
          "type": "address"
        },
        {
          "internalType": "contract AccessControllerInterface",
          "name": "_requesterAccessController",
          "type": "address"
        },
        {
          "internalType": "uint8",
          "name": "_decimals",
          "type": "uint8"
        },
        {
          "internalType": "string",
          "name": "_description",
          "type": "string"
        }
      ],
      "stateMutability": "nonpayable",
      "type": "constructor"
    },
    {
      "inputs": [
        {
          "internalType": "address",
          "name": "sender",
          "type": "address"
        },
        {
          "internalType": "string[]",
          "name": "urls",
          "type": "string[]"
        },
        {
          "internalType": "bytes",
          "name": "callData",
          "type": "bytes"
        },
        {
          "internalType": "bytes4",
          "name": "callbackFunction",
          "type": "bytes4"
        },
        {
          "internalType": "bytes",
          "name": "extraData",
          "type": "bytes"
        }
      ],
      "name": "OffchainLookup",
      "type": "error"
    },
    {
      "anonymous": false,
      "inputs": [
        {
          "indexed": true,
          "internalType": "int256",
          "name": "current",
          "type": "int256"
        },
        {
          "indexed": true,
          "internalType": "uint256",
          "name": "roundId",
          "type": "uint256"
        },
        {
          "indexed": false,
          "internalType": "uint256",
          "name": "updatedAt",
          "type": "uint256"
        }
      ],
      "name": "AnswerUpdated",
      "type": "event"
    },
    {
      "anonymous": false,
      "inputs": [
        {
          "indexed": false,
          "internalType": "uint32",
          "name": "previousConfigBlockNumber",
          "type": "uint32"
        },
        {
          "indexed": false,
          "internalType": "uint64",
          "name": "configCount",
          "type": "uint64"
        },
        {
          "indexed": false,
          "internalType": "address[]",
          "name": "signers",
          "type": "address[]"
        },
        {
          "indexed": false,
          "internalType": "address[]",
          "name": "transmitters",
          "type": "address[]"
        },
        {
          "indexed": false,
          "internalType": "uint8",
          "name": "threshold",
          "type": "uint8"
        },
        {
          "indexed": false,
          "internalType": "uint64",
          "name": "encodedConfigVersion",
          "type": "uint64"
        },
        {
          "indexed": false,
          "internalType": "bytes",
          "name": "encoded",
          "type": "bytes"
        }
      ],
      "name": "ConfigSet",
      "type": "event"
    },
    {
      "anonymous": false,
      "inputs": [
        {
          "indexed": false,
          "internalType": "uint8",
          "name": "version",
          "type": "uint8"
        }
      ],
      "name": "Initialized",
      "type": "event"
    },
    {
      "anonymous": false,
      "inputs": [
        {
          "indexed": true,
          "internalType": "address",
          "name": "interchainGasPaymaster",
          "type": "address"
        }
      ],
      "name": "InterchainGasPaymasterSet",
      "type": "event"
    },
    {
      "anonymous": false,
      "inputs": [
        {
          "indexed": true,
          "internalType": "address",
          "name": "module",
          "type": "address"
        }
      ],
      "name": "InterchainSecurityModuleSet",
      "type": "event"
    },
    {
      "anonymous": false,
      "inputs": [
        {
          "indexed": true,
          "internalType": "address",
          "name": "mailbox",
          "type": "address"
        }
      ],
      "name": "MailboxSet",
      "type": "event"
    },
    {
      "anonymous": false,
      "inputs": [
        {
          "indexed": true,
          "internalType": "uint256",
          "name": "roundId",
          "type": "uint256"
        },
        {
          "indexed": true,
          "internalType": "address",
          "name": "startedBy",
          "type": "address"
        },
        {
          "indexed": false,
          "internalType": "uint256",
          "name": "startedAt",
          "type": "uint256"
        }
      ],
      "name": "NewRound",
      "type": "event"
    },
    {
      "anonymous": false,
      "inputs": [
        {
          "indexed": true,
          "internalType": "uint32",
          "name": "aggregatorRoundId",
          "type": "uint32"
        },
        {
          "indexed": false,
          "internalType": "int192",
          "name": "answer",
          "type": "int192"
        },
        {
          "indexed": false,
          "internalType": "address",
          "name": "transmitter",
          "type": "address"
        },
        {
          "indexed": false,
          "internalType": "int192[]",
          "name": "observations",
          "type": "int192[]"
        },
        {
          "indexed": false,
          "internalType": "bytes",
          "name": "observers",
          "type": "bytes"
        },
        {
          "indexed": false,
          "internalType": "bytes32",
          "name": "rawReportContext",
          "type": "bytes32"
        }
      ],
      "name": "NewTransmission",
      "type": "event"
    },
    {
      "anonymous": false,
      "inputs": [
        {
          "indexed": false,
          "internalType": "bytes",
          "name": "extraData",
          "type": "bytes"
        }
      ],
      "name": "OffchainExtraDataUpdated",
      "type": "event"
    },
    {
      "anonymous": false,
      "inputs": [
        {
          "indexed": false,
          "internalType": "string[]",
          "name": "urls",
          "type": "string[]"
        }
      ],
      "name": "OffchainUrlsUpdated",
      "type": "event"
    },
    {
      "anonymous": false,
      "inputs": [
        {
          "indexed": true,
          "internalType": "address",
          "name": "previousOwner",
          "type": "address"
        },
        {
          "indexed": true,
          "internalType": "address",
          "name": "newOwner",
          "type": "address"
        }
      ],
      "name": "OwnershipTransferred",
      "type": "event"
    },
    {
      "anonymous": false,
      "inputs": [
        {
          "indexed": true,
          "internalType": "contract AggregatorValidatorInterface",
          "name": "previousValidator",
          "type": "address"
        },
        {
          "indexed": false,
          "internalType": "uint32",
          "name": "previousGasLimit",
          "type": "uint32"
        },
        {
          "indexed": true,
          "internalType": "contract AggregatorValidatorInterface",
          "name": "currentValidator",
          "type": "address"
        },
        {
          "indexed": false,
          "internalType": "uint32",
          "name": "currentGasLimit",
          "type": "uint32"
        }
      ],
      "name": "ValidatorConfigSet",
      "type": "event"
    },
    {
      "inputs": [],
      "name": "decimals",
      "outputs": [
        {
          "internalType": "uint8",
          "name": "",
          "type": "uint8"
        }
      ],
      "stateMutability": "view",
      "type": "function"
    },
    {
      "inputs": [],
      "name": "description",
      "outputs": [
        {
          "internalType": "string",
          "name": "",
          "type": "string"
        }
      ],
      "stateMutability": "view",
      "type": "function"
    },
    {
      "inputs": [
        {
          "internalType": "uint256",
          "name": "_roundId",
          "type": "uint256"
        }
      ],
      "name": "getAnswer",
      "outputs": [
        {
          "internalType": "int256",
          "name": "",
          "type": "int256"
        }
      ],
      "stateMutability": "view",
      "type": "function"
    },
    {
      "inputs": [
        {
          "internalType": "bytes",
          "name": "_calldata",
          "type": "bytes"
        }
      ],
      "name": "getOffchainVerifyInfo",
      "outputs": [
        {
          "internalType": "bool",
          "name": "",
          "type": "bool"
        }
      ],
      "stateMutability": "view",
      "type": "function"
    },
    {
      "inputs": [
        {
          "internalType": "uint80",
          "name": "_roundId",
          "type": "uint80"
        }
      ],
      "name": "getRoundData",
      "outputs": [
        {
          "internalType": "uint80",
          "name": "roundId",
          "type": "uint80"
        },
        {
          "internalType": "int256",
          "name": "answer",
          "type": "int256"
        },
        {
          "internalType": "uint256",
          "name": "startedAt",
          "type": "uint256"
        },
        {
          "internalType": "uint256",
          "name": "updatedAt",
          "type": "uint256"
        },
        {
          "internalType": "uint80",
          "name": "answeredInRound",
          "type": "uint80"
        }
      ],
      "stateMutability": "view",
      "type": "function"
    },
    {
      "inputs": [
        {
          "internalType": "uint256",
          "name": "_roundId",
          "type": "uint256"
        }
      ],
      "name": "getTimestamp",
      "outputs": [
        {
          "internalType": "uint256",
          "name": "",
          "type": "uint256"
        }
      ],
      "stateMutability": "view",
      "type": "function"
    },
    {
      "inputs": [
        {
          "internalType": "uint32",
          "name": "",
          "type": "uint32"
        },
        {
          "internalType": "bytes32",
          "name": "",
          "type": "bytes32"
        },
        {
          "internalType": "bytes",
          "name": "_report",
          "type": "bytes"
        }
      ],
      "name": "handle",
      "outputs": [],
      "stateMutability": "nonpayable",
      "type": "function"
    },
    {
      "inputs": [
        {
          "internalType": "address",
          "name": "_mailbox",
          "type": "address"
        },
        {
          "internalType": "address",
          "name": "_interchainGasPaymaster",
          "type": "address"
        },
        {
          "internalType": "address",
          "name": "_interchainSecurityModule",
          "type": "address"
        },
        {
          "internalType": "address",
          "name": "_owner",
          "type": "address"
        }
      ],
      "name": "initialize",
      "outputs": [],
      "stateMutability": "nonpayable",
      "type": "function"
    },
    {
      "inputs": [],
      "name": "interchainGasPaymaster",
      "outputs": [
        {
          "internalType": "contract IInterchainGasPaymaster",
          "name": "",
          "type": "address"
        }
      ],
      "stateMutability": "view",
      "type": "function"
    },
    {
      "inputs": [],
      "name": "interchainSecurityModule",
      "outputs": [
        {
          "internalType": "contract IInterchainSecurityModule",
          "name": "",
          "type": "address"
        }
      ],
      "stateMutability": "view",
      "type": "function"
    },
    {
      "inputs": [],
      "name": "latestAnswer",
      "outputs": [
        {
          "internalType": "int256",
          "name": "",
          "type": "int256"
        }
      ],
      "stateMutability": "view",
      "type": "function"
    },
    {
      "inputs": [],
      "name": "latestConfigDetails",
      "outputs": [
        {
          "internalType": "uint32",
          "name": "configCount",
          "type": "uint32"
        },
        {
          "internalType": "uint32",
          "name": "blockNumber",
          "type": "uint32"
        },
        {
          "internalType": "bytes16",
          "name": "configDigest",
          "type": "bytes16"
        }
      ],
      "stateMutability": "view",
      "type": "function"
    },
    {
      "inputs": [],
      "name": "latestRound",
      "outputs": [
        {
          "internalType": "uint256",
          "name": "",
          "type": "uint256"
        }
      ],
      "stateMutability": "view",
      "type": "function"
    },
    {
      "inputs": [],
      "name": "latestRoundData",
      "outputs": [
        {
          "internalType": "uint80",
          "name": "roundId",
          "type": "uint80"
        },
        {
          "internalType": "int256",
          "name": "answer",
          "type": "int256"
        },
        {
          "internalType": "uint256",
          "name": "startedAt",
          "type": "uint256"
        },
        {
          "internalType": "uint256",
          "name": "updatedAt",
          "type": "uint256"
        },
        {
          "internalType": "uint80",
          "name": "answeredInRound",
          "type": "uint80"
        }
      ],
      "stateMutability": "view",
      "type": "function"
    },
    {
      "inputs": [],
      "name": "latestTimestamp",
      "outputs": [
        {
          "internalType": "uint256",
          "name": "",
          "type": "uint256"
        }
      ],
      "stateMutability": "view",
      "type": "function"
    },
    {
      "inputs": [],
      "name": "latestTransmissionDetails",
      "outputs": [
        {
          "internalType": "bytes16",
          "name": "configDigest",
          "type": "bytes16"
        },
        {
          "internalType": "uint32",
          "name": "epoch",
          "type": "uint32"
        },
        {
          "internalType": "uint8",
          "name": "round",
          "type": "uint8"
        },
        {
          "internalType": "int192",
          "name": "latestAnswer",
          "type": "int192"
        },
        {
          "internalType": "uint64",
          "name": "latestTimestamp",
          "type": "uint64"
        }
      ],
      "stateMutability": "view",
      "type": "function"
    },
    {
      "inputs": [],
      "name": "mailbox",
      "outputs": [
        {
          "internalType": "contract IMailbox",
          "name": "",
          "type": "address"
        }
      ],
      "stateMutability": "view",
      "type": "function"
    },
    {
      "inputs": [],
      "name": "maxAnswer",
      "outputs": [
        {
          "internalType": "int192",
          "name": "",
          "type": "int192"
        }
      ],
      "stateMutability": "view",
      "type": "function"
    },
    {
      "inputs": [],
      "name": "minAnswer",
      "outputs": [
        {
          "internalType": "int192",
          "name": "",
          "type": "int192"
        }
      ],
      "stateMutability": "view",
      "type": "function"
    },
    {
      "inputs": [],
      "name": "moduleType",
      "outputs": [
        {
          "internalType": "uint8",
          "name": "",
          "type": "uint8"
        }
      ],
      "stateMutability": "view",
      "type": "function"
    },
    {
      "inputs": [],
      "name": "offchainExtraData",
      "outputs": [
        {
          "internalType": "bytes",
          "name": "",
          "type": "bytes"
        }
      ],
      "stateMutability": "view",
      "type": "function"
    },
    {
      "inputs": [
        {
          "internalType": "uint256",
          "name": "",
          "type": "uint256"
        }
      ],
      "name": "offchainUrls",
      "outputs": [
        {
          "internalType": "string",
          "name": "",
          "type": "string"
        }
      ],
      "stateMutability": "view",
      "type": "function"
    },
    {
      "inputs": [],
      "name": "owner",
      "outputs": [
        {
          "internalType": "address",
          "name": "",
          "type": "address"
        }
      ],
      "stateMutability": "view",
      "type": "function"
    },
    {
      "inputs": [],
      "name": "renounceOwnership",
      "outputs": [],
      "stateMutability": "nonpayable",
      "type": "function"
    },
    {
      "inputs": [],
      "name": "s_hotVars",
      "outputs": [
        {
          "internalType": "bytes16",
          "name": "latestConfigDigest",
          "type": "bytes16"
        },
        {
          "internalType": "uint40",
          "name": "latestEpochAndRound",
          "type": "uint40"
        },
        {
          "internalType": "uint8",
          "name": "threshold",
          "type": "uint8"
        },
        {
          "internalType": "uint32",
          "name": "latestAggregatorRoundId",
          "type": "uint32"
        }
      ],
      "stateMutability": "view",
      "type": "function"
    },
    {
      "inputs": [
        {
          "internalType": "uint256",
          "name": "",
          "type": "uint256"
        }
      ],
      "name": "s_signers",
      "outputs": [
        {
          "internalType": "address",
          "name": "",
          "type": "address"
        }
      ],
      "stateMutability": "view",
      "type": "function"
    },
    {
      "inputs": [
        {
          "internalType": "address[]",
          "name": "_signers",
          "type": "address[]"
        },
        {
          "internalType": "address[]",
          "name": "_transmitters",
          "type": "address[]"
        },
        {
          "internalType": "uint8",
          "name": "_threshold",
          "type": "uint8"
        },
        {
          "internalType": "uint64",
          "name": "_encodedConfigVersion",
          "type": "uint64"
        },
        {
          "internalType": "bytes",
          "name": "_encoded",
          "type": "bytes"
        }
      ],
      "name": "setConfig",
      "outputs": [],
      "stateMutability": "nonpayable",
      "type": "function"
    },
    {
      "inputs": [
        {
          "internalType": "address",
          "name": "_interchainGasPaymaster",
          "type": "address"
        }
      ],
      "name": "setInterchainGasPaymaster",
      "outputs": [],
      "stateMutability": "nonpayable",
      "type": "function"
    },
    {
      "inputs": [
        {
          "internalType": "address",
          "name": "_module",
          "type": "address"
        }
      ],
      "name": "setInterchainSecurityModule",
      "outputs": [],
      "stateMutability": "nonpayable",
      "type": "function"
    },
    {
      "inputs": [
        {
          "internalType": "address",
          "name": "_mailbox",
          "type": "address"
        }
      ],
      "name": "setMailbox",
      "outputs": [],
      "stateMutability": "nonpayable",
      "type": "function"
    },
    {
      "inputs": [
        {
          "internalType": "string[]",
          "name": "urls",
          "type": "string[]"
        }
      ],
      "name": "setOffchainUrls",
      "outputs": [],
      "stateMutability": "nonpayable",
      "type": "function"
    },
    {
      "inputs": [
        {
          "internalType": "address",
          "name": "newOwner",
          "type": "address"
        }
      ],
      "name": "transferOwnership",
      "outputs": [],
      "stateMutability": "nonpayable",
      "type": "function"
    },
    {
      "inputs": [],
      "name": "transmitters",
      "outputs": [
        {
          "internalType": "address[]",
          "name": "",
          "type": "address[]"
        }
      ],
      "stateMutability": "view",
      "type": "function"
    },
    {
      "inputs": [],
      "name": "typeAndVersion",
      "outputs": [
        {
          "internalType": "string",
          "name": "",
          "type": "string"
        }
      ],
      "stateMutability": "pure",
      "type": "function"
    },
    {
      "inputs": [],
      "name": "validatorConfig",
      "outputs": [
        {
          "internalType": "contract AggregatorValidatorInterface",
          "name": "validator",
          "type": "address"
        },
        {
          "internalType": "uint32",
          "name": "gasLimit",
          "type": "uint32"
        }
      ],
      "stateMutability": "view",
      "type": "function"
    },
    {
      "inputs": [
        {
          "internalType": "bytes",
          "name": "_metadata",
          "type": "bytes"
        },
        {
          "internalType": "bytes",
          "name": "_message",
          "type": "bytes"
        }
      ],
      "name": "verify",
      "outputs": [
        {
          "internalType": "bool",
          "name": "",
          "type": "bool"
        }
      ],
      "stateMutability": "nonpayable",
      "type": "function"
    },
    {
      "inputs": [],
      "name": "version",
      "outputs": [
        {
          "internalType": "uint256",
          "name": "",
          "type": "uint256"
        }
      ],
      "stateMutability": "view",
      "type": "function"
    }
  ],
  "bytecode": "0x60e060405234620002fb57620039af803803806200001d8162000300565b92833981019061018081830312620002fb576200003a8162000326565b506020916200004b83830162000326565b506200005a6040830162000326565b50620000696060830162000326565b50620000786080830162000326565b5060a08201516001600160a01b03811603620002fb576200009c60c0830162000338565b91620000ab60e0820162000338565b93620000bb610100830162000347565b50620000cb610120830162000347565b5061014082015160ff81168103620002fb576101608301516001600160401b0393848211620002fb570193601f91818387011215620002fb578551858111620002d057601f1996620001238286018916870162000300565b93828552868383010111620002fb57859060005b838110620002e65750506000918401015260c0528051938411620002d057602e54926001938481811c91168015620002c5575b82821014620002af5783811162000263575b5080928511600114620001f8575083945090839291600094620001ec575b50501b916000199060031b1c191617602e555b60805260a05260405161365290816200035d823960805181818161041101526131ea015260a0518181816108d10152613413015260c051816104520152f35b0151925038806200019a565b929484908116602e60005284600020946000905b888383106200024857505050106200022e575b505050811b01602e55620001ad565b015160001960f88460031b161c191690553880806200021f565b8587015188559096019594850194879350908101906200020c565b602e600052816000208480880160051c820192848910620002a5575b0160051c019085905b828110620002985750506200017c565b6000815501859062000288565b925081926200027f565b634e487b7160e01b600052602260045260246000fd5b90607f16906200016a565b634e487b7160e01b600052604160045260246000fd5b81810183015186820184015287920162000137565b600080fd5b6040519190601f01601f191682016001600160401b03811183821017620002d057604052565b519063ffffffff82168203620002fb57565b51908160170b8203620002fb57565b51906001600160a01b0382168203620002fb5756fe60806040526004361015610013575b600080fd5b60003560e01c80630e72cc06146102f7578063181f5a77146102ee57806322adbc78146102e5578063313ce567146102dc578063319ca0c9146102d357806336629c7c146102ca57806339bb4ad9146102c157806350d25bcd146102b857806354fd4d50146102af57806356d5d475146102a6578063585aa7de1461029d5780636465e69f14610294578063668a0f021461028b57806370da2f6714610282578063715018a6146102795780637284e41614610270578063814118341461026757806381ff70481461025e5780638205bf6a146102555780638da5cb5b1461024c5780638e0566de1461024357806395c99b9b1461023a5780639a6fc8f5146102315780639dccc8e014610228578063b5ab58dc1461021f578063b633620c14610216578063bbac9bc81461020d578063d5438eae14610204578063de523cf3146101fb578063e5fe4577146101f2578063edcc66da146101e9578063f1bd6f0a146101e0578063f2fde38b146101d7578063f3c61d6b146101ce578063f7e83aee146101c5578063f8c8765e146101bc5763feaf968c146101b457600080fd5b61000e6116c6565b5061000e6115b3565b5061000e6114bf565b5061000e611442565b5061000e6113b0565b5061000e611333565b5061000e6112e8565b5061000e6111dd565b5061000e6111b3565b5061000e611189565b5061000e611091565b5061000e611078565b5061000e611057565b5061000e610f70565b5061000e610cf2565b5061000e610c9c565b5061000e610bac565b5061000e610b82565b5061000e610b49565b5061000e610b03565b5061000e610a3b565b5061000e61095c565b5061000e6108f7565b5061000e6108b8565b5061000e610890565b5061000e610873565b5061000e6107d7565b5061000e61073a565b5061000e6106f0565b5061000e6106b7565b5061000e61068d565b5061000e6105dc565b5061000e610476565b5061000e610437565b5061000e6103f8565b5061000e610395565b5061000e610311565b6001600160a01b0381160361000e57565b503461000e57602036600319011261000e5761033f60043561033281610300565b61033a611830565b6117a8565b005b919082519283825260005b84811061036d575050826000602080949584010152601f8019910116010190565b60208183018101518483018201520161034c565b906020610392928181520190610341565b90565b503461000e57600036600319011261000e576103f46040516103b6816104e2565b601881527f4f6666636861696e41676772656761746f7220342e302e3000000000000000006020820152604051918291602083526020830190610341565b0390f35b503461000e57600036600319011261000e5760206040517f000000000000000000000000000000000000000000000000000000000000000060170b8152f35b503461000e57600036600319011261000e57602060405160ff7f0000000000000000000000000000000000000000000000000000000000000000168152f35b503461000e57600036600319011261000e57608060295463ffffffff604051916001600160801b031981851b16835264ffffffffff81851c16602084015260ff8160a81c16604084015260b01c166060820152f35b50634e487b7160e01b600052604160045260246000fd5b604081019081106001600160401b038211176104fd57604052565b6105056104cb565b604052565b608081019081106001600160401b038211176104fd57604052565b90601f801991011681019081106001600160401b038211176104fd57604052565b60405190610553826104e2565b565b6020906001600160401b03811161056e575b60051b0190565b6105766104cb565b610567565b6020906001600160401b038111610598575b601f01601f19160190565b6105a06104cb565b61058d565b9291926105b18261057b565b916105bf6040519384610525565b82948184528183011161000e578281602093846000960137010152565b503461000e5760208060031936011261000e576001600160401b0360043581811161000e573660238201121561000e57806004013561061a81610555565b926106286040519485610525565b818452848401906024809360051b8501019336851161000e57838101925b8584106106565761033f87611b9e565b833583811161000e5782013660438201121561000e5788916106828392369060448a82013591016105a5565b815201930192610646565b503461000e57600036600319011261000e576097546040516001600160a01b039091168152602090f35b503461000e57600036600319011261000e5763ffffffff60295460b01c16600052602a602052602060406000205460170b604051908152f35b503461000e57600036600319011261000e57602060405160048152f35b9181601f8401121561000e578235916001600160401b03831161000e576020838186019501011161000e57565b503461000e57606036600319011261000e5760043563ffffffff81160361000e576044356001600160401b03811161000e5761077a90369060040161070d565b505061033f60018060a01b03609654163314611a44565b9181601f8401121561000e578235916001600160401b03831161000e576020808501948460051b01011161000e57565b606435906001600160401b038216820361000e57565b503461000e5760a036600319011261000e576001600160401b0360043581811161000e57610809903690600401610791565b9060243583811161000e57610822903690600401610791565b6044359060ff8216820361000e576108386107c1565b9260843596871161000e5761085461033f97369060040161070d565b969095611a7b565b50634e487b7160e01b600052602160045260246000fd5b503461000e57600036600319011261000e57602060405160078152f35b503461000e57600036600319011261000e57602063ffffffff60295460b01c16604051908152f35b503461000e57600036600319011261000e5760206040517f000000000000000000000000000000000000000000000000000000000000000060170b8152f35b503461000e5760008060031936011261095957610912611830565b606480546001600160a01b031981169091556040519082906001600160a01b03167f8be0079c531659141344cd1fd0a4f28419497f9722a3daafe3b4186f6b6457e08284a3f35b80fd5b503461000e57600080600319360112610959576040519080602e5461098081610dfc565b80855291600191808316908115610a1157506001146109b6575b6103f4856109aa81870382610525565b60405191829182610381565b9250602e83527f37fa166cbdbfbb1561ccd9ea985ec0218b5e68502e230525f544285b2bdf3d7e5b8284106109f95750505081016020016109aa826103f461099a565b805460208587018101919091529093019281016109de565b8695506103f4969350602092506109aa94915060ff191682840152151560051b820101929361099a565b503461000e576000806003193601126109595760405180916028549081835260208093018092602883527fe16da923a2d88192e5070f37b4571d58682c0d66212ec634d495f33de3f77ab590835b818110610ae65750505084610a9f910385610525565b60405193838594850191818652518092526040850193925b828110610ac657505050500390f35b83516001600160a01b031685528695509381019392810192600101610ab7565b82546001600160a01b031684529286019260019283019201610a89565b503461000e57600036600319011261000e576060602b5460295460801b6040519163ffffffff90818116845260201c1660208301526001600160801b0319166040820152f35b503461000e57600036600319011261000e5763ffffffff60295460b01c16600052602a602052602060406000205460c01c604051908152f35b503461000e57600036600319011261000e576064546040516001600160a01b039091168152602090f35b503461000e57600036600319011261000e576040610bc8612762565b63ffffffff602060018060a01b038351169201511682519182526020820152f35b602090600319011261000e5760043590565b50634e487b7160e01b600052603260045260246000fd5b602754811015610c4a575b60276000527f98a476f1687bc3d60a2da2adbcba2c46958e61fa2fb4042cd7bc5816a710195b0190600090565b610c52610bfb565b610c1d565b602854811015610c8f575b60286000527fe16da923a2d88192e5070f37b4571d58682c0d66212ec634d495f33de3f77ab50190600090565b610c97610bfb565b610c62565b503461000e57610cab36610be9565b60275481101561000e5760276000527f98a476f1687bc3d60a2da2adbcba2c46958e61fa2fb4042cd7bc5816a710195b01546040516001600160a01b039091168152602090f35b503461000e57602036600319011261000e5760043569ffffffffffffffffffff811680820361000e57604051610d27816104e2565b600f81526e139bc819185d18481c1c995cd95b9d608a1b602082015263ffffffff809211610ddc5750610d6f610d7491831663ffffffff16600052602a602052604060002090565b613605565b6103f46001600160401b03610d9e6020610d8f855160170b90565b9401516001600160401b031690565b6040805169ffffffffffffffffffff90961680875260179590950b6020870152911690840181905260608401526080830191909152819060a0820190565b60405162461bcd60e51b8152908190610df89060048301610381565b0390fd5b90600182811c92168015610e2c575b6020831014610e1657565b634e487b7160e01b600052602260045260246000fd5b91607f1691610e0b565b60305460009291610e4682610dfc565b80825291600190818116908115610ebd5750600114610e6457505050565b9192935060306000527f6ff97a59c90d62cc7236ba3a37cd85351bf564556780cf8c1157a220f31f0cbb916000925b848410610ea557505060209250010190565b80546020858501810191909152909301928101610e93565b915050602093945060ff929192191683830152151560051b010190565b9060009291805491610eeb83610dfc565b918282526001938481169081600014610f4d5750600114610f0d575b50505050565b90919394506000526020928360002092846000945b838610610f39575050505001019038808080610f07565b805485870183015294019385908201610f22565b9294505050602093945060ff191683830152151560051b01019038808080610f07565b503461000e57600080600319360112610959576040519080603054610f9481610dfc565b8085529160019180831690811561102d5750600114610fd2575b6103f485610fbe81870382610525565b604051918291602083526020830190610341565b9250603083527f6ff97a59c90d62cc7236ba3a37cd85351bf564556780cf8c1157a220f31f0cbb5b828410611015575050508101602001610fbe826103f4610fae565b80546020858701810191909152909301928101610ffa565b8695506103f496935060209250610fbe94915060ff191682840152151560051b8201019293610fae565b503461000e57602061107061106b36610be9565b6135ba565b604051908152f35b503461000e57602061107061108c36610be9565b6135e3565b503461000e576020600319818136011261000e576004356001600160401b03811161000e576110c58391369060040161070d565b929091604051938493630556f18360e41b855260a4850130600487015260a06024870152602f5480915260c486019060c48160051b88010194602f600052600080516020613626833981519152926000905b838210611155578980610df88b6111398c8c8c8487840301604488015261180f565b6307c39d1360e41b606485015290838203016084840152610e36565b91600161117481939597989983979b9c60c3199082030186528b610eda565b99019201920189989796959492939193611117565b503461000e57600036600319011261000e576096546040516001600160a01b039091168152602090f35b503461000e57600036600319011261000e576098546040516001600160a01b039091168152602090f35b503461000e57600036600319011261000e573233036112ac5760295463ffffffff906103f4828260b01c1661125061124961123261122b8463ffffffff16600052602a602052604060002090565b5460170b90565b9263ffffffff16600052602a602052604060002090565b5460c01c90565b90604051948460ff879660801c16918160881c169060801b869360ff60809463ffffffff6001600160401b03959998949960a089019a6001600160801b031916895216602088015216604086015260170b606085015216910152565b60405162461bcd60e51b81526020600482015260146024820152734f6e6c792063616c6c61626c6520627920454f4160601b6044820152606490fd5b503461000e576112f736610be9565b602f5481101561000e5761132c610fbe6103f492602f6000526040519283809260008051602061362683398151915201610eda565b0382610525565b503461000e57602036600319011261000e57600060043561135381610300565b61135b611830565b611367813b1515611770565b609780546001600160a01b0319166001600160a01b03929092169182179055604051907fb87f5a0bface22cde699143559fb99f990ae54eea236995fc54178af91af859f8383a2f35b503461000e57602036600319011261000e576004356113ce81610300565b6113d6611830565b6001600160a01b038116156113ee5761033f90611888565b60405162461bcd60e51b815260206004820152602660248201527f4f776e61626c653a206e6577206f776e657220697320746865207a65726f206160448201526564647265737360d01b6064820152608490fd5b503461000e57602036600319011261000e57600060043561146281610300565b61146a611830565b611476813b1515611770565b609680546001600160a01b0319166001600160a01b03929092169182179055604051907f7a61e573722ff8b205c8962b59d37e7d30573f368965597a844a94872204ebd78383a2f35b503461000e5760031960403682011261000e5760046001600160401b03813581811161000e576114f2903690840161070d565b60249291923582811161000e5761150c903690860161070d565b505061152360018060a01b03609654163314611a44565b80841161000e57608090830194838603011261000e578282013581811161000e5782018460238201121561000e57848160248661156394013591016105a5565b92602483013582811161000e57858261157e92860101611b40565b91604484013590811161000e576115a79560649261159e92860101611b40565b92013592612e03565b60405160018152602090f35b503461000e57608036600319011261000e576004356115d181610300565b61163a6024356115e081610300565b6044356115ec81610300565b606435916115f983610300565b6031549461161e60ff8760081c1615809781986116b8575b8115611698575b506118d3565b85611631600160ff196031541617603155565b61167f57611936565b61164057005b61165061ff001960315416603155565b604051600181527f7f26b83ff96e1f2b6a682f133852f6798a09c465da95921460cefb384740249890602090a1005b61169361010061ff00196031541617603155565b611936565b303b159150816116aa575b5038611618565b6001915060ff1614386116a3565b600160ff8216109150611611565b503461000e57600036600319011261000e57602063ffffffff60295460b01c1680600052602a82526103f460406000209160405192604084018481106001600160401b03821117611763575b60405254928360170b9384825260c01c948591015283604051948594838693608093969591929660a086019769ffffffffffffffffffff809516875260208701526040860152606085015216910152565b61176b6104cb565b611712565b1561177757565b60405162461bcd60e51b81526020600482015260096024820152680858dbdb9d1c9858dd60ba1b6044820152606490fd5b6001600160a01b038116906117c7908215908115611804575b50611770565b806001600160601b0360a01b60985416176098557ffec811ed4e60aebdaf7a79cad8a97196bf56e35362f039705598226d30c9d2486000604051a2565b90503b1515386117c1565b908060209392818452848401376000828201840152601f01601f1916010190565b6064546001600160a01b0316330361184457565b606460405162461bcd60e51b815260206004820152602060248201527f4f776e61626c653a2063616c6c6572206973206e6f7420746865206f776e65726044820152fd5b6064549060018060a01b0380911691826001600160601b0360a01b821617606455167f8be0079c531659141344cd1fd0a4f28419497f9722a3daafe3b4186f6b6457e06000604051a3565b156118da57565b60405162461bcd60e51b815260206004820152602e60248201527f496e697469616c697a61626c653a20636f6e747261637420697320616c72656160448201526d191e481a5b9a5d1a585b1a5e995960921b6064820152608490fd5b90929160ff60315460081c16156119eb57610553938261195b6119e6943b1515611770565b60018060a01b03809116916001600160601b0360a01b92808460965416176096557f7a61e573722ff8b205c8962b59d37e7d30573f368965597a844a94872204ebd76000604051a26119af813b1515611770565b16809160975416176097557fb87f5a0bface22cde699143559fb99f990ae54eea236995fc54178af91af859f6000604051a26117a8565b611888565b60405162461bcd60e51b815260206004820152602b60248201527f496e697469616c697a61626c653a20636f6e7472616374206973206e6f74206960448201526a6e697469616c697a696e6760a81b6064820152608490fd5b15611a4b57565b60405162461bcd60e51b8152602060048201526008602482015267042dac2d2d8c4def60c31b6044820152606490fd5b96959493929190611a8a611830565b60ff841697601f8211611b08578815611ac357611abe611ab76105539a611ab2878614611f00565b611d28565b8311611f58565b612386565b60405162461bcd60e51b815260206004820152601a60248201527f7468726573686f6c64206d75737420626520706f7369746976650000000000006044820152606490fd5b60405162461bcd60e51b815260206004820152601060248201526f746f6f206d616e79207369676e65727360801b6044820152606490fd5b81601f8201121561000e57803591611b5783610555565b92611b656040519485610525565b808452602092838086019260051b82010192831161000e578301905b828210611b8f575050505090565b81358152908301908301611b81565b611ba6611830565b805115611ce2578051600160401b8111611cd5575b602f5481602f55808210611c45575b50602f600090815260206000805160206136268339815191528482015b848410611c29575050505050611c247f50c4074810e6a20c38568714fd174c033a66b9c19a8263aa39766b4ad51f102c9160405191829182611e9e565b0390a1565b60018382611c3983945186611dc2565b01920193019290611be7565b6000602f81528260008051602061362683398151915292830192015b828110611c6f575050611bca565b80611c7c60019254610dfc565b80611c89575b5001611c61565b601f908181118414611ca15750508281555b38611c82565b83611cc392611cb585600052602060002090565b920160051c82019101611d66565b60008181526020812081835555611c9b565b611cdd6104cb565b611bbb565b60405162461bcd60e51b8152602060048201526007602482015266042d8cadccee8d60cb1b6044820152606490fd5b50634e487b7160e01b600052601160045260246000fd5b7f55555555555555555555555555555555555555555555555555555555555555558111600116611d59575b60030290565b611d61611d11565b611d53565b818110611d71575050565b60008155600101611d66565b9190601f8111611d8c57505050565b610553926000526020600020906020601f840160051c83019310611db8575b601f0160051c0190611d66565b9091508190611dab565b91909182516001600160401b038111611e91575b611dea81611de48454610dfc565b84611d7d565b602080601f8311600114611e26575081929394600092611e1b575b50508160011b916000199060031b1c1916179055565b015190503880611e05565b90601f19831695611e3c85600052602060002090565b926000905b888210611e7957505083600195969710611e60575b505050811b019055565b015160001960f88460031b161c19169055388080611e56565b80600185968294968601518155019501930190611e41565b611e996104cb565b611dd6565b602080820190808352835180925260408301928160408460051b8301019501936000915b848310611ed25750505050505090565b9091929394958480611ef0600193603f198682030187528a51610341565b9801930193019194939290611ec2565b15611f0757565b60405162461bcd60e51b8152602060048201526024808201527f6f7261636c6520616464726573736573206f7574206f662072656769737472616044820152633a34b7b760e11b6064820152608490fd5b15611f5f57565b606460405162461bcd60e51b815260206004820152602060248201527f6661756c74792d6f7261636c65207468726573686f6c6420746f6f20686967686044820152fd5b600019810191908211611fb257565b610553611d11565b602754801561201b577f98a476f1687bc3d60a2da2adbcba2c46958e61fa2fb4042cd7bc5816a710195a6000198201918083101561200e575b6027600052016001600160601b0360a01b8154169055602755565b612016610bfb565b611ff3565b634e487b7160e01b600052603160045260246000fd5b602854801561201b577fe16da923a2d88192e5070f37b4571d58682c0d66212ec634d495f33de3f77ab460001982019180831015612085575b6028600052016001600160601b0360a01b8154169055602855565b61208d610bfb565b61206a565b60019060001981146120a2570190565b6120aa611d11565b0190565b91908110156120be5760051b0190565b610576610bfb565b3561039281610300565b600311156120da57565b61055361085c565b156120e957565b60405162461bcd60e51b815260206004820152601760248201527f7265706561746564207369676e657220616464726573730000000000000000006044820152606490fd5b9060ff81511661ff0060208454938360ff19861617865501516003811015612161575b60081b169161ffff191617179055565b61216961085c565b612151565b1561217557565b60405162461bcd60e51b815260206004820152601c60248201527f7265706561746564207472616e736d69747465722061646472657373000000006044820152606490fd5b61055390602754600160401b811015612231575b6001810180602755811015612224575b60276000527f98a476f1687bc3d60a2da2adbcba2c46958e61fa2fb4042cd7bc5816a710195b0180546001600160a01b0319166001600160a01b03909216919091179055565b61222c610bfb565b6121de565b6122396104cb565b6121ce565b61055390602854600160401b8110156122b5575b60018101806028558110156122a8575b60286000527fe16da923a2d88192e5070f37b4571d58682c0d66212ec634d495f33de3f77ab50180546001600160a01b0319166001600160a01b03909216919091179055565b6122b0610bfb565b612262565b6122bd6104cb565b612252565b90600163ffffffff80931601918211611fb257565b91908082526020809201929160005b8281106122f4575050505090565b909192938280600192873561230881610300565b848060a01b031681520195019101929190926122e6565b9561235e60ff946103929c9a966001600160401b03989461236c969d9b9d63ffffffff8092168c521660208b015260e060408b015260e08a01916122d7565b9187830360608901526122d7565b961660808401521660a082015260c081850391015261180f565b9490939795919692975b6027548015612426576124106123a86123f592611fa3565b6123d56123ba6123cf6123ba84610c12565b905460039190911b1c6001600160a01b031690565b92610c57565b6001600160a01b0390911660009081526026602052604081209093849190565b556001600160a01b0316600090815260266020526040902090565b55612419611fba565b612421612031565b612390565b50909192939495969760005b86811061254357506029805460ff60a81b191660a884901b60ff60a81b1617905596979596949586959088868686868686602b546124779063ffffffff9060201c1690565b602b805467ffffffff0000000019164360201b67ffffffff00000000161790559d602b5463ffffffff166124aa906122c2565b6124c49063ffffffff1663ffffffff19602b541617602b55565b602b546124d8989063ffffffff16306126b8565b6124f29060801c6001600160801b03196029541617602955565b6029805464ffffffffff60801b19169055602b5463ffffffff1697604051998a9961251d998b61231f565b037f25d719d88a4512dd76c7442b910a83360845505894eb444ef299409e180f8fb991a1565b61254e81888a6120ae565b612557906120c6565b6001600160a01b031660009081526026602052604090205460081c60ff1661257e816120d0565b15612588906120e2565b60ff8116878b8385612598610546565b60ff861681528d836020968784016125b09060019052565b6125b9926120ae565b6125c2906120c6565b6001600160a01b03166000908152602660205260409020906125e39161212e565b6125ec926120ae565b6125f5906120c6565b6001600160a01b031660009081526026602052604090205460081c60ff1661261c816120d0565b156126269061216e565b61262e610546565b60ff909216825260029082015261264682848d6120ae565b61264f906120c6565b6001600160a01b03166000908152602660205260409020906126709161212e565b61267b81888a6120ae565b612684906120c6565b61268d906121ba565b61269881838c6120ae565b6126a1906120c6565b6126aa9061223e565b6126b390612092565b612432565b98929593979496909197604051988997602089019b600160a01b60019003168c526001600160401b0380951660408a01526060890160e09052610100890190612700926122d7565b601f1998898983030160808a0152612717926122d7565b9360ff1660a08701521660c0850152848483030160e08501526127399261180f565b0390810182526127499082610525565b5190206fffffffffffffffffffffffffffffffff191690565b6040519061276f826104e2565b602c546001600160a01b038116835260a01c63ffffffff166020830152565b604051906000608060a08401938085106001600160401b038611176127ed575b8460405280946127bd8161050a565b8381528360c08301528360e083015283610100830152815260606020820152606060408201526060808201520152565b6127f56104cb565b6127ae565b604051906128078261050a565b81606063ffffffff6029546001600160801b03198160801b16845264ffffffffff8160801c16602085015260ff8160a81c16604085015260b01c16910152565b909160608284031261000e57815192602080840151936040810151906001600160401b03821161000e57019180601f8401121561000e57825161288981610555565b936128976040519586610525565b818552838086019260051b82010192831161000e578301905b8282106128be575050505090565b81518060170b810361000e5781529083019083016128b0565b156128de57565b60405162461bcd60e51b815260206004820152600c60248201526b1cdd185b19481c995c1bdc9d60a21b6044820152606490fd5b1561291957565b60405162461bcd60e51b81526020600482015260156024820152746e6f7420656e6f756768207369676e61747572657360581b6044820152606490fd5b1561295d57565b60405162461bcd60e51b8152602060048201526013602482015272746f6f206d616e79207369676e61747572657360681b6044820152606490fd5b1561299f57565b60405162461bcd60e51b815260206004820152601e60248201527f7369676e617475726573206f7574206f6620726567697374726174696f6e00006044820152606490fd5b156129eb57565b60405162461bcd60e51b815260206004820152601e60248201527f6e756d206f62736572766174696f6e73206f7574206f6620626f756e647300006044820152606490fd5b6101fe90607f60ff821611600116612a4a575b60011b1690565b612a52611d11565b612a43565b15612a5e57565b60405162461bcd60e51b815260206004820152601e60248201527f746f6f206665772076616c75657320746f207472757374206d656469616e00006044820152606490fd5b90612aad8261057b565b612aba6040519182610525565b8281528092612acb601f199161057b565b0190602036910137565b60ff6001911660ff81146120a2570190565b906020918051821015612af957010190565b612b01610bfb565b010190565b604051906103e08083018381106001600160401b03821117612b2b575b604052368337565b612b336104cb565b612b23565b90601f8110156120be5760051b0190565b15612b5057565b60405162461bcd60e51b815260206004820152601760248201527f6f6273657276657220696e6465782072657065617465640000000000000000006044820152606490fd5b60405190612ba2826104e2565b60006020838281520152565b60ff601b9116019060ff8211611fb257565b6020918151811015612bd5575b60051b010190565b612bdd610bfb565b612bcd565b506040513d6000823e3d90fd5b90604051612bfc816104e2565b602060ff829454818116845260081c16916003831015612c1a570152565b612c2261085c565b0152565b15612c2d57565b60405162461bcd60e51b815260206004820152601e60248201527f61646472657373206e6f7420617574686f72697a656420746f207369676e00006044820152606490fd5b15612c7957565b60405162461bcd60e51b81526020600482015260146024820152736e6f6e2d756e69717565207369676e617475726560601b6044820152606490fd5b9060018201809211611fb257565b15612cca57565b60405162461bcd60e51b815260206004820152601760248201527f6f62736572766174696f6e73206e6f7420736f727465640000000000000000006044820152606490fd5b15612d1657565b60405162461bcd60e51b815260206004820152601e60248201527f6d656469616e206973206f7574206f66206d696e2d6d61782072616e676500006044820152606490fd5b60019063ffffffff8091169081146120a2570190565b9594939160a0870190601792830b885260209060018060a01b03168189015260a0604089015284518092528060c089019501926000905b838210612dcd57505050505081612dc89186608094036060880152610341565b930152565b8451810b87529582019593820193600190910190612da8565b15612ded57565b634e487b7160e01b600052600160045260246000fd5b939192905a92612e1161278e565b93612e1a6127fa565b8552612e2f6020885189010160208901612847565b604088959395949294015283608088015264ffffffffff94612e6986861687612e6260208c510164ffffffffff90511690565b16106128d7565b612e8d8151612e87612e8160408c510160ff90511690565b60ff1690565b10612912565b612e9b601f82511115612956565b612ea88951825114612998565b612eba601f60408a01515111156129e4565b612ee4604089015151612ede612e81612ed960408d510160ff90511690565b612a30565b10612a57565b612eee8151612aa3565b606089015260005b815160ff821690811015612f3c5790816020612f2a931015612f2f575b612f248a821a9160608d0151612ae7565b53612ad5565b612ef6565b612f37610bfb565b612f13565b50509295509296909397612f54604088015151612aa3565b6020880152612f61612b06565b9860005b60408901515160ff82161015612fe55780602060ff612fd393161015612fd8575b8b612fc2612fbc8b60ff85161a83612fb7612fb2612fae612fa8858099612b38565b51151590565b1590565b612b49565b612b38565b60019052565b612f2460ff831660208d0151612ae7565b612f65565b612fe0610bfb565b612f86565b509194985092966130049295501660208651019064ffffffffff169052565b6020815191012092613014612b06565b9561301d612b95565b5060005b84518110156131505780613139612fbc613133612e818a61312c6131278f612fa8612fae918f8f8f60209261313e9f9261309b846130948161308e61308961308361307560009b60606130bd9c0151612ae7565b516001600160f81b03191690565b60f81c90565b612bae565b95612bc0565b5192612bc0565b51604080519c8d5260ff90931660208d0152918b015260608a01526080890190565b97818052806001990390895afa15613143575b600080516001600160a01b03168152602660205260409020613113906130f590612bef565b966020880151613104816120d0565b61310d816120d0565b14612c26565b613121612e81875160ff1690565b90612b38565b612c72565b5160ff1690565b8b612b38565b612092565b613021565b61314b612be2565b6130d0565b5095509250505060005b613168604083015151611fa3565b8110156131c1578061313961318e6131876131bc946040870151612bc0565b5160170b90565b6131b16131ab61318760408801516131a587612cb5565b90612bc0565b60170b90565b9060170b1315612cc3565b61315a565b506105539161340a6131df61318760408501516131a5815160011c90565b926133b58460170b807f000000000000000000000000000000000000000000000000000000000000000060170b131580613410575b61321d90612d0f565b613245606084510161323b613236825163ffffffff1690565b612d5b565b63ffffffff169052565b6132b4613250610546565b601788900b8152426001600160401b0316602082015284516060015161328c9063ffffffff1663ffffffff16600052602a602052604060002090565b815160209092015160c01b6001600160c01b0319166001600160c01b03909216919091179055565b82516060015163ffffffff16957ff6a97944f31ea060dfde0566e4167c1a1082551e64b60ecb14d599a9d023d451604085015160208601519061330c608088015160405193849363ffffffff809e1697339086612d71565b0390a2600086613325606086510163ffffffff90511690565b167f0109fc6f55cf40689f02fbaad7af7fe7bbac8a3d2186600afc7d3e10cac602716040518061335a42829190602083019252565b0390a3825160600151869063ffffffff1616817f0559884fd3a460db3073b7fc896cc77986f16e378210ded43186175bf646fc5f604051806133a142829190602083019252565b0390a382516060015163ffffffff1661347c565b5180519060295460208201519060ff60a81b604084015160a81b1692606063ffffffff60b01b91015160b01b169360801c9065ffffffffffff60d01b16179064ffffffffff60801b9060801b16171717602955565b10612de6565b507f000000000000000000000000000000000000000000000000000000000000000060170b811315613214565b1561344457565b60405162461bcd60e51b815260206004820152601060248201526f696e73756666696369656e742067617360801b6044820152606490fd5b613484612762565b80516001600160a01b03161561356657610553926135549261354e9263ffffffff938480931693613540600019860191858311613559575b6134d961122b8463ffffffff16600052602a602052604060002090565b9661350b6134ff6134f1602089015163ffffffff1690565b97516001600160a01b031690565b6001600160a01b031690565b97604051998a9563beed9b5160e01b602088015216602486019094939260609260808301968352602083015260408201520152565b03601f198101865285610525565b1661356b565b61343d565b613561611d11565b6134bc565b505050565b60009392915a6113888110156135815750505050565b6113871980820160061c90910301821061359c575b80610f07565b6000809495508392916020829551940192f150600190388080613596565b63ffffffff908181116135dc5716600052602a60205260406000205460170b90565b5050600090565b63ffffffff908181116135dc5716600052602a60205260406000205460c01c90565b90604051613612816104e2565b60208193548060170b835260c01c91015256fea813484aef6fb598f9f753daf162068ff39ccea4075cb95e1a30f86995b5b7eea164736f6c6343000810000a",
  "linkReferences": {},
  "deployedLinkReferences": {}
}