{
  "_format": "hh-sol-artifact-1",
  "contractName": "ChainlinkAggregator",
  "sourceName": "contracts/ChainlinkAggregator.sol",
  "abi": [
    {
      "inputs": [
        {
          "internalType": "uint32",
          "name": "_maximumGasPrice",
          "type": "uint32"
        },
        {
          "internalType": "uint32",
          "name": "_reasonableGasPrice",
          "type": "uint32"
        },
        {
          "internalType": "uint32",
          "name": "_microLinkPerEth",
          "type": "uint32"
        },
        {
          "internalType": "uint32",
          "name": "_linkGweiPerObservation",
          "type": "uint32"
        },
        {
          "internalType": "uint32",
          "name": "_linkGweiPerTransmission",
          "type": "uint32"
        },
        {
          "internalType": "contract LinkTokenInterface",
          "name": "_link",
          "type": "address"
        },
        {
          "internalType": "int192",
          "name": "_minAnswer",
          "type": "int192"
        },
        {
          "internalType": "int192",
          "name": "_maxAnswer",
          "type": "int192"
        },
        {
          "internalType": "contract AccessControllerInterface",
          "name": "_billingAccessController",
          "type": "address"
        },
        {
          "internalType": "contract AccessControllerInterface",
          "name": "_requesterAccessController",
          "type": "address"
        },
        {
          "internalType": "uint8",
          "name": "_decimals",
          "type": "uint8"
        },
        {
          "internalType": "string",
          "name": "_description",
          "type": "string"
        },
        {
          "internalType": "contract IMailbox",
          "name": "_mailbox",
          "type": "address"
        }
      ],
      "stateMutability": "nonpayable",
      "type": "constructor"
    },
    {
      "inputs": [
        {
          "internalType": "address",
          "name": "sender",
          "type": "address"
        },
        {
          "internalType": "string[]",
          "name": "urls",
          "type": "string[]"
        },
        {
          "internalType": "bytes",
          "name": "callData",
          "type": "bytes"
        },
        {
          "internalType": "bytes4",
          "name": "callbackFunction",
          "type": "bytes4"
        },
        {
          "internalType": "bytes",
          "name": "extraData",
          "type": "bytes"
        }
      ],
      "name": "OffchainLookup",
      "type": "error"
    },
    {
      "anonymous": false,
      "inputs": [
        {
          "indexed": true,
          "internalType": "int256",
          "name": "current",
          "type": "int256"
        },
        {
          "indexed": true,
          "internalType": "uint256",
          "name": "roundId",
          "type": "uint256"
        },
        {
          "indexed": false,
          "internalType": "uint256",
          "name": "updatedAt",
          "type": "uint256"
        }
      ],
      "name": "AnswerUpdated",
      "type": "event"
    },
    {
      "anonymous": false,
      "inputs": [
        {
          "indexed": false,
          "internalType": "uint32",
          "name": "previousConfigBlockNumber",
          "type": "uint32"
        },
        {
          "indexed": false,
          "internalType": "uint64",
          "name": "configCount",
          "type": "uint64"
        },
        {
          "indexed": false,
          "internalType": "address[]",
          "name": "signers",
          "type": "address[]"
        },
        {
          "indexed": false,
          "internalType": "address[]",
          "name": "transmitters",
          "type": "address[]"
        },
        {
          "indexed": false,
          "internalType": "uint8",
          "name": "threshold",
          "type": "uint8"
        },
        {
          "indexed": false,
          "internalType": "uint64",
          "name": "encodedConfigVersion",
          "type": "uint64"
        },
        {
          "indexed": false,
          "internalType": "bytes",
          "name": "encoded",
          "type": "bytes"
        }
      ],
      "name": "ConfigSet",
      "type": "event"
    },
    {
      "anonymous": false,
      "inputs": [
        {
          "indexed": true,
          "internalType": "uint256",
          "name": "roundId",
          "type": "uint256"
        },
        {
          "indexed": true,
          "internalType": "address",
          "name": "startedBy",
          "type": "address"
        },
        {
          "indexed": false,
          "internalType": "uint256",
          "name": "startedAt",
          "type": "uint256"
        }
      ],
      "name": "NewRound",
      "type": "event"
    },
    {
      "anonymous": false,
      "inputs": [
        {
          "indexed": true,
          "internalType": "uint32",
          "name": "aggregatorRoundId",
          "type": "uint32"
        },
        {
          "indexed": false,
          "internalType": "int192",
          "name": "answer",
          "type": "int192"
        },
        {
          "indexed": false,
          "internalType": "address",
          "name": "transmitter",
          "type": "address"
        },
        {
          "indexed": false,
          "internalType": "int192[]",
          "name": "observations",
          "type": "int192[]"
        },
        {
          "indexed": false,
          "internalType": "bytes",
          "name": "observers",
          "type": "bytes"
        },
        {
          "indexed": false,
          "internalType": "bytes32",
          "name": "rawReportContext",
          "type": "bytes32"
        }
      ],
      "name": "NewTransmission",
      "type": "event"
    },
    {
      "anonymous": false,
      "inputs": [
        {
          "indexed": true,
          "internalType": "address",
          "name": "from",
          "type": "address"
        },
        {
          "indexed": true,
          "internalType": "address",
          "name": "to",
          "type": "address"
        }
      ],
      "name": "OwnershipTransferRequested",
      "type": "event"
    },
    {
      "anonymous": false,
      "inputs": [
        {
          "indexed": true,
          "internalType": "address",
          "name": "from",
          "type": "address"
        },
        {
          "indexed": true,
          "internalType": "address",
          "name": "to",
          "type": "address"
        }
      ],
      "name": "OwnershipTransferred",
      "type": "event"
    },
    {
      "anonymous": false,
      "inputs": [
        {
          "indexed": true,
          "internalType": "contract AggregatorValidatorInterface",
          "name": "previousValidator",
          "type": "address"
        },
        {
          "indexed": false,
          "internalType": "uint32",
          "name": "previousGasLimit",
          "type": "uint32"
        },
        {
          "indexed": true,
          "internalType": "contract AggregatorValidatorInterface",
          "name": "currentValidator",
          "type": "address"
        },
        {
          "indexed": false,
          "internalType": "uint32",
          "name": "currentGasLimit",
          "type": "uint32"
        }
      ],
      "name": "ValidatorConfigSet",
      "type": "event"
    },
    {
      "inputs": [],
      "name": "acceptOwnership",
      "outputs": [],
      "stateMutability": "nonpayable",
      "type": "function"
    },
    {
      "inputs": [],
      "name": "decimals",
      "outputs": [
        {
          "internalType": "uint8",
          "name": "",
          "type": "uint8"
        }
      ],
      "stateMutability": "view",
      "type": "function"
    },
    {
      "inputs": [],
      "name": "description",
      "outputs": [
        {
          "internalType": "string",
          "name": "",
          "type": "string"
        }
      ],
      "stateMutability": "view",
      "type": "function"
    },
    {
      "inputs": [
        {
          "internalType": "uint256",
          "name": "_roundId",
          "type": "uint256"
        }
      ],
      "name": "getAnswer",
      "outputs": [
        {
          "internalType": "int256",
          "name": "",
          "type": "int256"
        }
      ],
      "stateMutability": "view",
      "type": "function"
    },
    {
      "inputs": [
        {
          "internalType": "bytes",
          "name": "_message",
          "type": "bytes"
        }
      ],
      "name": "getOffchainVerifyInfo",
      "outputs": [
        {
          "internalType": "bool",
          "name": "",
          "type": "bool"
        }
      ],
      "stateMutability": "view",
      "type": "function"
    },
    {
      "inputs": [
        {
          "internalType": "uint80",
          "name": "_roundId",
          "type": "uint80"
        }
      ],
      "name": "getRoundData",
      "outputs": [
        {
          "internalType": "uint80",
          "name": "roundId",
          "type": "uint80"
        },
        {
          "internalType": "int256",
          "name": "answer",
          "type": "int256"
        },
        {
          "internalType": "uint256",
          "name": "startedAt",
          "type": "uint256"
        },
        {
          "internalType": "uint256",
          "name": "updatedAt",
          "type": "uint256"
        },
        {
          "internalType": "uint80",
          "name": "answeredInRound",
          "type": "uint80"
        }
      ],
      "stateMutability": "view",
      "type": "function"
    },
    {
      "inputs": [
        {
          "internalType": "uint256",
          "name": "_roundId",
          "type": "uint256"
        }
      ],
      "name": "getTimestamp",
      "outputs": [
        {
          "internalType": "uint256",
          "name": "",
          "type": "uint256"
        }
      ],
      "stateMutability": "view",
      "type": "function"
    },
    {
      "inputs": [
        {
          "internalType": "uint32",
          "name": "",
          "type": "uint32"
        },
        {
          "internalType": "bytes32",
          "name": "",
          "type": "bytes32"
        },
        {
          "internalType": "bytes",
          "name": "_report",
          "type": "bytes"
        }
      ],
      "name": "handle",
      "outputs": [],
      "stateMutability": "nonpayable",
      "type": "function"
    },
    {
      "inputs": [],
      "name": "interchainSecurityModule",
      "outputs": [
        {
          "internalType": "contract IInterchainSecurityModule",
          "name": "",
          "type": "address"
        }
      ],
      "stateMutability": "view",
      "type": "function"
    },
    {
      "inputs": [],
      "name": "latestAnswer",
      "outputs": [
        {
          "internalType": "int256",
          "name": "",
          "type": "int256"
        }
      ],
      "stateMutability": "view",
      "type": "function"
    },
    {
      "inputs": [],
      "name": "latestConfigDetails",
      "outputs": [
        {
          "internalType": "uint32",
          "name": "configCount",
          "type": "uint32"
        },
        {
          "internalType": "uint32",
          "name": "blockNumber",
          "type": "uint32"
        },
        {
          "internalType": "bytes16",
          "name": "configDigest",
          "type": "bytes16"
        }
      ],
      "stateMutability": "view",
      "type": "function"
    },
    {
      "inputs": [],
      "name": "latestRound",
      "outputs": [
        {
          "internalType": "uint256",
          "name": "",
          "type": "uint256"
        }
      ],
      "stateMutability": "view",
      "type": "function"
    },
    {
      "inputs": [],
      "name": "latestRoundData",
      "outputs": [
        {
          "internalType": "uint80",
          "name": "roundId",
          "type": "uint80"
        },
        {
          "internalType": "int256",
          "name": "answer",
          "type": "int256"
        },
        {
          "internalType": "uint256",
          "name": "startedAt",
          "type": "uint256"
        },
        {
          "internalType": "uint256",
          "name": "updatedAt",
          "type": "uint256"
        },
        {
          "internalType": "uint80",
          "name": "answeredInRound",
          "type": "uint80"
        }
      ],
      "stateMutability": "view",
      "type": "function"
    },
    {
      "inputs": [],
      "name": "latestTimestamp",
      "outputs": [
        {
          "internalType": "uint256",
          "name": "",
          "type": "uint256"
        }
      ],
      "stateMutability": "view",
      "type": "function"
    },
    {
      "inputs": [],
      "name": "latestTransmissionDetails",
      "outputs": [
        {
          "internalType": "bytes16",
          "name": "configDigest",
          "type": "bytes16"
        },
        {
          "internalType": "uint32",
          "name": "epoch",
          "type": "uint32"
        },
        {
          "internalType": "uint8",
          "name": "round",
          "type": "uint8"
        },
        {
          "internalType": "int192",
          "name": "latestAnswer",
          "type": "int192"
        },
        {
          "internalType": "uint64",
          "name": "latestTimestamp",
          "type": "uint64"
        }
      ],
      "stateMutability": "view",
      "type": "function"
    },
    {
      "inputs": [],
      "name": "maxAnswer",
      "outputs": [
        {
          "internalType": "int192",
          "name": "",
          "type": "int192"
        }
      ],
      "stateMutability": "view",
      "type": "function"
    },
    {
      "inputs": [],
      "name": "minAnswer",
      "outputs": [
        {
          "internalType": "int192",
          "name": "",
          "type": "int192"
        }
      ],
      "stateMutability": "view",
      "type": "function"
    },
    {
      "inputs": [],
      "name": "moduleType",
      "outputs": [
        {
          "internalType": "uint8",
          "name": "",
          "type": "uint8"
        }
      ],
      "stateMutability": "view",
      "type": "function"
    },
    {
      "inputs": [
        {
          "internalType": "uint256",
          "name": "",
          "type": "uint256"
        }
      ],
      "name": "offchainUrls",
      "outputs": [
        {
          "internalType": "string",
          "name": "",
          "type": "string"
        }
      ],
      "stateMutability": "view",
      "type": "function"
    },
    {
      "inputs": [],
      "name": "owner",
      "outputs": [
        {
          "internalType": "address payable",
          "name": "",
          "type": "address"
        }
      ],
      "stateMutability": "view",
      "type": "function"
    },
    {
      "inputs": [
        {
          "internalType": "bytes",
          "name": "_metadata",
          "type": "bytes"
        },
        {
          "internalType": "bytes",
          "name": "_message",
          "type": "bytes"
        }
      ],
      "name": "process",
      "outputs": [],
      "stateMutability": "nonpayable",
      "type": "function"
    },
    {
      "inputs": [],
      "name": "s_hotVars",
      "outputs": [
        {
          "internalType": "bytes16",
          "name": "latestConfigDigest",
          "type": "bytes16"
        },
        {
          "internalType": "uint40",
          "name": "latestEpochAndRound",
          "type": "uint40"
        },
        {
          "internalType": "uint8",
          "name": "threshold",
          "type": "uint8"
        },
        {
          "internalType": "uint32",
          "name": "latestAggregatorRoundId",
          "type": "uint32"
        }
      ],
      "stateMutability": "view",
      "type": "function"
    },
    {
      "inputs": [
        {
          "internalType": "uint256",
          "name": "",
          "type": "uint256"
        }
      ],
      "name": "s_signers",
      "outputs": [
        {
          "internalType": "address",
          "name": "",
          "type": "address"
        }
      ],
      "stateMutability": "view",
      "type": "function"
    },
    {
      "inputs": [
        {
          "internalType": "address[]",
          "name": "_signers",
          "type": "address[]"
        },
        {
          "internalType": "address[]",
          "name": "_transmitters",
          "type": "address[]"
        },
        {
          "internalType": "uint8",
          "name": "_threshold",
          "type": "uint8"
        },
        {
          "internalType": "uint64",
          "name": "_encodedConfigVersion",
          "type": "uint64"
        },
        {
          "internalType": "bytes",
          "name": "_encoded",
          "type": "bytes"
        }
      ],
      "name": "setConfig",
      "outputs": [],
      "stateMutability": "nonpayable",
      "type": "function"
    },
    {
      "inputs": [
        {
          "internalType": "string[]",
          "name": "urls",
          "type": "string[]"
        }
      ],
      "name": "setOffchainUrls",
      "outputs": [],
      "stateMutability": "nonpayable",
      "type": "function"
    },
    {
      "inputs": [
        {
          "internalType": "address",
          "name": "_to",
          "type": "address"
        }
      ],
      "name": "transferOwnership",
      "outputs": [],
      "stateMutability": "nonpayable",
      "type": "function"
    },
    {
      "inputs": [],
      "name": "transmitters",
      "outputs": [
        {
          "internalType": "address[]",
          "name": "",
          "type": "address[]"
        }
      ],
      "stateMutability": "view",
      "type": "function"
    },
    {
      "inputs": [],
      "name": "typeAndVersion",
      "outputs": [
        {
          "internalType": "string",
          "name": "",
          "type": "string"
        }
      ],
      "stateMutability": "pure",
      "type": "function"
    },
    {
      "inputs": [],
      "name": "validatorConfig",
      "outputs": [
        {
          "internalType": "contract AggregatorValidatorInterface",
          "name": "validator",
          "type": "address"
        },
        {
          "internalType": "uint32",
          "name": "gasLimit",
          "type": "uint32"
        }
      ],
      "stateMutability": "view",
      "type": "function"
    },
    {
      "inputs": [
        {
          "internalType": "bytes",
          "name": "_metadata",
          "type": "bytes"
        },
        {
          "internalType": "bytes",
          "name": "_message",
          "type": "bytes"
        }
      ],
      "name": "verify",
      "outputs": [
        {
          "internalType": "bool",
          "name": "",
          "type": "bool"
        }
      ],
      "stateMutability": "nonpayable",
      "type": "function"
    },
    {
      "inputs": [],
      "name": "version",
      "outputs": [
        {
          "internalType": "uint256",
          "name": "",
          "type": "uint256"
        }
      ],
      "stateMutability": "view",
      "type": "function"
    }
  ],
  "bytecode": "0x60e0604052346200031a576200332b803803806200001d8162000334565b9283398101906101a0818303126200031a576200003a816200035a565b506020906200004b8282016200035a565b506200005a604082016200035a565b5062000069606082016200035a565b5062000078608082016200035a565b5060a08101516001600160a01b039390848116036200031a576200009f60c083016200036c565b90620000ae60e084016200036c565b92620000be61010082016200037b565b50620000ce61012082016200037b565b506101408101519460ff861686036200031a576101608201516001600160401b0392908381116200031a57810193601f918183870112156200031a5785518581116200030457601f1996620001298286018916870162000334565b938285528683830101116200031a5790859160005b8281106200031f57505061018092916000918501015201519889168099036200031a5760018060a01b0319973389600054161760005560c05280519384116200030457603054926001938481811c91168015620002f9575b82821014620002e35783811162000297575b50809285116001146200022c57508394509083929160009462000220575b50501b916000199060031b1c1916176030555b60805260a0526031541617603155604051612f9a90816200039182396080518181816103630152612b3e015260a0518181816107e40152612d67015260c051816103a40152f35b015192503880620001c6565b929484908116603060005284600020946000905b888383106200027c575050501062000262575b505050811b01603055620001d9565b015160001960f88460031b161c1916905538808062000253565b85870151885590960195948501948793509081019062000240565b6030600052816000208480880160051c820192848910620002d9575b0160051c019085905b828110620002cc575050620001a8565b60008155018590620002bc565b92508192620002b3565b634e487b7160e01b600052602260045260246000fd5b90607f169062000196565b634e487b7160e01b600052604160045260246000fd5b600080fd5b8181018401518682018501528793016200013e565b6040519190601f01601f191682016001600160401b038111838210176200030457604052565b519063ffffffff821682036200031a57565b51908160170b82036200031a57565b51906001600160a01b03821682036200031a5756fe60806040526004361015610013575b600080fd5b60003560e01c8063181f5a771461027f57806322adbc7814610276578063313ce5671461026d578063319ca0c91461026457806336629c7c1461025b57806350d25bcd1461025257806354fd4d501461024957806356d5d47514610240578063585aa7de146102375780636465e69f1461022e578063668a0f021461022557806370da2f671461021c5780637284e4161461021357806379ba50971461020a5780637c39d1301461020157806381411834146101f857806381ff7048146101ef5780638205bf6a146101e65780638da5cb5b146101dd5780638e0566de146101d457806395c99b9b146101cb5780639a6fc8f5146101c2578063b5ab58dc146101b9578063b633620c146101b0578063bbac9bc8146101a7578063de523cf31461019e578063e5fe457714610195578063edcc66da1461018c578063f2fde38b14610183578063f7e83aee1461017a5763feaf968c1461017257600080fd5b61000e61133d565b5061000e61128d565b5061000e611215565b5061000e6111a5565b5061000e610fca565b5061000e610fae565b5061000e610eb1565b5061000e610e98565b5061000e610e77565b5061000e610d6d565b5061000e610d17565b5061000e610c27565b5061000e610bfd565b5061000e610bc4565b5061000e610b7e565b5061000e610ab6565b5061000e610a06565b5061000e6108ec565b5061000e61080a565b5061000e6107cb565b5061000e6107a3565b5061000e610786565b5061000e6106ea565b5061000e610664565b5061000e61061a565b5061000e6105e1565b5061000e61052e565b5061000e6103c8565b5061000e610389565b5061000e61034a565b5061000e6102e7565b600091031261000e57565b919082519283825260005b8481106102bf575050826000602080949584010152601f8019910116010190565b60208183018101518483018201520161029e565b9060206102e4928181520190610293565b90565b503461000e57600036600319011261000e5761034660405161030881610434565b601881527f4f6666636861696e41676772656761746f7220342e302e3000000000000000006020820152604051918291602083526020830190610293565b0390f35b503461000e57600036600319011261000e5760206040517f000000000000000000000000000000000000000000000000000000000000000060170b8152f35b503461000e57600036600319011261000e57602060405160ff7f0000000000000000000000000000000000000000000000000000000000000000168152f35b503461000e57600036600319011261000e576080602b5463ffffffff604051916001600160801b031981851b16835264ffffffffff81851c16602084015260ff8160a81c16604084015260b01c166060820152f35b50634e487b7160e01b600052604160045260246000fd5b604081019081106001600160401b0382111761044f57604052565b61045761041d565b604052565b608081019081106001600160401b0382111761044f57604052565b90601f801991011681019081106001600160401b0382111761044f57604052565b604051906104a582610434565b565b6020906001600160401b0381116104c0575b60051b0190565b6104c861041d565b6104b9565b6020906001600160401b0381116104ea575b601f01601f19160190565b6104f261041d565b6104df565b929192610503826104cd565b916105116040519384610477565b82948184528183011161000e578281602093846000960137010152565b503461000e5760208060031936011261000e576001600160401b0360043581811161000e573660238201121561000e57806004013561056c816104a7565b9261057a6040519485610477565b818452848401906024809360051b8501019336851161000e57838101925b8584106105aa576105a88761155c565b005b833583811161000e5782013660438201121561000e5788916105d68392369060448a82013591016104f7565b815201930192610598565b503461000e57600036600319011261000e5763ffffffff602b5460b01c16600052602c602052602060406000205460170b604051908152f35b503461000e57600036600319011261000e57602060405160048152f35b9181601f8401121561000e578235916001600160401b03831161000e576020838186019501011161000e57565b503461000e57606036600319011261000e5760043563ffffffff81160361000e576044356001600160401b03811161000e576105a8903690600401610637565b9181601f8401121561000e578235916001600160401b03831161000e576020808501948460051b01011161000e57565b606435906001600160401b038216820361000e57565b503461000e5760a036600319011261000e576001600160401b0360043581811161000e5761071c9036906004016106a4565b9060243583811161000e576107359036906004016106a4565b6044359060ff8216820361000e5761074b6106d4565b9260843596871161000e576107676105a8973690600401610637565b96909561142c565b50634e487b7160e01b600052602160045260246000fd5b503461000e57600036600319011261000e57602060405160078152f35b503461000e57600036600319011261000e57602063ffffffff602b5460b01c16604051908152f35b503461000e57600036600319011261000e5760206040517f000000000000000000000000000000000000000000000000000000000000000060170b8152f35b503461000e576000806003193601126108e957604051908060305461082e816110d5565b808552916001918083169081156108bf5750600114610864575b6103468561085881870382610477565b604051918291826102d3565b9250603083527f6ff97a59c90d62cc7236ba3a37cd85351bf564556780cf8c1157a220f31f0cbb5b8284106108a757505050810160200161085882610346610848565b8054602085870181019190915290930192810161088c565b8695506103469693506020925061085894915060ff191682840152151560051b8201019293610848565b80fd5b503461000e576000806003193601126108e9576001546001600160a01b03908116330361097e57815461092f906001600160a01b03165b6001600160a01b031690565b600080546001600160a01b03191633179055600180546001600160a01b0319169055604051913391167f8be0079c531659141344cd1fd0a4f28419497f9722a3daafe3b4186f6b6457e08484a3f35b60405162461bcd60e51b815260206004820152601660248201527526bab9ba10313290383937b837b9b2b21037bbb732b960511b6044820152606490fd5b604060031982011261000e576001600160401b039160043583811161000e57826109e891600401610637565b9390939260243591821161000e57610a0291600401610637565b9091565b503461000e57610a15366109bc565b9260018060a09493941b036031541690813b1561000e576000610a5c93610a6e8296604051988997889687956307c39d1360e41b8752604060048801526044870191611833565b84810360031901602486015291611833565b03925af18015610aa9575b610a7f57005b806001600160401b036105a89211610a9c575b8060405280610288565b610aa461041d565b610a92565b610ab1611854565b610a79565b503461000e576000806003193601126108e9576040518091602a549081835260208093018092602a83527fbeced09521047d05b8960b7e7bcc1d1292cf3e4b2a6b63f48335cbde5f7545d290835b818110610b615750505084610b1a910385610477565b60405193838594850191818652518092526040850193925b828110610b4157505050500390f35b83516001600160a01b031685528695509381019392810192600101610b32565b82546001600160a01b031684529286019260019283019201610b04565b503461000e57600036600319011261000e576060602d54602b5460801b6040519163ffffffff90818116845260201c1660208301526001600160801b0319166040820152f35b503461000e57600036600319011261000e5763ffffffff602b5460b01c16600052602c602052602060406000205460c01c604051908152f35b503461000e57600036600319011261000e576000546040516001600160a01b039091168152602090f35b503461000e57600036600319011261000e576040610c436120c3565b63ffffffff602060018060a01b038351169201511682519182526020820152f35b602090600319011261000e5760043590565b50634e487b7160e01b600052603260045260246000fd5b602954811015610cc5575b60296000527fcb7c14ce178f56e2e8d86ab33ebc0ae081ba8556a00cd122038841867181caac0190600090565b610ccd610c76565b610c98565b602a54811015610d0a575b602a6000527fbeced09521047d05b8960b7e7bcc1d1292cf3e4b2a6b63f48335cbde5f7545d20190600090565b610d12610c76565b610cdd565b503461000e57610d2636610c64565b60295481101561000e5760296000527fcb7c14ce178f56e2e8d86ab33ebc0ae081ba8556a00cd122038841867181caac01546040516001600160a01b039091168152602090f35b503461000e57602036600319011261000e5760043569ffffffffffffffffffff811680820361000e57604051610da281610434565b600f81526e139bc819185d18481c1c995cd95b9d608a1b602082015263ffffffff809211610e575750610dea610def91831663ffffffff16600052602c602052604060002090565b612f4d565b6103466001600160401b03610e196020610e0a855160170b90565b9401516001600160401b031690565b6040805169ffffffffffffffffffff90961680875260179590950b6020870152911690840181905260608401526080830191909152819060a0820190565b60405162461bcd60e51b8152908190610e7390600483016102d3565b0390fd5b503461000e576020610e90610e8b36610c64565b612f02565b604051908152f35b503461000e576020610e90610eac36610c64565b612f2b565b503461000e576020600319818136011261000e576004356001600160401b03811161000e57610ee583913690600401610637565b929091604051938493630556f18360e41b855260a4850130600487015260a0602487015260325480915260c486019060c48160051b880101946032600052600080516020612f6e833981519152926000905b838210610f7a578980610e738b610f598c8c8c84878403016044880152611833565b6307c39d1360e41b6064850152908382030160848401526000815260200190565b916001610f9981939597989983979b9c60c3199082030186528b61110f565b99019201920189989796959492939193610f37565b503461000e57600036600319011261000e576020604051308152f35b503461000e57600036600319011261000e5732330361109957602b5463ffffffff90610346828260b01c1661103d61103661101f6110188463ffffffff16600052602c602052604060002090565b5460170b90565b9263ffffffff16600052602c602052604060002090565b5460c01c90565b90604051948460ff879660801c16918160881c169060801b869360ff60809463ffffffff6001600160401b03959998949960a089019a6001600160801b031916895216602088015216604086015260170b606085015216910152565b60405162461bcd60e51b81526020600482015260146024820152734f6e6c792063616c6c61626c6520627920454f4160601b6044820152606490fd5b90600182811c92168015611105575b60208310146110ef57565b634e487b7160e01b600052602260045260246000fd5b91607f16916110e4565b9060009291805491611120836110d5565b9182825260019384811690816000146111825750600114611142575b50505050565b90919394506000526020928360002092846000945b83861061116e57505050500101903880808061113c565b805485870183015294019385908201611157565b9294505050602093945060ff191683830152151560051b0101903880808061113c565b503461000e576111b436610c64565b60325481101561000e576111e96111f061034692603260005260405192838092600080516020612f6e8339815191520161110f565b0382610477565b604051918291602083526020830190610293565b6001600160a01b0381160361000e57565b503461000e57602036600319011261000e57600060043561123581611204565b81546001600160a01b039081169161124e3384146113e7565b16806001600160601b0360a01b6001541617600155604051917fed8889f560326eb138920d842192f0eb3dd22b4f139c87a2c57538e05bae12788484a3f35b503461000e5761129c366109bc565b50508060041161000e5781016080828203600319011261000e576001600160401b0391600481013583811161000e5781018260238201121561000e578281602460046112eb94013591016104f7565b91602482013584811161000e57816004611307928501016114fe565b90604483013594851161000e576113286064916004611331978601016114fe565b92013592612757565b60405160018152602090f35b503461000e57600036600319011261000e57602063ffffffff602b5460b01c1680600052602c825261034660406000209160405192604084018481106001600160401b038211176113da575b60405254928360170b9384825260c01c948591015283604051948594838693608093969591929660a086019769ffffffffffffffffffff809516875260208701526040860152606085015216910152565b6113e261041d565b611389565b156113ee57565b60405162461bcd60e51b815260206004820152601660248201527527b7363c9031b0b63630b1363290313c9037bbb732b960511b6044820152606490fd5b9695949392919061144860018060a01b036000541633146113e7565b60ff841697601f82116114c65788156114815761147c6114756104a59a611470878614611861565b6116bd565b83116118b9565b611ce7565b60405162461bcd60e51b815260206004820152601a60248201527f7468726573686f6c64206d75737420626520706f7369746976650000000000006044820152606490fd5b60405162461bcd60e51b815260206004820152601060248201526f746f6f206d616e79207369676e65727360801b6044820152606490fd5b81601f8201121561000e57803591611515836104a7565b926115236040519485610477565b808452602092838086019260051b82010192831161000e578301905b82821061154d575050505090565b8135815290830190830161153f565b600061157260018060a01b0382541633146113e7565b81511561167757815191600160401b831161166a575b603254836032558084106115dd575b506032600052602090600080516020612f6e8339815191529082015b8484106115c1575050505050565b600183826115d183945186611757565b019201930192906115b3565b6032835283600080516020612f6e83398151915291820191015b8181106116045750611597565b80611611600192546110d5565b8061161e575b50016115f7565b601f9081811184146116365750508481555b38611617565b836116589261164a85600052602060002090565b920160051c820191016116fb565b60008181526020812081835555611630565b61167261041d565b611588565b60405162461bcd60e51b8152602060048201526007602482015266042d8cadccee8d60cb1b6044820152606490fd5b50634e487b7160e01b600052601160045260246000fd5b7f555555555555555555555555555555555555555555555555555555555555555581116001166116ee575b60030290565b6116f66116a6565b6116e8565b818110611706575050565b600081556001016116fb565b9190601f811161172157505050565b6104a5926000526020600020906020601f840160051c8301931061174d575b601f0160051c01906116fb565b9091508190611740565b91909182516001600160401b038111611826575b61177f8161177984546110d5565b84611712565b602080601f83116001146117bb5750819293946000926117b0575b50508160011b916000199060031b1c1916179055565b01519050388061179a565b90601f198316956117d185600052602060002090565b926000905b88821061180e575050836001959697106117f5575b505050811b019055565b015160001960f88460031b161c191690553880806117eb565b806001859682949686015181550195019301906117d6565b61182e61041d565b61176b565b908060209392818452848401376000828201840152601f01601f1916010190565b506040513d6000823e3d90fd5b1561186857565b60405162461bcd60e51b8152602060048201526024808201527f6f7261636c6520616464726573736573206f7574206f662072656769737472616044820152633a34b7b760e11b6064820152608490fd5b156118c057565b606460405162461bcd60e51b815260206004820152602060248201527f6661756c74792d6f7261636c65207468726573686f6c6420746f6f20686967686044820152fd5b60001981019190821161191357565b6104a56116a6565b602954801561197c577fcb7c14ce178f56e2e8d86ab33ebc0ae081ba8556a00cd122038841867181caab6000198201918083101561196f575b6029600052016001600160601b0360a01b8154169055602955565b611977610c76565b611954565b634e487b7160e01b600052603160045260246000fd5b602a54801561197c577fbeced09521047d05b8960b7e7bcc1d1292cf3e4b2a6b63f48335cbde5f7545d1600019820191808310156119e6575b602a600052016001600160601b0360a01b8154169055602a55565b6119ee610c76565b6119cb565b6001906000198114611a03570190565b611a0b6116a6565b0190565b9190811015611a1f5760051b0190565b6104c8610c76565b356102e481611204565b60031115611a3b57565b6104a561076f565b15611a4a57565b60405162461bcd60e51b815260206004820152601760248201527f7265706561746564207369676e657220616464726573730000000000000000006044820152606490fd5b9060ff81511661ff0060208454938360ff19861617865501516003811015611ac2575b60081b169161ffff191617179055565b611aca61076f565b611ab2565b15611ad657565b60405162461bcd60e51b815260206004820152601c60248201527f7265706561746564207472616e736d69747465722061646472657373000000006044820152606490fd5b6104a590602954600160401b811015611b92575b6001810180602955811015611b85575b60296000527fcb7c14ce178f56e2e8d86ab33ebc0ae081ba8556a00cd122038841867181caac0180546001600160a01b0319166001600160a01b03909216919091179055565b611b8d610c76565b611b3f565b611b9a61041d565b611b2f565b6104a590602a54600160401b811015611c16575b6001810180602a55811015611c09575b602a6000527fbeced09521047d05b8960b7e7bcc1d1292cf3e4b2a6b63f48335cbde5f7545d20180546001600160a01b0319166001600160a01b03909216919091179055565b611c11610c76565b611bc3565b611c1e61041d565b611bb3565b90600163ffffffff8093160191821161191357565b91908082526020809201929160005b828110611c55575050505090565b9091929382806001928735611c6981611204565b848060a01b03168152019501910192919092611c47565b95611cbf60ff946102e49c9a966001600160401b039894611ccd969d9b9d63ffffffff8092168c521660208b015260e060408b015260e08a0191611c38565b918783036060890152611c38565b961660808401521660a082015260c0818503910152611833565b9490939795919692975b6029548015611d8757611d71611d09611d5692611904565b611d36611d1b611d30611d1b84610c8d565b905460039190911b1c6001600160a01b031690565b92610cd2565b6001600160a01b0390911660009081526028602052604081209093849190565b556001600160a01b0316600090815260286020526040902090565b55611d7a61191b565b611d82611992565b611cf1565b50909192939495969760005b868110611ea45750602b805460ff60a81b191660a884901b60ff60a81b1617905596979596949586959088868686868686602d54611dd89063ffffffff9060201c1690565b602d805467ffffffff0000000019164360201b67ffffffff00000000161790559d602d5463ffffffff16611e0b90611c23565b611e259063ffffffff1663ffffffff19602d541617602d55565b602d54611e39989063ffffffff1630612019565b611e539060801c6001600160801b0319602b541617602b55565b602b805464ffffffffff60801b19169055602d5463ffffffff1697604051998a99611e7e998b611c80565b037f25d719d88a4512dd76c7442b910a83360845505894eb444ef299409e180f8fb991a1565b611eaf81888a611a0f565b611eb890611a27565b6001600160a01b031660009081526028602052604090205460081c60ff16611edf81611a31565b15611ee990611a43565b60ff8116878b8385611ef9610498565b60ff861681528d83602096878401611f119060019052565b611f1a92611a0f565b611f2390611a27565b6001600160a01b0316600090815260286020526040902090611f4491611a8f565b611f4d92611a0f565b611f5690611a27565b6001600160a01b031660009081526028602052604090205460081c60ff16611f7d81611a31565b15611f8790611acf565b611f8f610498565b60ff9092168252600290820152611fa782848d611a0f565b611fb090611a27565b6001600160a01b0316600090815260286020526040902090611fd191611a8f565b611fdc81888a611a0f565b611fe590611a27565b611fee90611b1b565b611ff981838c611a0f565b61200290611a27565b61200b90611b9f565b612014906119f3565b611d93565b98929593979496909197604051988997602089019b600160a01b60019003168c526001600160401b0380951660408a01526060890160e0905261010089019061206192611c38565b601f1998898983030160808a015261207892611c38565b9360ff1660a08701521660c0850152848483030160e085015261209a92611833565b0390810182526120aa9082610477565b5190206fffffffffffffffffffffffffffffffff191690565b604051906120d082610434565b602e546001600160a01b038116835260a01c63ffffffff166020830152565b604051906000608060a08401938085106001600160401b0386111761214e575b84604052809461211e8161045c565b8381528360c08301528360e083015283610100830152815260606020820152606060408201526060808201520152565b61215661041d565b61210f565b604051906121688261045c565b81606063ffffffff602b546001600160801b03198160801b16845264ffffffffff8160801c16602085015260ff8160a81c16604085015260b01c16910152565b909160608284031261000e57815192602080840151936040810151906001600160401b03821161000e57019180601f8401121561000e5782516121ea816104a7565b936121f86040519586610477565b818552838086019260051b82010192831161000e578301905b82821061221f575050505090565b81518060170b810361000e578152908301908301612211565b1561223f57565b60405162461bcd60e51b815260206004820152600c60248201526b1cdd185b19481c995c1bdc9d60a21b6044820152606490fd5b1561227a57565b60405162461bcd60e51b81526020600482015260156024820152746e6f7420656e6f756768207369676e61747572657360581b6044820152606490fd5b156122be57565b60405162461bcd60e51b8152602060048201526013602482015272746f6f206d616e79207369676e61747572657360681b6044820152606490fd5b1561230057565b60405162461bcd60e51b815260206004820152601e60248201527f7369676e617475726573206f7574206f6620726567697374726174696f6e00006044820152606490fd5b1561234c57565b60405162461bcd60e51b815260206004820152601e60248201527f6e756d206f62736572766174696f6e73206f7574206f6620626f756e647300006044820152606490fd5b6101fe90607f60ff8216116001166123ab575b60011b1690565b6123b36116a6565b6123a4565b156123bf57565b60405162461bcd60e51b815260206004820152601e60248201527f746f6f206665772076616c75657320746f207472757374206d656469616e00006044820152606490fd5b9061240e826104cd565b61241b6040519182610477565b828152809261242c601f19916104cd565b0190602036910137565b60ff6001911660ff8114611a03570190565b90602091805182101561245a57010190565b612462610c76565b010190565b604051906103e08083018381106001600160401b0382111761248c575b604052368337565b61249461041d565b612484565b90601f811015611a1f5760051b0190565b156124b157565b60405162461bcd60e51b815260206004820152601760248201527f6f6273657276657220696e6465782072657065617465640000000000000000006044820152606490fd5b6040519061250382610434565b60006020838281520152565b60ff601b9116019060ff821161191357565b6020918151811015612536575b60051b010190565b61253e610c76565b61252e565b9060405161255081610434565b602060ff829454818116845260081c1691600383101561256e570152565b61257661076f565b0152565b1561258157565b60405162461bcd60e51b815260206004820152601e60248201527f61646472657373206e6f7420617574686f72697a656420746f207369676e00006044820152606490fd5b156125cd57565b60405162461bcd60e51b81526020600482015260146024820152736e6f6e2d756e69717565207369676e617475726560601b6044820152606490fd5b906001820180921161191357565b1561261e57565b60405162461bcd60e51b815260206004820152601760248201527f6f62736572766174696f6e73206e6f7420736f727465640000000000000000006044820152606490fd5b1561266a57565b60405162461bcd60e51b815260206004820152601e60248201527f6d656469616e206973206f7574206f66206d696e2d6d61782072616e676500006044820152606490fd5b60019063ffffffff809116908114611a03570190565b9594939160a0870190601792830b885260209060018060a01b03168189015260a0604089015284518092528060c089019501926000905b8382106127215750505050508161271c9186608094036060880152610293565b930152565b8451810b875295820195938201936001909101906126fc565b1561274157565b634e487b7160e01b600052600160045260246000fd5b939192905a926127656120ef565b9361276e61215b565b855261278360208851890101602089016121a8565b604088959395949294015283608088015264ffffffffff946127bd868616876127b660208c510164ffffffffff90511690565b1610612238565b6127e181516127db6127d560408c510160ff90511690565b60ff1690565b10612273565b6127ef601f825111156122b7565b6127fc89518251146122f9565b61280e601f60408a0151511115612345565b6128386040890151516128326127d561282d60408d510160ff90511690565b612391565b106123b8565b6128428151612404565b606089015260005b815160ff821690811015612890579081602061287e931015612883575b6128788a821a9160608d0151612448565b53612436565b61284a565b61288b610c76565b612867565b505092955092969093976128a8604088015151612404565b60208801526128b5612467565b9860005b60408901515160ff821610156129395780602060ff6129279316101561292c575b8b6129166129108b60ff85161a8361290b6129066129026128fc858099612499565b51151590565b1590565b6124aa565b612499565b60019052565b61287860ff831660208d0151612448565b6128b9565b612934610c76565b6128da565b509194985092966129589295501660208651019064ffffffffff169052565b6020815191012092612968612467565b956129716124f6565b5060005b8451811015612aa45780612a8d612910612a876127d58a612a80612a7b8f6128fc612902918f8f8f602092612a929f926129ef846129e8816129e26129dd6129d76129c960009b6060612a119c0151612448565b516001600160f81b03191690565b60f81c90565b61250f565b95612521565b5192612521565b51604080519c8d5260ff90931660208d0152918b015260608a01526080890190565b97818052806001990390895afa15612a97575b600080516001600160a01b03168152602860205260409020612a6790612a4990612543565b966020880151612a5881611a31565b612a6181611a31565b1461257a565b612a756127d5875160ff1690565b90612499565b6125c6565b5160ff1690565b8b612499565b6119f3565b612975565b612a9f611854565b612a24565b5095509250505060005b612abc604083015151611904565b811015612b155780612a8d612ae2612adb612b10946040870151612521565b5160170b90565b612b05612aff612adb6040880151612af987612609565b90612521565b60170b90565b9060170b1315612617565b612aae565b506104a591612d5e612b33612adb6040850151612af9815160011c90565b92612d098460170b807f000000000000000000000000000000000000000000000000000000000000000060170b131580612d64575b612b7190612663565b612b996060845101612b8f612b8a825163ffffffff1690565b6126af565b63ffffffff169052565b612c08612ba4610498565b601788900b8152426001600160401b03166020820152845160600151612be09063ffffffff1663ffffffff16600052602c602052604060002090565b815160209092015160c01b6001600160c01b0319166001600160c01b03909216919091179055565b82516060015163ffffffff16957ff6a97944f31ea060dfde0566e4167c1a1082551e64b60ecb14d599a9d023d4516040850151602086015190612c60608088015160405193849363ffffffff809e16973390866126c5565b0390a2600086612c79606086510163ffffffff90511690565b167f0109fc6f55cf40689f02fbaad7af7fe7bbac8a3d2186600afc7d3e10cac6027160405180612cae42829190602083019252565b0390a3825160600151869063ffffffff1616817f0559884fd3a460db3073b7fc896cc77986f16e378210ded43186175bf646fc5f60405180612cf542829190602083019252565b0390a382516060015163ffffffff16612dd0565b51805190602b5460208201519060ff60a81b604084015160a81b1692606063ffffffff60b01b91015160b01b169360801c9065ffffffffffff60d01b16179064ffffffffff60801b9060801b16171717602b55565b1061273a565b507f000000000000000000000000000000000000000000000000000000000000000060170b811315612b68565b15612d9857565b60405162461bcd60e51b815260206004820152601060248201526f696e73756666696369656e742067617360801b6044820152606490fd5b612dd86120c3565b80516001600160a01b031615612eae576104a592612e9c92612e969263ffffffff938480931693612e88600019860191858311612ea1575b612e2d6110188463ffffffff16600052602c602052604060002090565b96612e53610923612e45602089015163ffffffff1690565b97516001600160a01b031690565b97604051998a9563beed9b5160e01b602088015216602486019094939260609260808301968352602083015260408201520152565b03601f198101865285610477565b16612eb3565b612d91565b612ea96116a6565b612e10565b505050565b60009392915a611388811015612ec95750505050565b6113871980820160061c909103018210612ee4575b8061113c565b6000809495508392916020829551940192f150600190388080612ede565b63ffffffff90818111612f245716600052602c60205260406000205460170b90565b5050600090565b63ffffffff90818111612f245716600052602c60205260406000205460c01c90565b90604051612f5a81610434565b60208193548060170b835260c01c91015256fe11df491316f14931039edfd4f8964c9a443b862f02d4c7611d18c2bc4e6ff697a164736f6c6343000810000a",
  "linkReferences": {},
  "deployedLinkReferences": {}
}