{
  "_format": "hh-sol-artifact-1",
  "contractName": "ChainlinkAggregator",
  "sourceName": "contracts/ChainlinkAggregator.sol",
  "abi": [
    {
      "inputs": [
        {
          "internalType": "uint32",
          "name": "_maximumGasPrice",
          "type": "uint32"
        },
        {
          "internalType": "uint32",
          "name": "_reasonableGasPrice",
          "type": "uint32"
        },
        {
          "internalType": "uint32",
          "name": "_microLinkPerEth",
          "type": "uint32"
        },
        {
          "internalType": "uint32",
          "name": "_linkGweiPerObservation",
          "type": "uint32"
        },
        {
          "internalType": "uint32",
          "name": "_linkGweiPerTransmission",
          "type": "uint32"
        },
        {
          "internalType": "contract LinkTokenInterface",
          "name": "_link",
          "type": "address"
        },
        {
          "internalType": "int192",
          "name": "_minAnswer",
          "type": "int192"
        },
        {
          "internalType": "int192",
          "name": "_maxAnswer",
          "type": "int192"
        },
        {
          "internalType": "contract AccessControllerInterface",
          "name": "_billingAccessController",
          "type": "address"
        },
        {
          "internalType": "contract AccessControllerInterface",
          "name": "_requesterAccessController",
          "type": "address"
        },
        {
          "internalType": "uint8",
          "name": "_decimals",
          "type": "uint8"
        },
        {
          "internalType": "string",
          "name": "_description",
          "type": "string"
        },
        {
          "internalType": "address[]",
          "name": "_signers",
          "type": "address[]"
        },
        {
          "internalType": "address[]",
          "name": "_transmitters",
          "type": "address[]"
        },
        {
          "internalType": "uint8",
          "name": "_threshold",
          "type": "uint8"
        },
        {
          "internalType": "uint64",
          "name": "_encodedConfigVersion",
          "type": "uint64"
        },
        {
          "internalType": "bytes",
          "name": "_encoded",
          "type": "bytes"
        },
        {
          "internalType": "contract IMailbox",
          "name": "_mailbox",
          "type": "address"
        },
        {
          "internalType": "string[]",
          "name": "_offchainUrls",
          "type": "string[]"
        },
        {
          "internalType": "uint32",
          "name": "_origin",
          "type": "uint32"
        }
      ],
      "stateMutability": "nonpayable",
      "type": "constructor"
    },
    {
      "inputs": [
        {
          "internalType": "address",
          "name": "sender",
          "type": "address"
        },
        {
          "internalType": "string[]",
          "name": "urls",
          "type": "string[]"
        },
        {
          "internalType": "bytes",
          "name": "callData",
          "type": "bytes"
        },
        {
          "internalType": "bytes4",
          "name": "callbackFunction",
          "type": "bytes4"
        },
        {
          "internalType": "bytes",
          "name": "extraData",
          "type": "bytes"
        }
      ],
      "name": "OffchainLookup",
      "type": "error"
    },
    {
      "anonymous": false,
      "inputs": [
        {
          "indexed": true,
          "internalType": "int256",
          "name": "current",
          "type": "int256"
        },
        {
          "indexed": true,
          "internalType": "uint256",
          "name": "roundId",
          "type": "uint256"
        },
        {
          "indexed": false,
          "internalType": "uint256",
          "name": "updatedAt",
          "type": "uint256"
        }
      ],
      "name": "AnswerUpdated",
      "type": "event"
    },
    {
      "anonymous": false,
      "inputs": [
        {
          "indexed": false,
          "internalType": "uint32",
          "name": "previousConfigBlockNumber",
          "type": "uint32"
        },
        {
          "indexed": false,
          "internalType": "uint64",
          "name": "configCount",
          "type": "uint64"
        },
        {
          "indexed": false,
          "internalType": "address[]",
          "name": "signers",
          "type": "address[]"
        },
        {
          "indexed": false,
          "internalType": "address[]",
          "name": "transmitters",
          "type": "address[]"
        },
        {
          "indexed": false,
          "internalType": "uint8",
          "name": "threshold",
          "type": "uint8"
        },
        {
          "indexed": false,
          "internalType": "uint64",
          "name": "encodedConfigVersion",
          "type": "uint64"
        },
        {
          "indexed": false,
          "internalType": "bytes",
          "name": "encoded",
          "type": "bytes"
        }
      ],
      "name": "ConfigSet",
      "type": "event"
    },
    {
      "anonymous": false,
      "inputs": [
        {
          "indexed": true,
          "internalType": "uint256",
          "name": "roundId",
          "type": "uint256"
        },
        {
          "indexed": true,
          "internalType": "address",
          "name": "startedBy",
          "type": "address"
        },
        {
          "indexed": false,
          "internalType": "uint256",
          "name": "startedAt",
          "type": "uint256"
        }
      ],
      "name": "NewRound",
      "type": "event"
    },
    {
      "anonymous": false,
      "inputs": [
        {
          "indexed": true,
          "internalType": "uint32",
          "name": "aggregatorRoundId",
          "type": "uint32"
        },
        {
          "indexed": false,
          "internalType": "int192",
          "name": "answer",
          "type": "int192"
        },
        {
          "indexed": false,
          "internalType": "address",
          "name": "transmitter",
          "type": "address"
        },
        {
          "indexed": false,
          "internalType": "int192[]",
          "name": "observations",
          "type": "int192[]"
        },
        {
          "indexed": false,
          "internalType": "bytes",
          "name": "observers",
          "type": "bytes"
        },
        {
          "indexed": false,
          "internalType": "bytes32",
          "name": "rawReportContext",
          "type": "bytes32"
        }
      ],
      "name": "NewTransmission",
      "type": "event"
    },
    {
      "anonymous": false,
      "inputs": [
        {
          "indexed": true,
          "internalType": "address",
          "name": "from",
          "type": "address"
        },
        {
          "indexed": true,
          "internalType": "address",
          "name": "to",
          "type": "address"
        }
      ],
      "name": "OwnershipTransferRequested",
      "type": "event"
    },
    {
      "anonymous": false,
      "inputs": [
        {
          "indexed": true,
          "internalType": "address",
          "name": "from",
          "type": "address"
        },
        {
          "indexed": true,
          "internalType": "address",
          "name": "to",
          "type": "address"
        }
      ],
      "name": "OwnershipTransferred",
      "type": "event"
    },
    {
      "anonymous": false,
      "inputs": [
        {
          "indexed": false,
          "internalType": "contract AccessControllerInterface",
          "name": "old",
          "type": "address"
        },
        {
          "indexed": false,
          "internalType": "contract AccessControllerInterface",
          "name": "current",
          "type": "address"
        }
      ],
      "name": "RequesterAccessControllerSet",
      "type": "event"
    },
    {
      "anonymous": false,
      "inputs": [
        {
          "indexed": true,
          "internalType": "address",
          "name": "requester",
          "type": "address"
        },
        {
          "indexed": false,
          "internalType": "bytes16",
          "name": "configDigest",
          "type": "bytes16"
        },
        {
          "indexed": false,
          "internalType": "uint32",
          "name": "epoch",
          "type": "uint32"
        },
        {
          "indexed": false,
          "internalType": "uint8",
          "name": "round",
          "type": "uint8"
        }
      ],
      "name": "RoundRequested",
      "type": "event"
    },
    {
      "anonymous": false,
      "inputs": [
        {
          "indexed": true,
          "internalType": "contract AggregatorValidatorInterface",
          "name": "previousValidator",
          "type": "address"
        },
        {
          "indexed": false,
          "internalType": "uint32",
          "name": "previousGasLimit",
          "type": "uint32"
        },
        {
          "indexed": true,
          "internalType": "contract AggregatorValidatorInterface",
          "name": "currentValidator",
          "type": "address"
        },
        {
          "indexed": false,
          "internalType": "uint32",
          "name": "currentGasLimit",
          "type": "uint32"
        }
      ],
      "name": "ValidatorConfigSet",
      "type": "event"
    },
    {
      "inputs": [],
      "name": "acceptOwnership",
      "outputs": [],
      "stateMutability": "nonpayable",
      "type": "function"
    },
    {
      "inputs": [],
      "name": "decimals",
      "outputs": [
        {
          "internalType": "uint8",
          "name": "",
          "type": "uint8"
        }
      ],
      "stateMutability": "view",
      "type": "function"
    },
    {
      "inputs": [],
      "name": "description",
      "outputs": [
        {
          "internalType": "string",
          "name": "",
          "type": "string"
        }
      ],
      "stateMutability": "view",
      "type": "function"
    },
    {
      "inputs": [
        {
          "internalType": "uint256",
          "name": "_roundId",
          "type": "uint256"
        }
      ],
      "name": "getAnswer",
      "outputs": [
        {
          "internalType": "int256",
          "name": "",
          "type": "int256"
        }
      ],
      "stateMutability": "view",
      "type": "function"
    },
    {
      "inputs": [],
      "name": "getOffchainUrls",
      "outputs": [
        {
          "internalType": "string[]",
          "name": "",
          "type": "string[]"
        }
      ],
      "stateMutability": "view",
      "type": "function"
    },
    {
      "inputs": [
        {
          "internalType": "bytes",
          "name": "_message",
          "type": "bytes"
        }
      ],
      "name": "getOffchainVerifyInfo",
      "outputs": [],
      "stateMutability": "view",
      "type": "function"
    },
    {
      "inputs": [
        {
          "internalType": "uint80",
          "name": "_roundId",
          "type": "uint80"
        }
      ],
      "name": "getRoundData",
      "outputs": [
        {
          "internalType": "uint80",
          "name": "roundId",
          "type": "uint80"
        },
        {
          "internalType": "int256",
          "name": "answer",
          "type": "int256"
        },
        {
          "internalType": "uint256",
          "name": "startedAt",
          "type": "uint256"
        },
        {
          "internalType": "uint256",
          "name": "updatedAt",
          "type": "uint256"
        },
        {
          "internalType": "uint80",
          "name": "answeredInRound",
          "type": "uint80"
        }
      ],
      "stateMutability": "view",
      "type": "function"
    },
    {
      "inputs": [
        {
          "internalType": "uint256",
          "name": "_roundId",
          "type": "uint256"
        }
      ],
      "name": "getTimestamp",
      "outputs": [
        {
          "internalType": "uint256",
          "name": "",
          "type": "uint256"
        }
      ],
      "stateMutability": "view",
      "type": "function"
    },
    {
      "inputs": [
        {
          "internalType": "uint32",
          "name": "",
          "type": "uint32"
        },
        {
          "internalType": "bytes32",
          "name": "",
          "type": "bytes32"
        },
        {
          "internalType": "bytes",
          "name": "_report",
          "type": "bytes"
        }
      ],
      "name": "handle",
      "outputs": [],
      "stateMutability": "nonpayable",
      "type": "function"
    },
    {
      "inputs": [],
      "name": "interchainSecurityModule",
      "outputs": [
        {
          "internalType": "contract IInterchainSecurityModule",
          "name": "",
          "type": "address"
        }
      ],
      "stateMutability": "view",
      "type": "function"
    },
    {
      "inputs": [],
      "name": "latestAnswer",
      "outputs": [
        {
          "internalType": "int256",
          "name": "",
          "type": "int256"
        }
      ],
      "stateMutability": "view",
      "type": "function"
    },
    {
      "inputs": [],
      "name": "latestConfigDetails",
      "outputs": [
        {
          "internalType": "uint32",
          "name": "configCount",
          "type": "uint32"
        },
        {
          "internalType": "uint32",
          "name": "blockNumber",
          "type": "uint32"
        },
        {
          "internalType": "bytes16",
          "name": "configDigest",
          "type": "bytes16"
        }
      ],
      "stateMutability": "view",
      "type": "function"
    },
    {
      "inputs": [],
      "name": "latestRound",
      "outputs": [
        {
          "internalType": "uint256",
          "name": "",
          "type": "uint256"
        }
      ],
      "stateMutability": "view",
      "type": "function"
    },
    {
      "inputs": [],
      "name": "latestRoundData",
      "outputs": [
        {
          "internalType": "uint80",
          "name": "roundId",
          "type": "uint80"
        },
        {
          "internalType": "int256",
          "name": "answer",
          "type": "int256"
        },
        {
          "internalType": "uint256",
          "name": "startedAt",
          "type": "uint256"
        },
        {
          "internalType": "uint256",
          "name": "updatedAt",
          "type": "uint256"
        },
        {
          "internalType": "uint80",
          "name": "answeredInRound",
          "type": "uint80"
        }
      ],
      "stateMutability": "view",
      "type": "function"
    },
    {
      "inputs": [],
      "name": "latestTimestamp",
      "outputs": [
        {
          "internalType": "uint256",
          "name": "",
          "type": "uint256"
        }
      ],
      "stateMutability": "view",
      "type": "function"
    },
    {
      "inputs": [],
      "name": "latestTransmissionDetails",
      "outputs": [
        {
          "internalType": "bytes16",
          "name": "configDigest",
          "type": "bytes16"
        },
        {
          "internalType": "uint32",
          "name": "epoch",
          "type": "uint32"
        },
        {
          "internalType": "uint8",
          "name": "round",
          "type": "uint8"
        },
        {
          "internalType": "int192",
          "name": "latestAnswer",
          "type": "int192"
        },
        {
          "internalType": "uint64",
          "name": "latestTimestamp",
          "type": "uint64"
        }
      ],
      "stateMutability": "view",
      "type": "function"
    },
    {
      "inputs": [],
      "name": "maxAnswer",
      "outputs": [
        {
          "internalType": "int192",
          "name": "",
          "type": "int192"
        }
      ],
      "stateMutability": "view",
      "type": "function"
    },
    {
      "inputs": [],
      "name": "minAnswer",
      "outputs": [
        {
          "internalType": "int192",
          "name": "",
          "type": "int192"
        }
      ],
      "stateMutability": "view",
      "type": "function"
    },
    {
      "inputs": [],
      "name": "moduleType",
      "outputs": [
        {
          "internalType": "uint8",
          "name": "",
          "type": "uint8"
        }
      ],
      "stateMutability": "view",
      "type": "function"
    },
    {
      "inputs": [
        {
          "internalType": "uint256",
          "name": "",
          "type": "uint256"
        }
      ],
      "name": "offchainUrls",
      "outputs": [
        {
          "internalType": "string",
          "name": "",
          "type": "string"
        }
      ],
      "stateMutability": "view",
      "type": "function"
    },
    {
      "inputs": [],
      "name": "origin",
      "outputs": [
        {
          "internalType": "uint32",
          "name": "",
          "type": "uint32"
        }
      ],
      "stateMutability": "view",
      "type": "function"
    },
    {
      "inputs": [],
      "name": "owner",
      "outputs": [
        {
          "internalType": "address payable",
          "name": "",
          "type": "address"
        }
      ],
      "stateMutability": "view",
      "type": "function"
    },
    {
      "inputs": [
        {
          "internalType": "bytes",
          "name": "_metadata",
          "type": "bytes"
        },
        {
          "internalType": "bytes",
          "name": "_message",
          "type": "bytes"
        }
      ],
      "name": "process",
      "outputs": [],
      "stateMutability": "nonpayable",
      "type": "function"
    },
    {
      "inputs": [],
      "name": "requestNewRound",
      "outputs": [
        {
          "internalType": "uint80",
          "name": "",
          "type": "uint80"
        }
      ],
      "stateMutability": "nonpayable",
      "type": "function"
    },
    {
      "inputs": [],
      "name": "requesterAccessController",
      "outputs": [
        {
          "internalType": "contract AccessControllerInterface",
          "name": "",
          "type": "address"
        }
      ],
      "stateMutability": "view",
      "type": "function"
    },
    {
      "inputs": [],
      "name": "s_hotVars",
      "outputs": [
        {
          "internalType": "bytes16",
          "name": "latestConfigDigest",
          "type": "bytes16"
        },
        {
          "internalType": "uint40",
          "name": "latestEpochAndRound",
          "type": "uint40"
        },
        {
          "internalType": "uint8",
          "name": "threshold",
          "type": "uint8"
        },
        {
          "internalType": "uint32",
          "name": "latestAggregatorRoundId",
          "type": "uint32"
        }
      ],
      "stateMutability": "view",
      "type": "function"
    },
    {
      "inputs": [
        {
          "internalType": "uint256",
          "name": "",
          "type": "uint256"
        }
      ],
      "name": "s_signers",
      "outputs": [
        {
          "internalType": "address",
          "name": "",
          "type": "address"
        }
      ],
      "stateMutability": "view",
      "type": "function"
    },
    {
      "inputs": [
        {
          "internalType": "address[]",
          "name": "_signers",
          "type": "address[]"
        },
        {
          "internalType": "address[]",
          "name": "_transmitters",
          "type": "address[]"
        },
        {
          "internalType": "uint8",
          "name": "_threshold",
          "type": "uint8"
        },
        {
          "internalType": "uint64",
          "name": "_encodedConfigVersion",
          "type": "uint64"
        },
        {
          "internalType": "bytes",
          "name": "_encoded",
          "type": "bytes"
        }
      ],
      "name": "setConfig",
      "outputs": [],
      "stateMutability": "nonpayable",
      "type": "function"
    },
    {
      "inputs": [
        {
          "internalType": "string[]",
          "name": "urls",
          "type": "string[]"
        }
      ],
      "name": "setOffchainUrls",
      "outputs": [],
      "stateMutability": "nonpayable",
      "type": "function"
    },
    {
      "inputs": [
        {
          "internalType": "contract AccessControllerInterface",
          "name": "_requesterAccessController",
          "type": "address"
        }
      ],
      "name": "setRequesterAccessController",
      "outputs": [],
      "stateMutability": "nonpayable",
      "type": "function"
    },
    {
      "inputs": [
        {
          "internalType": "contract AggregatorValidatorInterface",
          "name": "_newValidator",
          "type": "address"
        },
        {
          "internalType": "uint32",
          "name": "_newGasLimit",
          "type": "uint32"
        }
      ],
      "name": "setValidatorConfig",
      "outputs": [],
      "stateMutability": "nonpayable",
      "type": "function"
    },
    {
      "inputs": [
        {
          "internalType": "address",
          "name": "_to",
          "type": "address"
        }
      ],
      "name": "transferOwnership",
      "outputs": [],
      "stateMutability": "nonpayable",
      "type": "function"
    },
    {
      "inputs": [],
      "name": "transmitters",
      "outputs": [
        {
          "internalType": "address[]",
          "name": "",
          "type": "address[]"
        }
      ],
      "stateMutability": "view",
      "type": "function"
    },
    {
      "inputs": [],
      "name": "typeAndVersion",
      "outputs": [
        {
          "internalType": "string",
          "name": "",
          "type": "string"
        }
      ],
      "stateMutability": "pure",
      "type": "function"
    },
    {
      "inputs": [],
      "name": "validatorConfig",
      "outputs": [
        {
          "internalType": "contract AggregatorValidatorInterface",
          "name": "validator",
          "type": "address"
        },
        {
          "internalType": "uint32",
          "name": "gasLimit",
          "type": "uint32"
        }
      ],
      "stateMutability": "view",
      "type": "function"
    },
    {
      "inputs": [
        {
          "internalType": "bytes",
          "name": "_metadata",
          "type": "bytes"
        },
        {
          "internalType": "bytes",
          "name": "_message",
          "type": "bytes"
        }
      ],
      "name": "verify",
      "outputs": [
        {
          "internalType": "bool",
          "name": "",
          "type": "bool"
        }
      ],
      "stateMutability": "nonpayable",
      "type": "function"
    },
    {
      "inputs": [],
      "name": "version",
      "outputs": [
        {
          "internalType": "uint256",
          "name": "",
          "type": "uint256"
        }
      ],
      "stateMutability": "view",
      "type": "function"
    }
  ],
  "bytecode": "0x60e06040523462000d4a57620045478038038091620000208260e062000d6b565b60e039610280811262000d4a576200003960e062000d8f565b506200004761010062000d8f565b506200005561012062000d8f565b506200006361014062000d8f565b506200007161016062000d8f565b50610180516001600160a01b0381160362000d4a57620000936101a062000da1565b90620000a16101c062000da1565b90620000af6101e062000db0565b50620000bd61020062000db0565b50620000cb61022062000dc5565b610240516001600160401b03811162000d4a57620000f1908360e0019060e00162000e45565b610260519093906001600160401b03811162000d4a576200011a908460e0019060e00162000e7d565b610280519092906001600160401b03811162000d4a5762000143908560e0019060e00162000e7d565b93620001516102a062000dc5565b6102c051979096906001600160401b038916890362000d4a576102e0516001600160401b03811162000d4a5760e0840160ff8201121562000d4a5760e080820151620001a592918601916101000162000df9565b61030051909590916001600160a01b038316830362000d4a5761032051936001600160401b03851162000d4a5760e0860160ff8601121562000d4a578460e0015194620001f28662000e65565b9562000202604051978862000d6b565b80875260208701978860e08201610100600585901b8601011162000d4a576101008401905b610100600585901b860101821062000d0d5750505050506200024e61026060e00162000d8f565b600080546001600160a01b0319163317905560c0979097528051906001600160401b038211620006ed5781906200028760305462000ef4565b601f811162000ccb575b50602090601f831160011462000c4d5760009262000c41575b50508160011b916000199060031b1c1916176030555b60805260a052603180546001600160a01b0319166001600160a01b03929092169190911790555190680100000000000000008211620006ed576032548260325580831062000baf575b50603260009081526000805160206200450783398151915292915b82821062000a7e575050505063ffffffff1663ffffffff19603354161760335581518351601f821162000a465760ff86161562000a01578103620009b0577f555555555555555555555555555555555555555555555555555555555555555560ff861611600116620004cb5760ff851660030210156200096c575b6029548015620004e157600019810190808211620004cb5780821015620004b55760296000527fcb7c14ce178f56e2e8d86ab33ebc0ae081ba8556a00cd122038841867181caab810154602a546001600160a01b03909116921015620004b5577fbeced09521047d05b8960b7e7bcc1d1292cf3e4b2a6b63f48335cbde5f7545d101546000918252602860205260408083208390556001600160a01b03909116825281205560295480156200049f576000190162000476620004618262000f4a565b81549060018060a01b039060031b1b19169055565b602955602a5480156200049f576000190162000496620004618262000f66565b602a556200039f565b634e487b7160e01b600052603160045260246000fd5b634e487b7160e01b600052603260045260246000fd5b634e487b7160e01b600052601160045260246000fd5b508460005b8351811015620007a3576001600160a01b0362000504828662000f82565b5116600052602860205260ff60406000205460081c16600381101562000703576200075e57604051620005378162000d4f565b60ff821681526001602082019081526001600160a01b036200055a848862000f82565b5116600052602860205260ff6040600020925116825491516003811015620007035761ffff199092161760089190911b61ff00161790556001600160a01b03620005a5828762000f82565b5116600052602860205260ff60406000205460081c16600381101562000703576200071957604051620005d88162000d4f565b60ff821681526002602082019081526001600160a01b03620005fb848962000f82565b5116600052602860205260ff6040600020925116825491516003811015620007035761ffff199092161760089190911b61ff00161790556001600160a01b0362000646828662000f82565b51166029549068010000000000000000821015620006ed576200067482600162000698940160295562000f4a565b90919082549060031b9160018060a01b039283811b93849216901b16911916179055565b6001600160a01b03620006ac828762000f82565b5116602a549068010000000000000000821015620006ed5762000674826001620006da9401602a5562000f66565b6000198114620004cb57600101620004e6565b634e487b7160e01b600052604160045260246000fd5b634e487b7160e01b600052602160045260246000fd5b60405162461bcd60e51b815260206004820152601c60248201527f7265706561746564207472616e736d69747465722061646472657373000000006044820152606490fd5b60405162461bcd60e51b815260206004820152601760248201527f7265706561746564207369676e657220616464726573730000000000000000006044820152606490fd5b50919093602b5494602d5493600163ffffffff8616019363ffffffff8511620004cb576200090d87620008fe8385620008647f25d719d88a4512dd76c7442b910a83360845505894eb444ef299409e180f8fb99d8c620008aa63ffffffff9f63ffffffff9a620009309f8f8f60ff9e6200089d9316998a809867ffffffff000000004360201b169060018060401b0319161717602d558f620008786040519b8c97602089019b308d5260408a015260e060608a015261010089019062000f97565b601f1998898983030160808a015262000f97565b931660a08601526001600160401b031660c0850152838203850160e085015262000fd6565b0390810185528462000d6b565b64ffffffffff60801b199251902060801c908860a81b8c60a81b1690600165ff000000000160801b031916171716602b556040519b8c9b60201c168b5260208b015260e060408b015260e08a019062000f97565b9088820360608a015262000f97565b931660808601526001600160401b031660a085015283820360c085015262000fd6565b0390a1604051613509908162000ffe82396080518181816104c701526130ad015260a05181818161095b01526132d6015260c051816105080152f35b606460405162461bcd60e51b815260206004820152602060248201527f6661756c74792d6f7261636c65207468726573686f6c6420746f6f20686967686044820152fd5b60405162461bcd60e51b8152602060048201526024808201527f6f7261636c6520616464726573736573206f7574206f662072656769737472616044820152633a34b7b760e11b6064820152608490fd5b60405162461bcd60e51b815260206004820152601a60248201527f7468726573686f6c64206d75737420626520706f7369746976650000000000006044820152606490fd5b60405162461bcd60e51b815260206004820152601060248201526f746f6f206d616e79207369676e65727360801b6044820152606490fd5b80518051906001600160401b038211620006ed5762000a9e865462000ef4565b601f811162000b6d575b50602090601f831160011462000af957928260019493602093869560009262000aed575b5050600019600383901b1c191690841b1787555b0194019101909262000324565b01519050388062000acc565b908660005260206000209160005b601f198516811062000b5457509260209260019592869583601f1981161062000b3a575b505050831b8301875562000ae0565b015160001960f88460031b161c1916905538808062000b2b565b9192602060018192868501518155019401920162000b07565b62000b9d90876000526020600020601f850160051c8101916020861062000ba4575b601f0160051c019062000f31565b3862000aa8565b909150819062000b8f565b603260005260008051602062004507833981519152908382015b818301811062000bdb57505062000309565b8062000bea6001925462000ef4565b8062000bf9575b500162000bc9565b601f8111831462000c115750600081555b3862000bf1565b62000c31908260005283601f6020600020920160051c8201910162000f31565b6000602081208183555562000c0a565b015190503880620002aa565b6030600090815293506000805160206200452783398151915291905b601f198416851062000caf576001945083601f1981161062000c95575b505050811b01603055620002c0565b015160001960f88460031b161c1916905538808062000c86565b8181015183556020948501946001909301929091019062000c69565b603060005262000d069060008051602062004527833981519152601f850160051c8101916020861062000ba457601f0160051c019062000f31565b3862000291565b8151906001600160401b03821162000d4a57602080929162000d3c8293838860e001918b60e001010162000e45565b815201920191905062000227565b600080fd5b604081019081106001600160401b03821117620006ed57604052565b601f909101601f19168101906001600160401b03821190821017620006ed57604052565b519063ffffffff8216820362000d4a57565b51908160170b820362000d4a57565b51906001600160a01b038216820362000d4a57565b519060ff8216820362000d4a57565b60005b83811062000de85750506000910152565b818101518382015260200162000dd7565b919291906001600160401b038111620006ed576040519162000e26601f8301601f19166020018462000d6b565b82948284528282011162000d4a57602062000e4393019062000dd4565b565b9080601f8301121562000d4a57815162000e629260200162000df9565b90565b6001600160401b038111620006ed5760051b60200190565b81601f8201121562000d4a5780519162000e978362000e65565b9262000ea7604051948562000d6b565b808452602092838086019260051b82010192831162000d4a578301905b82821062000ed3575050505090565b81516001600160a01b038116810362000d4a57815290830190830162000ec4565b90600182811c9216801562000f26575b602083101462000f1057565b634e487b7160e01b600052602260045260246000fd5b91607f169162000f04565b81811062000f3d575050565b6000815560010162000f31565b602954811015620004b557602960005260206000200190600090565b602a54811015620004b557602a60005260206000200190600090565b8051821015620004b55760209160051b010190565b90815180825260208080930193019160005b82811062000fb8575050505090565b83516001600160a01b03168552938101939281019260010162000fa9565b9060209162000ff18151809281855285808601910162000dd4565b601f01601f191601019056fe60806040526004361015610013575b600080fd5b60003560e01c806304760924146102f7578063181f5a77146102ee57806322adbc78146102e5578063313ce567146102dc578063319ca0c9146102d357806336629c7c146102ca57806350d25bcd146102c157806354fd4d50146102b857806356d5d475146102af578063585aa7de146102a65780636465e69f1461029d578063668a0f021461029457806370da2f671461028b57806370efdf2d146102825780637284e4161461027957806379ba5097146102705780637c39d13014610267578063814118341461025e57806381ff7048146102555780638205bf6a1461024c5780638da5cb5b146102435780638e0566de1461023a578063938b5f321461023157806395c99b9b1461022857806398e5b12a1461021f5780639a6fc8f5146102165780639e3ceeab1461020d578063b5ab58dc14610204578063b633620c146101fb578063bbac9bc8146101f2578063de523cf3146101e9578063e5fe4577146101e0578063eb457163146101d7578063edcc66da146101ce578063f2fde38b146101c5578063f7e83aee146101bc5763feaf968c146101b457600080fd5b61000e611868565b5061000e6117b8565b5061000e611740565b5061000e6116e8565b5061000e6114d5565b5061000e6113ca565b5061000e6113ae565b5061000e6112b5565b5061000e61129c565b5061000e61127b565b5061000e6111ee565b5061000e6110d3565b5061000e610f3e565b5061000e610ee8565b5061000e610e10565b5061000e610dd3565b5061000e610da9565b5061000e610d70565b5061000e610d2a565b5061000e610c94565b5061000e610ba7565b5061000e610a8d565b5061000e6109ab565b5061000e610981565b5061000e610942565b5061000e61091a565b5061000e6108fd565b5061000e610861565b5061000e6107db565b5061000e61077e565b5061000e610745565b5061000e610692565b5061000e61052c565b5061000e6104ed565b5061000e6104ae565b5061000e61044f565b5061000e6103ad565b600091031261000e57565b919082519283825260005b848110610337575050826000602080949584010152601f8019910116010190565b602081830181015184830182015201610316565b602080820190808352835180925260408301928160408460051b8301019501936000915b84831061037f5750505050505090565b909192939495848061039d600193603f198682030187528a5161030b565b980193019301919493929061036f565b503461000e57600036600319011261000e576032546103cb8161060b565b6040916103da835192836105db565b8082526032600090815260206000805160206134dd8339815191528185015b8484106104115786518061040d888261034b565b0390f35b6001838192895161042d816104268189611652565b03826105db565b8152019201930192906103f9565b90602061044c92818152019061030b565b90565b503461000e57600036600319011261000e5761040d60405161047081610598565b601881527f4f6666636861696e41676772656761746f7220342e302e300000000000000000602082015260405191829160208352602083019061030b565b503461000e57600036600319011261000e5760206040517f000000000000000000000000000000000000000000000000000000000000000060170b8152f35b503461000e57600036600319011261000e57602060405160ff7f0000000000000000000000000000000000000000000000000000000000000000168152f35b503461000e57600036600319011261000e576080602b5463ffffffff604051916001600160801b031981851b16835264ffffffffff81851c16602084015260ff8160a81c16604084015260b01c166060820152f35b50634e487b7160e01b600052604160045260246000fd5b604081019081106001600160401b038211176105b357604052565b6105bb610581565b604052565b608081019081106001600160401b038211176105b357604052565b90601f801991011681019081106001600160401b038211176105b357604052565b6040519061060982610598565b565b6020906001600160401b038111610624575b60051b0190565b61062c610581565b61061d565b6020906001600160401b03811161064e575b601f01601f19160190565b610656610581565b610643565b92919261066782610631565b9161067560405193846105db565b82948184528183011161000e578281602093846000960137010152565b503461000e5760208060031936011261000e576001600160401b0360043581811161000e573660238201121561000e5780600401356106d08161060b565b926106de60405194856105db565b818452848401906024809360051b8501019336851161000e57838101925b85841061070e5761070c87611b04565b005b833583811161000e5782013660438201121561000e57889161073a8392369060448a820135910161065b565b8152019301926106fc565b503461000e57600036600319011261000e5763ffffffff602b5460b01c16600052602c602052602060406000205460170b604051908152f35b503461000e57600036600319011261000e57602060405160048152f35b6024359063ffffffff8216820361000e57565b9181601f8401121561000e578235916001600160401b03831161000e576020838186019501011161000e57565b503461000e57606036600319011261000e5760043563ffffffff81160361000e576044356001600160401b03811161000e5761070c9036906004016107ae565b9181601f8401121561000e578235916001600160401b03831161000e576020808501948460051b01011161000e57565b606435906001600160401b038216820361000e57565b503461000e5760a036600319011261000e576001600160401b0360043581811161000e5761089390369060040161081b565b9060243583811161000e576108ac90369060040161081b565b6044359060ff8216820361000e576108c261084b565b9260843596871161000e576108de61070c9736906004016107ae565b969095611957565b50634e487b7160e01b600052602160045260246000fd5b503461000e57600036600319011261000e57602060405160078152f35b503461000e57600036600319011261000e57602063ffffffff602b5460b01c16604051908152f35b503461000e57600036600319011261000e5760206040517f000000000000000000000000000000000000000000000000000000000000000060170b8152f35b503461000e57600036600319011261000e57602f546040516001600160a01b039091168152602090f35b503461000e57600080600319360112610a8a5760405190806030546109cf81611618565b80855291600191808316908115610a605750600114610a05575b61040d856109f9818703826105db565b6040519182918261043b565b9250603083527f6ff97a59c90d62cc7236ba3a37cd85351bf564556780cf8c1157a220f31f0cbb5b828410610a485750505081016020016109f98261040d6109e9565b80546020858701810191909152909301928101610a2d565b86955061040d969350602092506109f994915060ff191682840152151560051b82010192936109e9565b80fd5b503461000e57600080600319360112610a8a576001546001600160a01b039081163303610b1f578154610ad0906001600160a01b03165b6001600160a01b031690565b600080546001600160a01b03191633179055600180546001600160a01b0319169055604051913391167f8be0079c531659141344cd1fd0a4f28419497f9722a3daafe3b4186f6b6457e08484a3f35b60405162461bcd60e51b815260206004820152601660248201527526bab9ba10313290383937b837b9b2b21037bbb732b960511b6044820152606490fd5b604060031982011261000e576001600160401b039160043583811161000e5782610b89916004016107ae565b9390939260243591821161000e57610ba3916004016107ae565b9091565b503461000e57610bb636610b5d565b9260018060a09493941b036031541690813b1561000e576000610bfd93610c0f8296604051988997889687956307c39d1360e41b8752604060048801526044870191611ddb565b84810360031901602486015291611ddb565b03925af18015610c4a575b610c2057005b806001600160401b0361070c9211610c3d575b8060405280610300565b610c45610581565b610c33565b610c52611dfc565b610c1a565b90815180825260208080930193019160005b828110610c77575050505090565b83516001600160a01b031685529381019392810192600101610c69565b503461000e57600036600319011261000e5760405180602a54808252826020809301602a6000527fbeced09521047d05b8960b7e7bcc1d1292cf3e4b2a6b63f48335cbde5f7545d29260005b85828210610d0b57505050610cf7925003836105db565b61040d604051928284938452830190610c57565b85546001600160a01b0316845260019586019588955093019201610ce0565b503461000e57600036600319011261000e576060602d54602b5460801b6040519163ffffffff90818116845260201c1660208301526001600160801b0319166040820152f35b503461000e57600036600319011261000e5763ffffffff602b5460b01c16600052602c602052602060406000205460c01c604051908152f35b503461000e57600036600319011261000e576000546040516001600160a01b039091168152602090f35b503461000e57600036600319011261000e576040610def6125b4565b63ffffffff602060018060a01b038351169201511682519182526020820152f35b503461000e57600036600319011261000e57602063ffffffff60335416604051908152f35b602090600319011261000e5760043590565b50634e487b7160e01b600052603260045260246000fd5b602954811015610e96575b60296000527fcb7c14ce178f56e2e8d86ab33ebc0ae081ba8556a00cd122038841867181caac0190600090565b610e9e610e47565b610e69565b602a54811015610edb575b602a6000527fbeced09521047d05b8960b7e7bcc1d1292cf3e4b2a6b63f48335cbde5f7545d20190600090565b610ee3610e47565b610eae565b503461000e57610ef736610e35565b60295481101561000e5760296000527fcb7c14ce178f56e2e8d86ab33ebc0ae081ba8556a00cd122038841867181caac01546040516001600160a01b039091168152602090f35b503461000e57600036600319011261000e57600054610f65906001600160a01b0316610ac4565b33148015611041575b610f7790612631565b61040d61102461101b6110166060610f8d61267d565b80516001600160801b0319167f3ea16a923ff4b1df6526e854c9e3a995c43385d70e73359e10623c74f0b52037611008610fd1602b5464ffffffffff9060801c1690565b604080516001600160801b03199095168552600882901c63ffffffff16602086015260ff9091169084015233929081906060820190565b0390a2015163ffffffff1690565b6121cb565b63ffffffff1690565b60405169ffffffffffffffffffff90911681529081906020820190565b50602f54610f779061105b906001600160a01b0316610ac4565b60206040518092630d629b5f60e31b8252818061107c3633600484016125f8565b03915afa9081156110c6575b600091611098575b509050610f6e565b6110b9915060203d81116110bf575b6110b181836105db565b8101906125e0565b38611090565b503d6110a7565b6110ce611dfc565b611088565b503461000e57602036600319011261000e5760043569ffffffffffffffffffff811680820361000e5760405161110881610598565b600f81526e139bc819185d18481c1c995cd95b9d608a1b602082015263ffffffff8092116111bd575061115061115591831663ffffffff16600052602c602052604060002090565b6134bc565b61040d6001600160401b0361117f6020611170855160170b90565b9401516001600160401b031690565b6040805169ffffffffffffffffffff90961680875260179590950b6020870152911690840181905260608401526080830191909152819060a0820190565b60405162461bcd60e51b81529081906111d9906004830161043b565b0390fd5b6001600160a01b0381160361000e57565b503461000e57602036600319011261000e5760043561120c816111dd565b6000546001600160a01b03906112259082163314611912565b602f549080821692169180830361123857005b827f27b89aede8b560578baaa25ee5ce3852c5eecad1e114b941bbd89e1eb4bae634936040936001600160601b0360a01b1617602f5582519182526020820152a1005b503461000e57602061129461128f36610e35565b613471565b604051908152f35b503461000e5760206112946112b036610e35565b61349a565b503461000e576020600319818136011261000e576004356001600160401b03811161000e576112e9839136906004016107ae565b92604051938492630556f18360e41b845260a4840130600486015260a0602486015260325480915260c485019060c48160051b8701019660326000526000805160206134dd833981519152926000905b83821061137a57505050505061135e8584866111d99798030160448801528383611ddb565b6307c39d1360e41b606487015292858403016084860152611ddb565b91600161139981939597999b8397999b60c31990820301865289611652565b97019201920189979598969492939193611339565b503461000e57600036600319011261000e576020604051308152f35b503461000e57600036600319011261000e5732330361149957602b5463ffffffff9061040d828260b01c1661143d61143661141f6114188463ffffffff16600052602c602052604060002090565b5460170b90565b9263ffffffff16600052602c602052604060002090565b5460c01c90565b90604051948460ff879660801c16918160881c169060801b869360ff60809463ffffffff6001600160401b03959998949960a089019a6001600160801b031916895216602088015216604086015260170b606085015216910152565b60405162461bcd60e51b81526020600482015260146024820152734f6e6c792063616c6c61626c6520627920454f4160601b6044820152606490fd5b503461000e57604036600319011261000e576004356114f3816111dd565b6114fb61079b565b6000546001600160a01b0392906115159084163314611912565b61151d6125b4565b928084511693818316809514801590611601575b61153757005b6115b47fb04e3a37abe9c0fcdfebdeae019a8e2b12ddf53f5d55ffb0caccc1bedaca1541936115766115676105fc565b6001600160a01b039092168252565b63ffffffff8616602082015251602e80546001600160c01b0319166001600160a01b03929092169190911760a087901b63ffffffff60a01b16179055565b80516115fc906115d6906020906001600160a01b031693015163ffffffff1690565b9460405193849316958390602090939293604083019463ffffffff809216845216910152565b0390a3005b5063ffffffff806020830151169085161415611531565b90600182811c92168015611648575b602083101461163257565b634e487b7160e01b600052602260045260246000fd5b91607f1691611627565b906000929180549161166383611618565b9182825260019384811690816000146116c55750600114611685575b50505050565b90919394506000526020928360002092846000945b8386106116b157505050500101903880808061167f565b80548587018301529401938590820161169a565b9294505050602093945060ff191683830152151560051b0101903880808061167f565b503461000e576116f736610e35565b60325481101561000e5761042661172c61040d926032600052604051928380926000805160206134dd83398151915201611652565b60405191829160208352602083019061030b565b503461000e57602036600319011261000e576000600435611760816111dd565b81546001600160a01b0390811691611779338414611912565b16806001600160601b0360a01b6001541617600155604051917fed8889f560326eb138920d842192f0eb3dd22b4f139c87a2c57538e05bae12788484a3f35b503461000e576117c736610b5d565b50508060041161000e5781016080828203600319011261000e576001600160401b0391600481013583811161000e5781018260238201121561000e57828160246004611816940135910161065b565b91602482013584811161000e5781600461183292850101611aa6565b90604483013594851161000e57611853606491600461185c97860101611aa6565b92013592612ccb565b60405160018152602090f35b503461000e57600036600319011261000e57602063ffffffff602b5460b01c1680600052602c825261040d60406000209160405192604084018481106001600160401b03821117611905575b60405254928360170b9384825260c01c948591015283604051948594838693608093969591929660a086019769ffffffffffffffffffff809516875260208701526040860152606085015216910152565b61190d610581565b6118b4565b1561191957565b60405162461bcd60e51b815260206004820152601660248201527527b7363c9031b0b63630b1363290313c9037bbb732b960511b6044820152606490fd5b916119826119929498979361198a9361197b60018060a01b03600054163314611912565b3691611a4e565b973691611a4e565b94369161065b565b9284519481519560ff841690601f8111611a165781156119d1576119c66119cc926119c16106099a8414611e09565b611c65565b10611e61565b612244565b60405162461bcd60e51b815260206004820152601a60248201527f7468726573686f6c64206d75737420626520706f7369746976650000000000006044820152606490fd5b60405162461bcd60e51b815260206004820152601060248201526f746f6f206d616e79207369676e65727360801b6044820152606490fd5b9291611a598261060b565b91611a6760405193846105db565b829481845260208094019160051b810192831161000e57905b828210611a8d5750505050565b8380918335611a9b816111dd565b815201910190611a80565b81601f8201121561000e57803591611abd8361060b565b92611acb60405194856105db565b808452602092838086019260051b82010192831161000e578301905b828210611af5575050505090565b81358152908301908301611ae7565b6000611b1a60018060a01b038254163314611912565b815115611c1f57815191600160401b8311611c12575b60325483603255808410611b85575b5060326000526020906000805160206134dd8339815191529082015b848410611b69575050505050565b60018382611b7983945186611cff565b01920193019290611b5b565b60328352836000805160206134dd83398151915291820191015b818110611bac5750611b3f565b80611bb960019254611618565b80611bc6575b5001611b9f565b601f908181118414611bde5750508481555b38611bbf565b83611c0092611bf285600052602060002090565b920160051c82019101611ca3565b60008181526020812081835555611bd8565b611c1a610581565b611b30565b60405162461bcd60e51b8152602060048201526007602482015266042d8cadccee8d60cb1b6044820152606490fd5b50634e487b7160e01b600052601160045260246000fd5b7f55555555555555555555555555555555555555555555555555555555555555558111600116611c96575b60030290565b611c9e611c4e565b611c90565b818110611cae575050565b60008155600101611ca3565b9190601f8111611cc957505050565b610609926000526020600020906020601f840160051c83019310611cf5575b601f0160051c0190611ca3565b9091508190611ce8565b91909182516001600160401b038111611dce575b611d2781611d218454611618565b84611cba565b602080601f8311600114611d63575081929394600092611d58575b50508160011b916000199060031b1c1916179055565b015190503880611d42565b90601f19831695611d7985600052602060002090565b926000905b888210611db657505083600195969710611d9d575b505050811b019055565b015160001960f88460031b161c19169055388080611d93565b80600185968294968601518155019501930190611d7e565b611dd6610581565b611d13565b908060209392818452848401376000828201840152601f01601f1916010190565b506040513d6000823e3d90fd5b15611e1057565b60405162461bcd60e51b8152602060048201526024808201527f6f7261636c6520616464726573736573206f7574206f662072656769737472616044820152633a34b7b760e11b6064820152608490fd5b15611e6857565b606460405162461bcd60e51b815260206004820152602060248201527f6661756c74792d6f7261636c65207468726573686f6c6420746f6f20686967686044820152fd5b600019810191908211611ebb57565b610609611c4e565b6029548015611f24577fcb7c14ce178f56e2e8d86ab33ebc0ae081ba8556a00cd122038841867181caab60001982019180831015611f17575b6029600052016001600160601b0360a01b8154169055602955565b611f1f610e47565b611efc565b634e487b7160e01b600052603160045260246000fd5b602a548015611f24577fbeced09521047d05b8960b7e7bcc1d1292cf3e4b2a6b63f48335cbde5f7545d160001982019180831015611f8e575b602a600052016001600160601b0360a01b8154169055602a55565b611f96610e47565b611f73565b6001906000198114611fab570190565b611fb3611c4e565b0190565b6020918151811015611fcc575b60051b010190565b611fd4610e47565b611fc4565b60031115611fe357565b6106096108e6565b15611ff257565b60405162461bcd60e51b815260206004820152601760248201527f7265706561746564207369676e657220616464726573730000000000000000006044820152606490fd5b9060ff81511661ff0060208454938360ff1986161786550151600381101561206a575b60081b169161ffff191617179055565b6120726108e6565b61205a565b1561207e57565b60405162461bcd60e51b815260206004820152601c60248201527f7265706561746564207472616e736d69747465722061646472657373000000006044820152606490fd5b61060990602954600160401b81101561213a575b600181018060295581101561212d575b60296000527fcb7c14ce178f56e2e8d86ab33ebc0ae081ba8556a00cd122038841867181caac0180546001600160a01b0319166001600160a01b03909216919091179055565b612135610e47565b6120e7565b612142610581565b6120d7565b61060990602a54600160401b8110156121be575b6001810180602a558110156121b1575b602a6000527fbeced09521047d05b8960b7e7bcc1d1292cf3e4b2a6b63f48335cbde5f7545d20180546001600160a01b0319166001600160a01b03909216919091179055565b6121b9610e47565b61216b565b6121c6610581565b61215b565b90600163ffffffff80931601918211611ebb57565b9361222a9061221c6001600160401b039560ff9461044c9b999a9663ffffffff8092168a5216602089015260e0604089015260e0880190610c57565b908682036060880152610c57565b951660808401521660a082015260c081840391015261030b565b9193949092945b60295480156122e1576122cb6122636122b092611eac565b61229061227561228a61227584610e5e565b905460039190911b1c6001600160a01b031690565b92610ea3565b6001600160a01b0390911660009081526028602052604081209093849190565b556001600160a01b0316600090815260286020526040902090565b556122d4611ec3565b6122dc611f3a565b61224b565b50909192939460005b845181101561241857806123e4816123d461239f6123b86123a961235661233c61232f8f9a8f9b61239f8d61236f6124139f61235661233c61232f8861236094611fb7565b516001600160a01b031690565b6001600160a01b0316600090815260286020526040902090565b5460081c60ff1690565b61236981611fd9565b15611feb565b6123a461233c61232f60ff87169e8f9461239361238a6105fc565b60ff9097168752565b60209e8f870160019052565b611fb7565b612037565b6123b281611fd9565b15612077565b6123cc6123c36105fc565b60ff9094168452565b820160029052565b6123a461233c61232f858c611fb7565b6123f96123f461232f8389611fb7565b6120c3565b61240e61240961232f838a611fb7565b612147565b611f9b565b6122ea565b50602b805460ff60a81b191660a888901b60ff60a81b1617905591947f25d719d88a4512dd76c7442b910a83360845505894eb444ef299409e180f8fb994926125149291602d5460201c63ffffffff16602d805467ffffffff0000000019164360201b67ffffffff0000000016179055946124b461249e611016602d5463ffffffff1690565b63ffffffff1663ffffffff19602d541617602d55565b6124ed6124d7858585858c6124d161101b602d5463ffffffff1690565b30612519565b60801c6001600160801b0319602b541617602b55565b602b805464ffffffffff60801b19169055602d5463ffffffff1696604051978897886121e0565b0390a1565b946125699461044c976125a49594936125989360ff61257c6040519a8b9860208a01809e60018060a01b031690526001600160401b0380961660408b015260e060608b01526101008a0190610c57565b601f19998a8a83030160808b0152610c57565b941660a08701521660c0850152848483030160e085015261030b565b039081018352826105db565b5190206001600160801b03191690565b604051906125c182610598565b602e546001600160a01b038116835260a01c63ffffffff166020830152565b9081602091031261000e5751801515810361000e5790565b6001600160a01b0390911681526040602082018190528101829052606091806000848401376000828201840152601f01601f1916010190565b1561263857565b60405162461bcd60e51b815260206004820152601d60248201527f4f6e6c79206f776e6572267265717565737465722063616e2063616c6c0000006044820152606490fd5b6040519061268a826105c0565b81606063ffffffff602b546001600160801b03198160801b16845264ffffffffff8160801c16602085015260ff8160a81c16604085015260b01c16910152565b604051906000608060a08401938085106001600160401b03861117612729575b8460405280946126f9816105c0565b8381528360c08301528360e083015283610100830152815260606020820152606060408201526060808201520152565b612731610581565b6126ea565b909160608284031261000e57815192602080840151936040810151906001600160401b03821161000e57019180601f8401121561000e5782516127788161060b565b9361278660405195866105db565b818552838086019260051b82010192831161000e578301905b8282106127ad575050505090565b81518060170b810361000e57815290830190830161279f565b156127cd57565b60405162461bcd60e51b815260206004820152600c60248201526b1cdd185b19481c995c1bdc9d60a21b6044820152606490fd5b1561280857565b60405162461bcd60e51b81526020600482015260156024820152746e6f7420656e6f756768207369676e61747572657360581b6044820152606490fd5b1561284c57565b60405162461bcd60e51b8152602060048201526013602482015272746f6f206d616e79207369676e61747572657360681b6044820152606490fd5b1561288e57565b60405162461bcd60e51b815260206004820152601e60248201527f7369676e617475726573206f7574206f6620726567697374726174696f6e00006044820152606490fd5b156128da57565b60405162461bcd60e51b815260206004820152601e60248201527f6e756d206f62736572766174696f6e73206f7574206f6620626f756e647300006044820152606490fd5b6101fe90607f60ff821611600116612939575b60011b1690565b612941611c4e565b612932565b1561294d57565b60405162461bcd60e51b815260206004820152601e60248201527f746f6f206665772076616c75657320746f207472757374206d656469616e00006044820152606490fd5b9061299c82610631565b6129a960405191826105db565b82815280926129ba601f1991610631565b0190602036910137565b60ff6001911660ff8114611fab570190565b9060209180518210156129e857010190565b6129f0610e47565b010190565b604051906103e08083018381106001600160401b03821117612a1a575b604052368337565b612a22610581565b612a12565b90601f811015612a385760051b0190565b61062c610e47565b15612a4757565b60405162461bcd60e51b815260206004820152601760248201527f6f6273657276657220696e6465782072657065617465640000000000000000006044820152606490fd5b60405190612a9982610598565b60006020838281520152565b60ff601b9116019060ff8211611ebb57565b90604051612ac481610598565b602060ff829454818116845260081c16916003831015612ae2570152565b612aea6108e6565b0152565b15612af557565b60405162461bcd60e51b815260206004820152601e60248201527f61646472657373206e6f7420617574686f72697a656420746f207369676e00006044820152606490fd5b15612b4157565b60405162461bcd60e51b81526020600482015260146024820152736e6f6e2d756e69717565207369676e617475726560601b6044820152606490fd5b9060018201809211611ebb57565b15612b9257565b60405162461bcd60e51b815260206004820152601760248201527f6f62736572766174696f6e73206e6f7420736f727465640000000000000000006044820152606490fd5b15612bde57565b60405162461bcd60e51b815260206004820152601e60248201527f6d656469616e206973206f7574206f66206d696e2d6d61782072616e676500006044820152606490fd5b60019063ffffffff809116908114611fab570190565b9594939160a0870190601792830b885260209060018060a01b03168189015260a0604089015284518092528060c089019501926000905b838210612c9557505050505081612c90918660809403606088015261030b565b930152565b8451810b87529582019593820193600190910190612c70565b15612cb557565b634e487b7160e01b600052600160045260246000fd5b939192905a92612cd96126ca565b93612ce261267d565b8552612cf76020885189010160208901612736565b604088959395949294015283608088015264ffffffffff94612d3186861687612d2a60208c510164ffffffffff90511690565b16106127c6565b612d558151612d4f612d4960408c510160ff90511690565b60ff1690565b10612801565b612d63601f82511115612845565b612d708951825114612887565b612d82601f60408a01515111156128d3565b612dac604089015151612da6612d49612da160408d510160ff90511690565b61291f565b10612946565b612db68151612992565b606089015260005b815160ff821690811015612e045790816020612df2931015612df7575b612dec8a821a9160608d01516129d6565b536129c4565b612dbe565b612dff610e47565b612ddb565b50509295509296909397612e1c604088015151612992565b6020880152612e296129f5565b9860005b60408901515160ff82161015612ead5780602060ff612e9b93161015612ea0575b8b612e8a612e848b60ff85161a83612e7f612e7a612e76612e70858099612a27565b51151590565b1590565b612a40565b612a27565b60019052565b612dec60ff831660208d01516129d6565b612e2d565b612ea8610e47565b612e4e565b50919498509296612ecc9295501660208651019064ffffffffff169052565b6020815191012092612edc6129f5565b95612ee5612a8c565b5060005b8451811015613013578061240e612e84612ffb612d498a612ff4612fef8f612e70612e76918f8f8f6020926130019f92612f6384612f5c81612f56612f51612f4b612f3d60009b6060612f859c01516129d6565b516001600160f81b03191690565b60f81c90565b612aa5565b95611fb7565b5192611fb7565b51604080519c8d5260ff90931660208d0152918b015260608a01526080890190565b97818052806001990390895afa15613006575b600080516001600160a01b03168152602860205260409020612fdb90612fbd90612ab7565b966020880151612fcc81611fd9565b612fd581611fd9565b14612aee565b612fe9612d49875160ff1690565b90612a27565b612b3a565b5160ff1690565b8b612a27565b612ee9565b61300e611dfc565b612f98565b5095509250505060005b61302b604083015151611eac565b811015613084578061240e61305161304a61307f946040870151611fb7565b5160170b90565b61307461306e61304a604088015161306887612b7d565b90611fb7565b60170b90565b9060170b1315612b8b565b61301d565b50610609916132cd6130a261304a6040850151613068815160011c90565b926132788460170b807f000000000000000000000000000000000000000000000000000000000000000060170b1315806132d3575b6130e090612bd7565b61310860608451016130fe6130f9825163ffffffff1690565b612c23565b63ffffffff169052565b6131776131136105fc565b601788900b8152426001600160401b0316602082015284516060015161314f9063ffffffff1663ffffffff16600052602c602052604060002090565b815160209092015160c01b6001600160c01b0319166001600160c01b03909216919091179055565b82516060015163ffffffff16957ff6a97944f31ea060dfde0566e4167c1a1082551e64b60ecb14d599a9d023d45160408501516020860151906131cf608088015160405193849363ffffffff809e1697339086612c39565b0390a26000866131e8606086510163ffffffff90511690565b167f0109fc6f55cf40689f02fbaad7af7fe7bbac8a3d2186600afc7d3e10cac602716040518061321d42829190602083019252565b0390a3825160600151869063ffffffff1616817f0559884fd3a460db3073b7fc896cc77986f16e378210ded43186175bf646fc5f6040518061326442829190602083019252565b0390a382516060015163ffffffff1661333f565b51805190602b5460208201519060ff60a81b604084015160a81b1692606063ffffffff60b01b91015160b01b169360801c9065ffffffffffff60d01b16179064ffffffffff60801b9060801b16171717602b55565b10612cae565b507f000000000000000000000000000000000000000000000000000000000000000060170b8113156130d7565b1561330757565b60405162461bcd60e51b815260206004820152601060248201526f696e73756666696369656e742067617360801b6044820152606490fd5b6133476125b4565b80516001600160a01b03161561341d576106099261340b926134059263ffffffff9384809316936133f7600019860191858311613410575b61339c6114188463ffffffff16600052602c602052604060002090565b966133c2610ac46133b4602089015163ffffffff1690565b97516001600160a01b031690565b97604051998a9563beed9b5160e01b602088015216602486019094939260609260808301968352602083015260408201520152565b03601f1981018652856105db565b16613422565b613300565b613418611c4e565b61337f565b505050565b60009392915a6113888110156134385750505050565b6113871980820160061c909103018210613453575b8061167f565b6000809495508392916020829551940192f15060019038808061344d565b63ffffffff908181116134935716600052602c60205260406000205460170b90565b5050600090565b63ffffffff908181116134935716600052602c60205260406000205460c01c90565b906040516134c981610598565b60208193548060170b835260c01c91015256fe11df491316f14931039edfd4f8964c9a443b862f02d4c7611d18c2bc4e6ff697a164736f6c6343000810000a11df491316f14931039edfd4f8964c9a443b862f02d4c7611d18c2bc4e6ff6976ff97a59c90d62cc7236ba3a37cd85351bf564556780cf8c1157a220f31f0cbb",
  "linkReferences": {},
  "deployedLinkReferences": {}
}