{
  "_format": "hh-sol-artifact-1",
  "contractName": "ChainlinkAggregator",
  "sourceName": "contracts/ChainlinkAggregator.sol",
  "abi": [
    {
      "inputs": [
        {
          "internalType": "uint32",
          "name": "_maximumGasPrice",
          "type": "uint32"
        },
        {
          "internalType": "uint32",
          "name": "_reasonableGasPrice",
          "type": "uint32"
        },
        {
          "internalType": "uint32",
          "name": "_microLinkPerEth",
          "type": "uint32"
        },
        {
          "internalType": "uint32",
          "name": "_linkGweiPerObservation",
          "type": "uint32"
        },
        {
          "internalType": "uint32",
          "name": "_linkGweiPerTransmission",
          "type": "uint32"
        },
        {
          "internalType": "contract LinkTokenInterface",
          "name": "_link",
          "type": "address"
        },
        {
          "internalType": "int192",
          "name": "_minAnswer",
          "type": "int192"
        },
        {
          "internalType": "int192",
          "name": "_maxAnswer",
          "type": "int192"
        },
        {
          "internalType": "contract AccessControllerInterface",
          "name": "_billingAccessController",
          "type": "address"
        },
        {
          "internalType": "contract AccessControllerInterface",
          "name": "_requesterAccessController",
          "type": "address"
        },
        {
          "internalType": "uint8",
          "name": "_decimals",
          "type": "uint8"
        },
        {
          "internalType": "string",
          "name": "_description",
          "type": "string"
        },
        {
          "internalType": "contract IMailbox",
          "name": "_mailbox",
          "type": "address"
        },
        {
          "internalType": "string[]",
          "name": "_offchainUrls",
          "type": "string[]"
        }
      ],
      "stateMutability": "nonpayable",
      "type": "constructor"
    },
    {
      "inputs": [
        {
          "internalType": "address",
          "name": "sender",
          "type": "address"
        },
        {
          "internalType": "string[]",
          "name": "urls",
          "type": "string[]"
        },
        {
          "internalType": "bytes",
          "name": "callData",
          "type": "bytes"
        },
        {
          "internalType": "bytes4",
          "name": "callbackFunction",
          "type": "bytes4"
        },
        {
          "internalType": "bytes",
          "name": "extraData",
          "type": "bytes"
        }
      ],
      "name": "OffchainLookup",
      "type": "error"
    },
    {
      "anonymous": false,
      "inputs": [
        {
          "indexed": true,
          "internalType": "int256",
          "name": "current",
          "type": "int256"
        },
        {
          "indexed": true,
          "internalType": "uint256",
          "name": "roundId",
          "type": "uint256"
        },
        {
          "indexed": false,
          "internalType": "uint256",
          "name": "updatedAt",
          "type": "uint256"
        }
      ],
      "name": "AnswerUpdated",
      "type": "event"
    },
    {
      "anonymous": false,
      "inputs": [
        {
          "indexed": false,
          "internalType": "uint32",
          "name": "previousConfigBlockNumber",
          "type": "uint32"
        },
        {
          "indexed": false,
          "internalType": "uint64",
          "name": "configCount",
          "type": "uint64"
        },
        {
          "indexed": false,
          "internalType": "address[]",
          "name": "signers",
          "type": "address[]"
        },
        {
          "indexed": false,
          "internalType": "address[]",
          "name": "transmitters",
          "type": "address[]"
        },
        {
          "indexed": false,
          "internalType": "uint8",
          "name": "threshold",
          "type": "uint8"
        },
        {
          "indexed": false,
          "internalType": "uint64",
          "name": "encodedConfigVersion",
          "type": "uint64"
        },
        {
          "indexed": false,
          "internalType": "bytes",
          "name": "encoded",
          "type": "bytes"
        }
      ],
      "name": "ConfigSet",
      "type": "event"
    },
    {
      "anonymous": false,
      "inputs": [
        {
          "indexed": true,
          "internalType": "uint256",
          "name": "roundId",
          "type": "uint256"
        },
        {
          "indexed": true,
          "internalType": "address",
          "name": "startedBy",
          "type": "address"
        },
        {
          "indexed": false,
          "internalType": "uint256",
          "name": "startedAt",
          "type": "uint256"
        }
      ],
      "name": "NewRound",
      "type": "event"
    },
    {
      "anonymous": false,
      "inputs": [
        {
          "indexed": true,
          "internalType": "uint32",
          "name": "aggregatorRoundId",
          "type": "uint32"
        },
        {
          "indexed": false,
          "internalType": "int192",
          "name": "answer",
          "type": "int192"
        },
        {
          "indexed": false,
          "internalType": "address",
          "name": "transmitter",
          "type": "address"
        },
        {
          "indexed": false,
          "internalType": "int192[]",
          "name": "observations",
          "type": "int192[]"
        },
        {
          "indexed": false,
          "internalType": "bytes",
          "name": "observers",
          "type": "bytes"
        },
        {
          "indexed": false,
          "internalType": "bytes32",
          "name": "rawReportContext",
          "type": "bytes32"
        }
      ],
      "name": "NewTransmission",
      "type": "event"
    },
    {
      "anonymous": false,
      "inputs": [
        {
          "indexed": true,
          "internalType": "address",
          "name": "from",
          "type": "address"
        },
        {
          "indexed": true,
          "internalType": "address",
          "name": "to",
          "type": "address"
        }
      ],
      "name": "OwnershipTransferRequested",
      "type": "event"
    },
    {
      "anonymous": false,
      "inputs": [
        {
          "indexed": true,
          "internalType": "address",
          "name": "from",
          "type": "address"
        },
        {
          "indexed": true,
          "internalType": "address",
          "name": "to",
          "type": "address"
        }
      ],
      "name": "OwnershipTransferred",
      "type": "event"
    },
    {
      "anonymous": false,
      "inputs": [
        {
          "indexed": true,
          "internalType": "contract AggregatorValidatorInterface",
          "name": "previousValidator",
          "type": "address"
        },
        {
          "indexed": false,
          "internalType": "uint32",
          "name": "previousGasLimit",
          "type": "uint32"
        },
        {
          "indexed": true,
          "internalType": "contract AggregatorValidatorInterface",
          "name": "currentValidator",
          "type": "address"
        },
        {
          "indexed": false,
          "internalType": "uint32",
          "name": "currentGasLimit",
          "type": "uint32"
        }
      ],
      "name": "ValidatorConfigSet",
      "type": "event"
    },
    {
      "inputs": [],
      "name": "acceptOwnership",
      "outputs": [],
      "stateMutability": "nonpayable",
      "type": "function"
    },
    {
      "inputs": [],
      "name": "decimals",
      "outputs": [
        {
          "internalType": "uint8",
          "name": "",
          "type": "uint8"
        }
      ],
      "stateMutability": "view",
      "type": "function"
    },
    {
      "inputs": [],
      "name": "description",
      "outputs": [
        {
          "internalType": "string",
          "name": "",
          "type": "string"
        }
      ],
      "stateMutability": "view",
      "type": "function"
    },
    {
      "inputs": [
        {
          "internalType": "uint256",
          "name": "_roundId",
          "type": "uint256"
        }
      ],
      "name": "getAnswer",
      "outputs": [
        {
          "internalType": "int256",
          "name": "",
          "type": "int256"
        }
      ],
      "stateMutability": "view",
      "type": "function"
    },
    {
      "inputs": [],
      "name": "getOffchainUrls",
      "outputs": [
        {
          "internalType": "string[]",
          "name": "",
          "type": "string[]"
        }
      ],
      "stateMutability": "view",
      "type": "function"
    },
    {
      "inputs": [
        {
          "internalType": "bytes",
          "name": "_message",
          "type": "bytes"
        }
      ],
      "name": "getOffchainVerifyInfo",
      "outputs": [],
      "stateMutability": "view",
      "type": "function"
    },
    {
      "inputs": [
        {
          "internalType": "uint80",
          "name": "_roundId",
          "type": "uint80"
        }
      ],
      "name": "getRoundData",
      "outputs": [
        {
          "internalType": "uint80",
          "name": "roundId",
          "type": "uint80"
        },
        {
          "internalType": "int256",
          "name": "answer",
          "type": "int256"
        },
        {
          "internalType": "uint256",
          "name": "startedAt",
          "type": "uint256"
        },
        {
          "internalType": "uint256",
          "name": "updatedAt",
          "type": "uint256"
        },
        {
          "internalType": "uint80",
          "name": "answeredInRound",
          "type": "uint80"
        }
      ],
      "stateMutability": "view",
      "type": "function"
    },
    {
      "inputs": [
        {
          "internalType": "uint256",
          "name": "_roundId",
          "type": "uint256"
        }
      ],
      "name": "getTimestamp",
      "outputs": [
        {
          "internalType": "uint256",
          "name": "",
          "type": "uint256"
        }
      ],
      "stateMutability": "view",
      "type": "function"
    },
    {
      "inputs": [
        {
          "internalType": "uint32",
          "name": "",
          "type": "uint32"
        },
        {
          "internalType": "bytes32",
          "name": "",
          "type": "bytes32"
        },
        {
          "internalType": "bytes",
          "name": "_report",
          "type": "bytes"
        }
      ],
      "name": "handle",
      "outputs": [],
      "stateMutability": "nonpayable",
      "type": "function"
    },
    {
      "inputs": [],
      "name": "interchainSecurityModule",
      "outputs": [
        {
          "internalType": "contract IInterchainSecurityModule",
          "name": "",
          "type": "address"
        }
      ],
      "stateMutability": "view",
      "type": "function"
    },
    {
      "inputs": [],
      "name": "latestAnswer",
      "outputs": [
        {
          "internalType": "int256",
          "name": "",
          "type": "int256"
        }
      ],
      "stateMutability": "view",
      "type": "function"
    },
    {
      "inputs": [],
      "name": "latestConfigDetails",
      "outputs": [
        {
          "internalType": "uint32",
          "name": "configCount",
          "type": "uint32"
        },
        {
          "internalType": "uint32",
          "name": "blockNumber",
          "type": "uint32"
        },
        {
          "internalType": "bytes16",
          "name": "configDigest",
          "type": "bytes16"
        }
      ],
      "stateMutability": "view",
      "type": "function"
    },
    {
      "inputs": [],
      "name": "latestRound",
      "outputs": [
        {
          "internalType": "uint256",
          "name": "",
          "type": "uint256"
        }
      ],
      "stateMutability": "view",
      "type": "function"
    },
    {
      "inputs": [],
      "name": "latestRoundData",
      "outputs": [
        {
          "internalType": "uint80",
          "name": "roundId",
          "type": "uint80"
        },
        {
          "internalType": "int256",
          "name": "answer",
          "type": "int256"
        },
        {
          "internalType": "uint256",
          "name": "startedAt",
          "type": "uint256"
        },
        {
          "internalType": "uint256",
          "name": "updatedAt",
          "type": "uint256"
        },
        {
          "internalType": "uint80",
          "name": "answeredInRound",
          "type": "uint80"
        }
      ],
      "stateMutability": "view",
      "type": "function"
    },
    {
      "inputs": [],
      "name": "latestTimestamp",
      "outputs": [
        {
          "internalType": "uint256",
          "name": "",
          "type": "uint256"
        }
      ],
      "stateMutability": "view",
      "type": "function"
    },
    {
      "inputs": [],
      "name": "latestTransmissionDetails",
      "outputs": [
        {
          "internalType": "bytes16",
          "name": "configDigest",
          "type": "bytes16"
        },
        {
          "internalType": "uint32",
          "name": "epoch",
          "type": "uint32"
        },
        {
          "internalType": "uint8",
          "name": "round",
          "type": "uint8"
        },
        {
          "internalType": "int192",
          "name": "latestAnswer",
          "type": "int192"
        },
        {
          "internalType": "uint64",
          "name": "latestTimestamp",
          "type": "uint64"
        }
      ],
      "stateMutability": "view",
      "type": "function"
    },
    {
      "inputs": [],
      "name": "maxAnswer",
      "outputs": [
        {
          "internalType": "int192",
          "name": "",
          "type": "int192"
        }
      ],
      "stateMutability": "view",
      "type": "function"
    },
    {
      "inputs": [],
      "name": "minAnswer",
      "outputs": [
        {
          "internalType": "int192",
          "name": "",
          "type": "int192"
        }
      ],
      "stateMutability": "view",
      "type": "function"
    },
    {
      "inputs": [],
      "name": "moduleType",
      "outputs": [
        {
          "internalType": "uint8",
          "name": "",
          "type": "uint8"
        }
      ],
      "stateMutability": "view",
      "type": "function"
    },
    {
      "inputs": [
        {
          "internalType": "uint256",
          "name": "",
          "type": "uint256"
        }
      ],
      "name": "offchainUrls",
      "outputs": [
        {
          "internalType": "string",
          "name": "",
          "type": "string"
        }
      ],
      "stateMutability": "view",
      "type": "function"
    },
    {
      "inputs": [],
      "name": "owner",
      "outputs": [
        {
          "internalType": "address payable",
          "name": "",
          "type": "address"
        }
      ],
      "stateMutability": "view",
      "type": "function"
    },
    {
      "inputs": [
        {
          "internalType": "bytes",
          "name": "_metadata",
          "type": "bytes"
        },
        {
          "internalType": "bytes",
          "name": "_message",
          "type": "bytes"
        }
      ],
      "name": "process",
      "outputs": [],
      "stateMutability": "nonpayable",
      "type": "function"
    },
    {
      "inputs": [],
      "name": "s_hotVars",
      "outputs": [
        {
          "internalType": "bytes16",
          "name": "latestConfigDigest",
          "type": "bytes16"
        },
        {
          "internalType": "uint40",
          "name": "latestEpochAndRound",
          "type": "uint40"
        },
        {
          "internalType": "uint8",
          "name": "threshold",
          "type": "uint8"
        },
        {
          "internalType": "uint32",
          "name": "latestAggregatorRoundId",
          "type": "uint32"
        }
      ],
      "stateMutability": "view",
      "type": "function"
    },
    {
      "inputs": [
        {
          "internalType": "uint256",
          "name": "",
          "type": "uint256"
        }
      ],
      "name": "s_signers",
      "outputs": [
        {
          "internalType": "address",
          "name": "",
          "type": "address"
        }
      ],
      "stateMutability": "view",
      "type": "function"
    },
    {
      "inputs": [
        {
          "internalType": "address[]",
          "name": "_signers",
          "type": "address[]"
        },
        {
          "internalType": "address[]",
          "name": "_transmitters",
          "type": "address[]"
        },
        {
          "internalType": "uint8",
          "name": "_threshold",
          "type": "uint8"
        },
        {
          "internalType": "uint64",
          "name": "_encodedConfigVersion",
          "type": "uint64"
        },
        {
          "internalType": "bytes",
          "name": "_encoded",
          "type": "bytes"
        }
      ],
      "name": "setConfig",
      "outputs": [],
      "stateMutability": "nonpayable",
      "type": "function"
    },
    {
      "inputs": [
        {
          "internalType": "string[]",
          "name": "urls",
          "type": "string[]"
        }
      ],
      "name": "setOffchainUrls",
      "outputs": [],
      "stateMutability": "nonpayable",
      "type": "function"
    },
    {
      "inputs": [
        {
          "internalType": "address",
          "name": "_to",
          "type": "address"
        }
      ],
      "name": "transferOwnership",
      "outputs": [],
      "stateMutability": "nonpayable",
      "type": "function"
    },
    {
      "inputs": [],
      "name": "transmitters",
      "outputs": [
        {
          "internalType": "address[]",
          "name": "",
          "type": "address[]"
        }
      ],
      "stateMutability": "view",
      "type": "function"
    },
    {
      "inputs": [],
      "name": "typeAndVersion",
      "outputs": [
        {
          "internalType": "string",
          "name": "",
          "type": "string"
        }
      ],
      "stateMutability": "pure",
      "type": "function"
    },
    {
      "inputs": [],
      "name": "validatorConfig",
      "outputs": [
        {
          "internalType": "contract AggregatorValidatorInterface",
          "name": "validator",
          "type": "address"
        },
        {
          "internalType": "uint32",
          "name": "gasLimit",
          "type": "uint32"
        }
      ],
      "stateMutability": "view",
      "type": "function"
    },
    {
      "inputs": [
        {
          "internalType": "bytes",
          "name": "_metadata",
          "type": "bytes"
        },
        {
          "internalType": "bytes",
          "name": "_message",
          "type": "bytes"
        }
      ],
      "name": "verify",
      "outputs": [
        {
          "internalType": "bool",
          "name": "",
          "type": "bool"
        }
      ],
      "stateMutability": "nonpayable",
      "type": "function"
    },
    {
      "inputs": [],
      "name": "version",
      "outputs": [
        {
          "internalType": "uint256",
          "name": "",
          "type": "uint256"
        }
      ],
      "stateMutability": "view",
      "type": "function"
    }
  ],
  "bytecode": "0x60e0604052346200051357620036e2803803806200001d816200052e565b92833981016101c0828203126200051357620000398262000554565b506020906200004a82840162000554565b50620000596040840162000554565b50620000686060840162000554565b50620000776080840162000554565b5060a08301516001600160a01b0393908481160362000513576200009e60c0820162000566565b93620000ad60e0830162000566565b620000bc610100840162000575565b50620000cc610120840162000575565b506101408301519560ff8716870362000513576101608401516001600160401b039390848111620005135786620001059187016200058a565b9461018081015191821680920362000513576101a08101519085821162000513570194601f938785880112156200051357865193868511620005185789986005988a62000157888c1b9d8e016200052e565b80988152018b819d8301019280841162000513578c8301915b848310620004ea57505050505060018060a01b03199260009b8c8533915416178d5560c052805190888211620004d6578c82918b8d620001b2603054620005fc565b8c81116200049a575b5050508c918a84116001146200042f579262000423575b50508160011b916000199060031b1c1916176030555b60805260a052603154161760315551946801000000000000000086116200040f576032548660325580871062000391575b5060328752848720939087905b878910620002675760405161308f90816200065382396080518181816104630152612c33015260a0518181816108e40152612e5c015260c051816104a40152f35b80518051908682116200037d57908891620002838954620005fc565b87811162000344575b508290878311600114620002d8579180600195928695948892620002cc575b5050600019600383901b1c191690841b1789555b0196019801979462000226565b015190503880620002ab565b8986528386209190601f198416875b8181106200032b575091600196939185889796941062000311575b505050831b83018955620002bf565b015160001960f88460031b161c1916905538808062000302565b8284015185558d966001909501949384019301620002e7565b6200036c908a8752848720898086018a1c82019287871062000373575b01891c019062000639565b386200028c565b9250819262000361565b634e487b7160e01b84526041600452602484fd5b603288528686892091820191015b818110620003ae575062000219565b8087620003be60019354620005fc565b80620003ce575b5050016200039f565b8b878083118614620003e85750835550505b8738620003c5565b620004019382868894522092018a1c8201910162000639565b8988812081835555620003e0565b634e487b7160e01b87526041600452602487fd5b015190503880620001d2565b603081528d81209350601f198516908e5b8282106200048257505090846001959493921062000468575b505050811b01603055620001e8565b015160001960f88460031b161c1916905538808062000459565b60018596829396860151815501950193018e62000440565b620004c392603086528d83872092818901831c8401948910620004cc575b01901c019062000639565b8b8d38620001bb565b93508293620004b8565b634e487b7160e01b8d52604160045260248dfd5b82518c811162000513578e9162000507848480948901016200058a565b81520192019162000170565b600080fd5b634e487b7160e01b600052604160045260246000fd5b6040519190601f01601f191682016001600160401b038111838210176200051857604052565b519063ffffffff821682036200051357565b51908160170b82036200051357565b51906001600160a01b03821682036200051357565b919080601f84011215620005135782516001600160401b0381116200051857602090620005c0601f8201601f191683016200052e565b92818452828287010111620005135760005b818110620005e857508260009394955001015290565b8581018301518482018401528201620005d2565b90600182811c921680156200062e575b60208310146200061857565b634e487b7160e01b600052602260045260246000fd5b91607f16916200060c565b81811062000645575050565b600081556001016200063956fe60806040526004361015610013575b600080fd5b60003560e01c80630476092414610293578063181f5a771461028a57806322adbc7814610281578063313ce56714610278578063319ca0c91461026f57806336629c7c1461026657806350d25bcd1461025d57806354fd4d501461025457806356d5d4751461024b578063585aa7de146102425780636465e69f14610239578063668a0f021461023057806370da2f67146102275780637284e4161461021e57806379ba5097146102155780637c39d1301461020c578063814118341461020357806381ff7048146101fa5780638205bf6a146101f15780638da5cb5b146101e85780638e0566de146101df57806395c99b9b146101d65780639a6fc8f5146101cd578063b5ab58dc146101c4578063b633620c146101bb578063bbac9bc8146101b2578063de523cf3146101a9578063e5fe4577146101a0578063edcc66da14610197578063f2fde38b1461018e578063f7e83aee146101855763feaf968c1461017d57600080fd5b61000e611432565b5061000e611382565b5061000e61130a565b5061000e6112a1565b5061000e6110c6565b5061000e6110aa565b5061000e610fb1565b5061000e610f98565b5061000e610f77565b5061000e610e6d565b5061000e610e17565b5061000e610d27565b5061000e610cfd565b5061000e610cc4565b5061000e610c7e565b5061000e610bb6565b5061000e610b06565b5061000e6109ec565b5061000e61090a565b5061000e6108cb565b5061000e6108a3565b5061000e610886565b5061000e6107ea565b5061000e610764565b5061000e61071a565b5061000e6106e1565b5061000e61062e565b5061000e6104c8565b5061000e610489565b5061000e61044a565b5061000e6103eb565b5061000e610349565b600091031261000e57565b919082519283825260005b8481106102d3575050826000602080949584010152601f8019910116010190565b6020818301810151848301820152016102b2565b602080820190808352835180925260408301928160408460051b8301019501936000915b84831061031b5750505050505090565b9091929394958480610339600193603f198682030187528a516102a7565b980193019301919493929061030b565b503461000e57600036600319011261000e57603254610367816105a7565b60409161037683519283610577565b8082526032600090815260206000805160206130638339815191528185015b8484106103ad578651806103a988826102e7565b0390f35b600183819289516103c9816103c2818961120b565b0382610577565b815201920193019290610395565b9060206103e89281815201906102a7565b90565b503461000e57600036600319011261000e576103a960405161040c81610534565b601881527f4f6666636861696e41676772656761746f7220342e302e30000000000000000060208201526040519182916020835260208301906102a7565b503461000e57600036600319011261000e5760206040517f000000000000000000000000000000000000000000000000000000000000000060170b8152f35b503461000e57600036600319011261000e57602060405160ff7f0000000000000000000000000000000000000000000000000000000000000000168152f35b503461000e57600036600319011261000e576080602b5463ffffffff604051916001600160801b031981851b16835264ffffffffff81851c16602084015260ff8160a81c16604084015260b01c166060820152f35b50634e487b7160e01b600052604160045260246000fd5b604081019081106001600160401b0382111761054f57604052565b61055761051d565b604052565b608081019081106001600160401b0382111761054f57604052565b90601f801991011681019081106001600160401b0382111761054f57604052565b604051906105a582610534565b565b6020906001600160401b0381116105c0575b60051b0190565b6105c861051d565b6105b9565b6020906001600160401b0381116105ea575b601f01601f19160190565b6105f261051d565b6105df565b929192610603826105cd565b916106116040519384610577565b82948184528183011161000e578281602093846000960137010152565b503461000e5760208060031936011261000e576001600160401b0360043581811161000e573660238201121561000e57806004013561066c816105a7565b9261067a6040519485610577565b818452848401906024809360051b8501019336851161000e57838101925b8584106106aa576106a887611651565b005b833583811161000e5782013660438201121561000e5788916106d68392369060448a82013591016105f7565b815201930192610698565b503461000e57600036600319011261000e5763ffffffff602b5460b01c16600052602c602052602060406000205460170b604051908152f35b503461000e57600036600319011261000e57602060405160048152f35b9181601f8401121561000e578235916001600160401b03831161000e576020838186019501011161000e57565b503461000e57606036600319011261000e5760043563ffffffff81160361000e576044356001600160401b03811161000e576106a8903690600401610737565b9181601f8401121561000e578235916001600160401b03831161000e576020808501948460051b01011161000e57565b606435906001600160401b038216820361000e57565b503461000e5760a036600319011261000e576001600160401b0360043581811161000e5761081c9036906004016107a4565b9060243583811161000e576108359036906004016107a4565b6044359060ff8216820361000e5761084b6107d4565b9260843596871161000e576108676106a8973690600401610737565b969095611521565b50634e487b7160e01b600052602160045260246000fd5b503461000e57600036600319011261000e57602060405160078152f35b503461000e57600036600319011261000e57602063ffffffff602b5460b01c16604051908152f35b503461000e57600036600319011261000e5760206040517f000000000000000000000000000000000000000000000000000000000000000060170b8152f35b503461000e576000806003193601126109e957604051908060305461092e816111d1565b808552916001918083169081156109bf5750600114610964575b6103a98561095881870382610577565b604051918291826103d7565b9250603083527f6ff97a59c90d62cc7236ba3a37cd85351bf564556780cf8c1157a220f31f0cbb5b8284106109a7575050508101602001610958826103a9610948565b8054602085870181019190915290930192810161098c565b8695506103a99693506020925061095894915060ff191682840152151560051b8201019293610948565b80fd5b503461000e576000806003193601126109e9576001546001600160a01b039081163303610a7e578154610a2f906001600160a01b03165b6001600160a01b031690565b600080546001600160a01b03191633179055600180546001600160a01b0319169055604051913391167f8be0079c531659141344cd1fd0a4f28419497f9722a3daafe3b4186f6b6457e08484a3f35b60405162461bcd60e51b815260206004820152601660248201527526bab9ba10313290383937b837b9b2b21037bbb732b960511b6044820152606490fd5b604060031982011261000e576001600160401b039160043583811161000e5782610ae891600401610737565b9390939260243591821161000e57610b0291600401610737565b9091565b503461000e57610b1536610abc565b9260018060a09493941b036031541690813b1561000e576000610b5c93610b6e8296604051988997889687956307c39d1360e41b8752604060048801526044870191611928565b84810360031901602486015291611928565b03925af18015610ba9575b610b7f57005b806001600160401b036106a89211610b9c575b806040528061029c565b610ba461051d565b610b92565b610bb1611949565b610b79565b503461000e576000806003193601126109e9576040518091602a549081835260208093018092602a83527fbeced09521047d05b8960b7e7bcc1d1292cf3e4b2a6b63f48335cbde5f7545d290835b818110610c615750505084610c1a910385610577565b60405193838594850191818652518092526040850193925b828110610c4157505050500390f35b83516001600160a01b031685528695509381019392810192600101610c32565b82546001600160a01b031684529286019260019283019201610c04565b503461000e57600036600319011261000e576060602d54602b5460801b6040519163ffffffff90818116845260201c1660208301526001600160801b0319166040820152f35b503461000e57600036600319011261000e5763ffffffff602b5460b01c16600052602c602052602060406000205460c01c604051908152f35b503461000e57600036600319011261000e576000546040516001600160a01b039091168152602090f35b503461000e57600036600319011261000e576040610d436121b8565b63ffffffff602060018060a01b038351169201511682519182526020820152f35b602090600319011261000e5760043590565b50634e487b7160e01b600052603260045260246000fd5b602954811015610dc5575b60296000527fcb7c14ce178f56e2e8d86ab33ebc0ae081ba8556a00cd122038841867181caac0190600090565b610dcd610d76565b610d98565b602a54811015610e0a575b602a6000527fbeced09521047d05b8960b7e7bcc1d1292cf3e4b2a6b63f48335cbde5f7545d20190600090565b610e12610d76565b610ddd565b503461000e57610e2636610d64565b60295481101561000e5760296000527fcb7c14ce178f56e2e8d86ab33ebc0ae081ba8556a00cd122038841867181caac01546040516001600160a01b039091168152602090f35b503461000e57602036600319011261000e5760043569ffffffffffffffffffff811680820361000e57604051610ea281610534565b600f81526e139bc819185d18481c1c995cd95b9d608a1b602082015263ffffffff809211610f575750610eea610eef91831663ffffffff16600052602c602052604060002090565b613042565b6103a96001600160401b03610f196020610f0a855160170b90565b9401516001600160401b031690565b6040805169ffffffffffffffffffff90961680875260179590950b6020870152911690840181905260608401526080830191909152819060a0820190565b60405162461bcd60e51b8152908190610f7390600483016103d7565b0390fd5b503461000e576020610f90610f8b36610d64565b612ff7565b604051908152f35b503461000e576020610f90610fac36610d64565b613020565b503461000e576020600319818136011261000e576004356001600160401b03811161000e57610fe583913690600401610737565b92604051938492630556f18360e41b845260a4840130600486015260a0602486015260325480915260c485019060c48160051b870101966032600052600080516020613063833981519152926000905b83821061107657505050505061105a858486610f739798030160448801528383611928565b6307c39d1360e41b606487015292858403016084860152611928565b91600161109581939597999b8397999b60c3199082030186528961120b565b97019201920189979598969492939193611035565b503461000e57600036600319011261000e576020604051308152f35b503461000e57600036600319011261000e5732330361119557602b5463ffffffff906103a9828260b01c1661113961113261111b6111148463ffffffff16600052602c602052604060002090565b5460170b90565b9263ffffffff16600052602c602052604060002090565b5460c01c90565b90604051948460ff879660801c16918160881c169060801b869360ff60809463ffffffff6001600160401b03959998949960a089019a6001600160801b031916895216602088015216604086015260170b606085015216910152565b60405162461bcd60e51b81526020600482015260146024820152734f6e6c792063616c6c61626c6520627920454f4160601b6044820152606490fd5b90600182811c92168015611201575b60208310146111eb57565b634e487b7160e01b600052602260045260246000fd5b91607f16916111e0565b906000929180549161121c836111d1565b91828252600193848116908160001461127e575060011461123e575b50505050565b90919394506000526020928360002092846000945b83861061126a575050505001019038808080611238565b805485870183015294019385908201611253565b9294505050602093945060ff191683830152151560051b01019038808080611238565b503461000e576112b036610d64565b60325481101561000e576103c26112e56103a9926032600052604051928380926000805160206130638339815191520161120b565b6040519182916020835260208301906102a7565b6001600160a01b0381160361000e57565b503461000e57602036600319011261000e57600060043561132a816112f9565b81546001600160a01b03908116916113433384146114dc565b16806001600160601b0360a01b6001541617600155604051917fed8889f560326eb138920d842192f0eb3dd22b4f139c87a2c57538e05bae12788484a3f35b503461000e5761139136610abc565b50508060041161000e5781016080828203600319011261000e576001600160401b0391600481013583811161000e5781018260238201121561000e578281602460046113e094013591016105f7565b91602482013584811161000e578160046113fc928501016115f3565b90604483013594851161000e5761141d6064916004611426978601016115f3565b9201359261284c565b60405160018152602090f35b503461000e57600036600319011261000e57602063ffffffff602b5460b01c1680600052602c82526103a960406000209160405192604084018481106001600160401b038211176114cf575b60405254928360170b9384825260c01c948591015283604051948594838693608093969591929660a086019769ffffffffffffffffffff809516875260208701526040860152606085015216910152565b6114d761051d565b61147e565b156114e357565b60405162461bcd60e51b815260206004820152601660248201527527b7363c9031b0b63630b1363290313c9037bbb732b960511b6044820152606490fd5b9695949392919061153d60018060a01b036000541633146114dc565b60ff841697601f82116115bb5788156115765761157161156a6105a59a611565878614611956565b6117b2565b83116119ae565b611ddc565b60405162461bcd60e51b815260206004820152601a60248201527f7468726573686f6c64206d75737420626520706f7369746976650000000000006044820152606490fd5b60405162461bcd60e51b815260206004820152601060248201526f746f6f206d616e79207369676e65727360801b6044820152606490fd5b81601f8201121561000e5780359161160a836105a7565b926116186040519485610577565b808452602092838086019260051b82010192831161000e578301905b828210611642575050505090565b81358152908301908301611634565b600061166760018060a01b0382541633146114dc565b81511561176c57815191600160401b831161175f575b603254836032558084106116d2575b5060326000526020906000805160206130638339815191529082015b8484106116b6575050505050565b600183826116c68394518661184c565b019201930192906116a8565b603283528360008051602061306383398151915291820191015b8181106116f9575061168c565b80611706600192546111d1565b80611713575b50016116ec565b601f90818111841461172b5750508481555b3861170c565b8361174d9261173f85600052602060002090565b920160051c820191016117f0565b60008181526020812081835555611725565b61176761051d565b61167d565b60405162461bcd60e51b8152602060048201526007602482015266042d8cadccee8d60cb1b6044820152606490fd5b50634e487b7160e01b600052601160045260246000fd5b7f555555555555555555555555555555555555555555555555555555555555555581116001166117e3575b60030290565b6117eb61179b565b6117dd565b8181106117fb575050565b600081556001016117f0565b9190601f811161181657505050565b6105a5926000526020600020906020601f840160051c83019310611842575b601f0160051c01906117f0565b9091508190611835565b91909182516001600160401b03811161191b575b6118748161186e84546111d1565b84611807565b602080601f83116001146118b05750819293946000926118a5575b50508160011b916000199060031b1c1916179055565b01519050388061188f565b90601f198316956118c685600052602060002090565b926000905b888210611903575050836001959697106118ea575b505050811b019055565b015160001960f88460031b161c191690553880806118e0565b806001859682949686015181550195019301906118cb565b61192361051d565b611860565b908060209392818452848401376000828201840152601f01601f1916010190565b506040513d6000823e3d90fd5b1561195d57565b60405162461bcd60e51b8152602060048201526024808201527f6f7261636c6520616464726573736573206f7574206f662072656769737472616044820152633a34b7b760e11b6064820152608490fd5b156119b557565b606460405162461bcd60e51b815260206004820152602060248201527f6661756c74792d6f7261636c65207468726573686f6c6420746f6f20686967686044820152fd5b600019810191908211611a0857565b6105a561179b565b6029548015611a71577fcb7c14ce178f56e2e8d86ab33ebc0ae081ba8556a00cd122038841867181caab60001982019180831015611a64575b6029600052016001600160601b0360a01b8154169055602955565b611a6c610d76565b611a49565b634e487b7160e01b600052603160045260246000fd5b602a548015611a71577fbeced09521047d05b8960b7e7bcc1d1292cf3e4b2a6b63f48335cbde5f7545d160001982019180831015611adb575b602a600052016001600160601b0360a01b8154169055602a55565b611ae3610d76565b611ac0565b6001906000198114611af8570190565b611b0061179b565b0190565b9190811015611b145760051b0190565b6105c8610d76565b356103e8816112f9565b60031115611b3057565b6105a561086f565b15611b3f57565b60405162461bcd60e51b815260206004820152601760248201527f7265706561746564207369676e657220616464726573730000000000000000006044820152606490fd5b9060ff81511661ff0060208454938360ff19861617865501516003811015611bb7575b60081b169161ffff191617179055565b611bbf61086f565b611ba7565b15611bcb57565b60405162461bcd60e51b815260206004820152601c60248201527f7265706561746564207472616e736d69747465722061646472657373000000006044820152606490fd5b6105a590602954600160401b811015611c87575b6001810180602955811015611c7a575b60296000527fcb7c14ce178f56e2e8d86ab33ebc0ae081ba8556a00cd122038841867181caac0180546001600160a01b0319166001600160a01b03909216919091179055565b611c82610d76565b611c34565b611c8f61051d565b611c24565b6105a590602a54600160401b811015611d0b575b6001810180602a55811015611cfe575b602a6000527fbeced09521047d05b8960b7e7bcc1d1292cf3e4b2a6b63f48335cbde5f7545d20180546001600160a01b0319166001600160a01b03909216919091179055565b611d06610d76565b611cb8565b611d1361051d565b611ca8565b90600163ffffffff80931601918211611a0857565b91908082526020809201929160005b828110611d4a575050505090565b9091929382806001928735611d5e816112f9565b848060a01b03168152019501910192919092611d3c565b95611db460ff946103e89c9a966001600160401b039894611dc2969d9b9d63ffffffff8092168c521660208b015260e060408b015260e08a0191611d2d565b918783036060890152611d2d565b961660808401521660a082015260c0818503910152611928565b9490939795919692975b6029548015611e7c57611e66611dfe611e4b926119f9565b611e2b611e10611e25611e1084610d8d565b905460039190911b1c6001600160a01b031690565b92610dd2565b6001600160a01b0390911660009081526028602052604081209093849190565b556001600160a01b0316600090815260286020526040902090565b55611e6f611a10565b611e77611a87565b611de6565b50909192939495969760005b868110611f995750602b805460ff60a81b191660a884901b60ff60a81b1617905596979596949586959088868686868686602d54611ecd9063ffffffff9060201c1690565b602d805467ffffffff0000000019164360201b67ffffffff00000000161790559d602d5463ffffffff16611f0090611d18565b611f1a9063ffffffff1663ffffffff19602d541617602d55565b602d54611f2e989063ffffffff163061210e565b611f489060801c6001600160801b0319602b541617602b55565b602b805464ffffffffff60801b19169055602d5463ffffffff1697604051998a99611f73998b611d75565b037f25d719d88a4512dd76c7442b910a83360845505894eb444ef299409e180f8fb991a1565b611fa481888a611b04565b611fad90611b1c565b6001600160a01b031660009081526028602052604090205460081c60ff16611fd481611b26565b15611fde90611b38565b60ff8116878b8385611fee610598565b60ff861681528d836020968784016120069060019052565b61200f92611b04565b61201890611b1c565b6001600160a01b031660009081526028602052604090209061203991611b84565b61204292611b04565b61204b90611b1c565b6001600160a01b031660009081526028602052604090205460081c60ff1661207281611b26565b1561207c90611bc4565b612084610598565b60ff909216825260029082015261209c82848d611b04565b6120a590611b1c565b6001600160a01b03166000908152602860205260409020906120c691611b84565b6120d181888a611b04565b6120da90611b1c565b6120e390611c10565b6120ee81838c611b04565b6120f790611b1c565b61210090611c94565b61210990611ae8565b611e88565b98929593979496909197604051988997602089019b600160a01b60019003168c526001600160401b0380951660408a01526060890160e0905261010089019061215692611d2d565b601f1998898983030160808a015261216d92611d2d565b9360ff1660a08701521660c0850152848483030160e085015261218f92611928565b03908101825261219f9082610577565b5190206fffffffffffffffffffffffffffffffff191690565b604051906121c582610534565b602e546001600160a01b038116835260a01c63ffffffff166020830152565b604051906000608060a08401938085106001600160401b03861117612243575b8460405280946122138161055c565b8381528360c08301528360e083015283610100830152815260606020820152606060408201526060808201520152565b61224b61051d565b612204565b6040519061225d8261055c565b81606063ffffffff602b546001600160801b03198160801b16845264ffffffffff8160801c16602085015260ff8160a81c16604085015260b01c16910152565b909160608284031261000e57815192602080840151936040810151906001600160401b03821161000e57019180601f8401121561000e5782516122df816105a7565b936122ed6040519586610577565b818552838086019260051b82010192831161000e578301905b828210612314575050505090565b81518060170b810361000e578152908301908301612306565b1561233457565b60405162461bcd60e51b815260206004820152600c60248201526b1cdd185b19481c995c1bdc9d60a21b6044820152606490fd5b1561236f57565b60405162461bcd60e51b81526020600482015260156024820152746e6f7420656e6f756768207369676e61747572657360581b6044820152606490fd5b156123b357565b60405162461bcd60e51b8152602060048201526013602482015272746f6f206d616e79207369676e61747572657360681b6044820152606490fd5b156123f557565b60405162461bcd60e51b815260206004820152601e60248201527f7369676e617475726573206f7574206f6620726567697374726174696f6e00006044820152606490fd5b1561244157565b60405162461bcd60e51b815260206004820152601e60248201527f6e756d206f62736572766174696f6e73206f7574206f6620626f756e647300006044820152606490fd5b6101fe90607f60ff8216116001166124a0575b60011b1690565b6124a861179b565b612499565b156124b457565b60405162461bcd60e51b815260206004820152601e60248201527f746f6f206665772076616c75657320746f207472757374206d656469616e00006044820152606490fd5b90612503826105cd565b6125106040519182610577565b8281528092612521601f19916105cd565b0190602036910137565b60ff6001911660ff8114611af8570190565b90602091805182101561254f57010190565b612557610d76565b010190565b604051906103e08083018381106001600160401b03821117612581575b604052368337565b61258961051d565b612579565b90601f811015611b145760051b0190565b156125a657565b60405162461bcd60e51b815260206004820152601760248201527f6f6273657276657220696e6465782072657065617465640000000000000000006044820152606490fd5b604051906125f882610534565b60006020838281520152565b60ff601b9116019060ff8211611a0857565b602091815181101561262b575b60051b010190565b612633610d76565b612623565b9060405161264581610534565b602060ff829454818116845260081c16916003831015612663570152565b61266b61086f565b0152565b1561267657565b60405162461bcd60e51b815260206004820152601e60248201527f61646472657373206e6f7420617574686f72697a656420746f207369676e00006044820152606490fd5b156126c257565b60405162461bcd60e51b81526020600482015260146024820152736e6f6e2d756e69717565207369676e617475726560601b6044820152606490fd5b9060018201809211611a0857565b1561271357565b60405162461bcd60e51b815260206004820152601760248201527f6f62736572766174696f6e73206e6f7420736f727465640000000000000000006044820152606490fd5b1561275f57565b60405162461bcd60e51b815260206004820152601e60248201527f6d656469616e206973206f7574206f66206d696e2d6d61782072616e676500006044820152606490fd5b60019063ffffffff809116908114611af8570190565b9594939160a0870190601792830b885260209060018060a01b03168189015260a0604089015284518092528060c089019501926000905b8382106128165750505050508161281191866080940360608801526102a7565b930152565b8451810b875295820195938201936001909101906127f1565b1561283657565b634e487b7160e01b600052600160045260246000fd5b939192905a9261285a6121e4565b93612863612250565b8552612878602088518901016020890161229d565b604088959395949294015283608088015264ffffffffff946128b2868616876128ab60208c510164ffffffffff90511690565b161061232d565b6128d681516128d06128ca60408c510160ff90511690565b60ff1690565b10612368565b6128e4601f825111156123ac565b6128f189518251146123ee565b612903601f60408a015151111561243a565b61292d6040890151516129276128ca61292260408d510160ff90511690565b612486565b106124ad565b61293781516124f9565b606089015260005b815160ff8216908110156129855790816020612973931015612978575b61296d8a821a9160608d015161253d565b5361252b565b61293f565b612980610d76565b61295c565b5050929550929690939761299d6040880151516124f9565b60208801526129aa61255c565b9860005b60408901515160ff82161015612a2e5780602060ff612a1c93161015612a21575b8b612a0b612a058b60ff85161a83612a006129fb6129f76129f185809961258e565b51151590565b1590565b61259f565b61258e565b60019052565b61296d60ff831660208d015161253d565b6129ae565b612a29610d76565b6129cf565b50919498509296612a4d9295501660208651019064ffffffffff169052565b6020815191012092612a5d61255c565b95612a666125eb565b5060005b8451811015612b995780612b82612a05612b7c6128ca8a612b75612b708f6129f16129f7918f8f8f602092612b879f92612ae484612add81612ad7612ad2612acc612abe60009b6060612b069c015161253d565b516001600160f81b03191690565b60f81c90565b612604565b95612616565b5192612616565b51604080519c8d5260ff90931660208d0152918b015260608a01526080890190565b97818052806001990390895afa15612b8c575b600080516001600160a01b03168152602860205260409020612b5c90612b3e90612638565b966020880151612b4d81611b26565b612b5681611b26565b1461266f565b612b6a6128ca875160ff1690565b9061258e565b6126bb565b5160ff1690565b8b61258e565b611ae8565b612a6a565b612b94611949565b612b19565b5095509250505060005b612bb16040830151516119f9565b811015612c0a5780612b82612bd7612bd0612c05946040870151612616565b5160170b90565b612bfa612bf4612bd06040880151612bee876126fe565b90612616565b60170b90565b9060170b131561270c565b612ba3565b506105a591612e53612c28612bd06040850151612bee815160011c90565b92612dfe8460170b807f000000000000000000000000000000000000000000000000000000000000000060170b131580612e59575b612c6690612758565b612c8e6060845101612c84612c7f825163ffffffff1690565b6127a4565b63ffffffff169052565b612cfd612c99610598565b601788900b8152426001600160401b03166020820152845160600151612cd59063ffffffff1663ffffffff16600052602c602052604060002090565b815160209092015160c01b6001600160c01b0319166001600160c01b03909216919091179055565b82516060015163ffffffff16957ff6a97944f31ea060dfde0566e4167c1a1082551e64b60ecb14d599a9d023d4516040850151602086015190612d55608088015160405193849363ffffffff809e16973390866127ba565b0390a2600086612d6e606086510163ffffffff90511690565b167f0109fc6f55cf40689f02fbaad7af7fe7bbac8a3d2186600afc7d3e10cac6027160405180612da342829190602083019252565b0390a3825160600151869063ffffffff1616817f0559884fd3a460db3073b7fc896cc77986f16e378210ded43186175bf646fc5f60405180612dea42829190602083019252565b0390a382516060015163ffffffff16612ec5565b51805190602b5460208201519060ff60a81b604084015160a81b1692606063ffffffff60b01b91015160b01b169360801c9065ffffffffffff60d01b16179064ffffffffff60801b9060801b16171717602b55565b1061282f565b507f000000000000000000000000000000000000000000000000000000000000000060170b811315612c5d565b15612e8d57565b60405162461bcd60e51b815260206004820152601060248201526f696e73756666696369656e742067617360801b6044820152606490fd5b612ecd6121b8565b80516001600160a01b031615612fa3576105a592612f9192612f8b9263ffffffff938480931693612f7d600019860191858311612f96575b612f226111148463ffffffff16600052602c602052604060002090565b96612f48610a23612f3a602089015163ffffffff1690565b97516001600160a01b031690565b97604051998a9563beed9b5160e01b602088015216602486019094939260609260808301968352602083015260408201520152565b03601f198101865285610577565b16612fa8565b612e86565b612f9e61179b565b612f05565b505050565b60009392915a611388811015612fbe5750505050565b6113871980820160061c909103018210612fd9575b80611238565b6000809495508392916020829551940192f150600190388080612fd3565b63ffffffff908181116130195716600052602c60205260406000205460170b90565b5050600090565b63ffffffff908181116130195716600052602c60205260406000205460c01c90565b9060405161304f81610534565b60208193548060170b835260c01c91015256fe11df491316f14931039edfd4f8964c9a443b862f02d4c7611d18c2bc4e6ff697a164736f6c6343000810000a",
  "linkReferences": {},
  "deployedLinkReferences": {}
}