{
  "_format": "hh-sol-artifact-1",
  "contractName": "GelatoAutomate",
  "sourceName": "contracts/GelatoAutomate.sol",
  "abi": [
    {
      "inputs": [
        {
          "internalType": "address payable",
          "name": "_ops",
          "type": "address"
        },
        {
          "internalType": "address payable",
          "name": "_taskCreator",
          "type": "address"
        },
        {
          "internalType": "address",
          "name": "_mailbox",
          "type": "address"
        },
        {
          "internalType": "address",
          "name": "_igp",
          "type": "address"
        },
        {
          "internalType": "address",
          "name": "_aggregator",
          "type": "address"
        },
        {
          "internalType": "uint32",
          "name": "_destinationDomain",
          "type": "uint32"
        },
        {
          "internalType": "address",
          "name": "_destinationAggregator",
          "type": "address"
        }
      ],
      "stateMutability": "nonpayable",
      "type": "constructor"
    },
    {
      "inputs": [],
      "name": "aggregator",
      "outputs": [
        {
          "internalType": "contract AggregatorInterface",
          "name": "",
          "type": "address"
        }
      ],
      "stateMutability": "view",
      "type": "function"
    },
    {
      "inputs": [],
      "name": "checker",
      "outputs": [
        {
          "internalType": "bool",
          "name": "",
          "type": "bool"
        },
        {
          "internalType": "bytes",
          "name": "",
          "type": "bytes"
        }
      ],
      "stateMutability": "view",
      "type": "function"
    },
    {
      "inputs": [],
      "name": "dedicatedMsgSender",
      "outputs": [
        {
          "internalType": "address",
          "name": "",
          "type": "address"
        }
      ],
      "stateMutability": "view",
      "type": "function"
    },
    {
      "inputs": [],
      "name": "destinationAggregator",
      "outputs": [
        {
          "internalType": "address",
          "name": "",
          "type": "address"
        }
      ],
      "stateMutability": "view",
      "type": "function"
    },
    {
      "inputs": [],
      "name": "destinationDomain",
      "outputs": [
        {
          "internalType": "uint32",
          "name": "",
          "type": "uint32"
        }
      ],
      "stateMutability": "view",
      "type": "function"
    },
    {
      "inputs": [],
      "name": "igp",
      "outputs": [
        {
          "internalType": "contract IInterchainGasPaymaster",
          "name": "",
          "type": "address"
        }
      ],
      "stateMutability": "view",
      "type": "function"
    },
    {
      "inputs": [],
      "name": "latestRoundRelayed",
      "outputs": [
        {
          "internalType": "uint256",
          "name": "",
          "type": "uint256"
        }
      ],
      "stateMutability": "view",
      "type": "function"
    },
    {
      "inputs": [],
      "name": "mailbox",
      "outputs": [
        {
          "internalType": "contract IMailbox",
          "name": "",
          "type": "address"
        }
      ],
      "stateMutability": "view",
      "type": "function"
    },
    {
      "inputs": [],
      "name": "ops",
      "outputs": [
        {
          "internalType": "contract IOps",
          "name": "",
          "type": "address"
        }
      ],
      "stateMutability": "view",
      "type": "function"
    },
    {
      "inputs": [
        {
          "internalType": "uint256",
          "name": "",
          "type": "uint256"
        }
      ],
      "name": "relayRoundData",
      "outputs": [],
      "stateMutability": "nonpayable",
      "type": "function"
    },
    {
      "inputs": [],
      "name": "withdrawETH",
      "outputs": [],
      "stateMutability": "nonpayable",
      "type": "function"
    },
    {
      "stateMutability": "payable",
      "type": "receive"
    }
  ],
  "bytecode": "0x60e0604090808252346200024f5760e08162000d04803803809162000025828562000254565b8339810103126200024f576200003b816200028e565b6020916200004b8382016200028e565b92620000598583016200028e565b9162000068606082016200028e565b9162000077608083016200028e565b9260a08301519263ffffffff841684036200024f5760c06200009a91016200028e565b9460048360018060a01b0380809a169a1699806080528b519283809263573ea57560e01b82525afa80156200020557889160009162000210575b501660c05288516337b6269f60e21b815260048101899052898160248173c815db16d4be6ddf2685c201937905abf338f5d75afa90811562000205578894600092620001ac575b505090839160a05260018060a01b0319988960025416176002551687600054161760005516856001541617600155836003549163ffffffff60a01b9060a01b1692169060018060c01b03191617176003551690600454161760045551610a609081620002a4823960805181818160ea01526103aa015260a0518161077d015260c05181818161040e015261049a0152f35b90929394508a83813d8311620001fd575b620001c9818362000254565b81010312620001f957620001dd836200028e565b92015180151503620001f657508692919083386200011b565b80fd5b5080fd5b503d620001bd565b8a513d6000823e3d90fd5b91508482813d831162000247575b6200022a818362000254565b81010312620001f657506200024088916200028e565b38620000d4565b503d6200021e565b600080fd5b601f909101601f19168101906001600160401b038211908210176200027857604052565b634e487b7160e01b600052604160045260246000fd5b51906001600160a01b03821682036200024f5756fe6080604081815260049182361015610022575b505050361561002057600080fd5b005b600092833560e01c918263245a7bfc146107d4575081632858c55a146107ac57816328f150eb1461076857816389ed2a551461074057816396dd306c1461024a5781639712115a1461022b578163cf5303cf146101ec578163d5438eae146101c4578163e086e5ec1461011957508063e70abe92146100d65763f28b2daa146100ab5780610012565b346100d257816003193601126100d25760015490516001600160a01b039091168152602090f35b5080fd5b50346100d257816003193601126100d257517f00000000000000000000000000000000000000000000000000000000000000006001600160a01b03168152602090f35b9050346101c057826003193601126101c0576002546001600160a01b0316338190036101945783808092478651915af1610151610976565b501561015b575051f35b6020606492519162461bcd60e51b835282015260146024820152732330b4b632b2103a379039b2b7321022ba3432b960611b6044820152fd5b506020606492519162461bcd60e51b8352820152600660248201526510b7bbb732b960d11b6044820152fd5b8280fd5b5050346100d257816003193601126100d257905490516001600160a01b039091168152602090f35b8284346102285780600319360112610228575061022461020a6108a9565b8392919251938493151584528060208501528301906107f9565b0390f35b80fd5b5050346100d257816003193601126100d2576020906005549051908152f35b9050346101c057602080600319360112610612576003548351633345078160e11b8152916001600160a01b03818486818487165afa938415610736578794610707575b506005548411156106c65783600555808754169381865416938888519667ffffffffffffffff809416868901528588526102c688610839565b858a51809263fa31de0160e01b825263ffffffff809660a01c168c8301526024998a83015281858160449d8e82016060905260648201610305916107f9565b03925af19081156106bc57829161068f575b5084600154169260035460a01c16928a5163a692979360e01b8152848b8201526205573090818a82015288818c81865afa908115610685578591610658575b50823b1561060e576084928c928e519788968795630237e58360e31b87528601528c8501528c8401523060648401525af1801561064e57610627575b508651635c08631b60e11b81528892909190888389817f000000000000000000000000000000000000000000000000000000000000000085165afa801561061d57849385916105d6575b5081169073eeeeeeeeeeeeeeeeeeeeeeeeeeeeeeeeeeeeeeee821480156105ce575b15610483575050508180918851907f00000000000000000000000000000000000000000000000000000000000000005af1610437610976565b5015610444575050505051f35b7f5f7472616e736665723a20455448207472616e73666572206661696c656400009291601e91606496519562461bcd60e51b8752860152840152820152fd5b919350918851908582019263a9059cbb60e01b84527f00000000000000000000000000000000000000000000000000000000000000001687830152878201528681526080810193818510908511176105ba57898493928192610527968c526104ea86610839565b8786527f5361666545524332303a206c6f772d6c6576656c2063616c6c206661696c656460a0820152519082855af1610521610976565b916109b6565b8051828115918215610596575b5050905015610544575050505051f35b7f5361666545524332303a204552433230206f7065726174696f6e20646964206e9291602a91608496519562461bcd60e51b8752860152840152820152691bdd081cdd58d8d9595960b21b6064820152fd5b83809293500103126105b65781015180151581036105b657808238610534565b8680fd5b85604189634e487b7160e01b600052526000fd5b5081156103fe565b8094508a8092503d8311610616575b6105ef8183610887565b810103126106125784835193015192818416840361060e5792816103dc565b8480fd5b8380fd5b503d6105e5565b89513d86823e3d90fd5b8181999293991161063c578752969038610392565b634e487b7160e01b8252604187528482fd5b88513d8b823e3d90fd5b90508881813d831161067e575b61066f8183610887565b8101031261060e575138610356565b503d610665565b8d513d87823e3d90fd5b90508581813d83116106b5575b6106a68183610887565b810103126100d2575138610317565b503d61069c565b8a513d84823e3d90fd5b606485838089519262461bcd60e51b845283015260248201527f6c6174657374526f756e64203e206c6174657374526f756e6452656c617965646044820152fd5b9093508181813d831161072f575b61071f8183610887565b810103126105b65751923861028d565b503d610715565b86513d89823e3d90fd5b9050346101c057826003193601126101c0575490516001600160a01b03909116815260209150f35b5050346100d257816003193601126100d257517f00000000000000000000000000000000000000000000000000000000000000006001600160a01b03168152602090f35b5050346100d257816003193601126100d25760209063ffffffff60035460a01c169051908152f35b8490346100d257816003193601126100d2576003546001600160a01b03168152602090f35b919082519283825260005b848110610825575050826000602080949584010152601f8019910116010190565b602081830181015184830182015201610804565b6040810190811067ffffffffffffffff82111761085557604052565b634e487b7160e01b600052604160045260246000fd5b6060810190811067ffffffffffffffff82111761085557604052565b90601f8019910116810190811067ffffffffffffffff82111761085557604052565b600354604051633345078160e11b8152602092918390829060049082906001600160a01b03165afa90811561096a5760009161093d575b506005541061091357604051916325b74c1b60e21b90830152600060248301526024825261090d8261086b565b60009190565b604051916325b74c1b60e21b9083015260016024830152602482526109378261086b565b60019190565b908382813d8311610963575b6109538183610887565b81010312610228575051386108e0565b503d610949565b6040513d6000823e3d90fd5b3d156109b1573d9067ffffffffffffffff821161085557604051916109a5601f8201601f191660200184610887565b82523d6000602084013e565b606090565b91929015610a1857508151156109ca575090565b3b156109d35790565b60405162461bcd60e51b815260206004820152601d60248201527f416464726573733a2063616c6c20746f206e6f6e2d636f6e74726163740000006044820152606490fd5b825190915015610a2b5750805190602001fd5b60405162461bcd60e51b815260206004820152908190610a4f9060248301906107f9565b0390fdfea164736f6c6343000810000a",
  "linkReferences": {},
  "deployedLinkReferences": {}
}